:100000000C942A000C9447000C9447000C94470071
:100010000C9447000C9447000C9447000C94470044
:100020000C9447000C9447000C9447000C94470034
:100030000C9447000C9447000C9447000C94470024
:100040000C9447000C9447000C9447000C94470014
:100050000C94470011241FBECFE5D8E0DEBFCDBF12
:1000600010E0A0E6B0E0EAEEF9E302C005900D92E0
:10007000A23AB107D9F710E0A2EAB0E001C01D92A0
:10008000A33AB107E1F70E945A1C0C94F31C0C949C
:100090000000EF92FF920F931F937B018C0120E0F1
:1000A00030E040E05FE40E94F50388238CF0C80153
:1000B000B70120E030E040E05FE40E94C1010E940F
:1000C00055049B01AC01205030404040504806C0D0
:1000D000C801B7010E9455049B01AC01B901CA01D6
:1000E0001F910F91FF90EF900895A0E0B0E0EBE733
:1000F000F0E00C94BC1CDC012B01FA019C919230C5
:1001000008F439C1EB018881823008F433C194309E
:1001100069F4843009F02FC111969C91119789815F
:10012000981709F428C1A6E6B0E025C1843009F487
:1001300021C18230A9F4923009F01DC19A01AD01AC
:1001400088E0EA010990AE01E90109929E0181501F
:10015000C1F7E201898111969C918923818308C1AD
:10016000923009F407C112962D903C901397EB0141
:100170008A819B811496AD90BD90CD90DC901797AD
:10018000EC80FD800E811F819101281B390BB90184
:1001900037FF04C066277727621B730B6032710537
:1001A0000CF061C0121613066CF537014801062EDB
:1001B00004C096948794779467940A94D2F721E0C8
:1001C00030E040E050E004C0220F331F441F551FB1
:1001D0006A95D2F721503040404050402E213F21B7
:1001E00040235123211531054105510521F021E01E
:1001F00030E040E050E079018A01E628F72808293C
:1002000019293CC0232BD1F1260E371E350146019A
:10021000062E04C096948794779467940A94D2F734
:1002200021E030E040E050E004C0220F331F441FC3
:10023000551F6A95D2F721503040404050402A2146
:100240003B214C215D21211531054105510521F04E
:1002500021E030E040E050E059016A01A628B728CB
:10026000C828D9280BC0821593052CF01C01AA249C
:10027000BB24650103C0EE24FF24870111969C91E5
:10028000D20111968C91981709F445C0992339F041
:10029000A80197012A193B094C095D0906C0A6016E
:1002A00095012E193F09400B510B57FD08C01182D3
:1002B0003382228224833583468357831DC081E0A5
:1002C00081833382228288279927DC01821B930B4A
:1002D000A40BB50B84839583A683B7830DC0220F2F
:1002E000331F441F551F24833583468357838281E0
:1002F000938101979383828324813581468157813D
:10030000DA01C9010197A109B1098F5F9F4FAF4F72
:10031000BF4328F30BC0918333822282EA0CFB1C7B
:100320000C1D1D1DE482F5820683178383E0808304
:10033000248135814681578157FF1AC0C901AA27F8
:1003400097FDA095BA2F81709070A070B0705695EF
:10035000479537952795822B932BA42BB52B848318
:100360009583A683B7838281938101969383828349
:10037000DF0101C0D201CD01CDB7DEB7E2E10C94BF
:10038000D81CA0E2B0E0E7ECF1E00C94C81C698353
:100390007A838B839C832D833E834F835887E9E048
:1003A000EE2EF12CEC0EFD1ECE010196B7010E943F
:1003B0007E058E010F5E1F4FCE010596B8010E948B
:1003C0007E058A8991E089278A8BC701B801AE0131
:1003D000475E5F4F0E9475000E94A904A096E6E068
:1003E0000C94E41CA0E2B0E0E8EFF1E00C94C81C2F
:1003F00069837A838B839C832D833E834F835887C5
:10040000F9E0EF2EF12CEC0EFD1ECE010196B701A6
:100410000E947E058E010F5E1F4FCE010596B8012A
:100420000E947E05C701B801AE01475E5F4F0E9482
:1004300075000E94A904A096E6E00C94E41CA0E2DA
:10044000B0E0E5E2F2E00C94BC1C69837A838B8314
:100450009C832D833E834F835887CE010196BE0136
:10046000675F7F4F0E947E05CE010596BE016F5EDD
:100470007F4F0E947E059985923088F0898982306D
:10048000C8F0943019F4823051F404C0843029F457
:10049000923081F486E690E0C6C0923049F420E0C4
:1004A0009A858A89981321E02A87CE010996BBC0D4
:1004B000823049F420E09A858A89981321E02A8BBA
:1004C000CE014196B0C02D843E844F8458886D88FB
:1004D0007E888F88988CEE24FF248701AA24BB2471
:1004E000650140E050E060E070E0E0E0F0E0C10174
:1004F00081709070892BE9F0E60CF71C081D191D1E
:100500009A01AB012A0D3B1D4C1D5D1D80E090E062
:10051000A0E0B0E0E614F7040805190520F481E036
:1005200090E0A0E0B0E0BA01A901480F591F6A1F8E
:100530007B1FAA0CBB1CCC1CDD1C97FE08C081E0F5
:1005400090E0A0E0B0E0A82AB92ACA2ADB2A3196B6
:10055000E032F10549F0660C771C881C991C569412
:10056000479437942794C3CFFA85EA892B893C892D
:100570008B859C85280F391F2E5F3F4F17C0CA01FE
:1005800081709070892B61F016950795F794E79428
:1005900080E090E0A0E0B0E8E82AF92A0A2B1B2BC3
:1005A00076956795579547952F5F3F4F77FDE7CF36
:1005B0000CC0440F551F661F771F17FD4160EE0CDE
:1005C000FF1C001F111F21503040403090E05907A0
:1005D00090E0690790E4790760F32B8F3C8FDB0193
:1005E000CA018F779070A070B07080349105A1051A
:1005F000B10561F447FD0AC0E114F10401051105DC
:1006000029F0405C5F4F6F4F7F4F40781A8EFE1786
:1006100011F081E08A8F4D8F5E8F6F8F78A383E01A
:10062000898FCE0149960E94A904A096E2E10C941C
:10063000D81CA8E1B0E0EFE1F3E00C94C41C69839E
:100640007A838B839C832D833E834F835887B9E0C5
:10065000EB2EF12CEC0EFD1ECE010196B7010E948F
:100660007E058E010F5E1F4FCE010596B8010E94D8
:100670007E052985223008F47EC03989323010F495
:10068000B8017CC08A859A8989278A87243011F02D
:10069000223031F4231709F06EC066E670E06EC0B8
:1006A000343039F41D861E861F86188A1C861B86E8
:1006B00004C0323021F484E08987B7015FC02B8504
:1006C0003C858B899C89281B390B3C872B87ED84C3
:1006D000FE840F851889AD88BE88CF88D88CEA142F
:1006E000FB040C051D0540F4EE0CFF1C001F111F40
:1006F000215030403C872B8720E030E040E050E044
:1007000080E090E0A0E0B0E460E070E0EA14FB0478
:100710000C051D0540F0282B392B4A2B5B2BEA18C2
:10072000FB080C091D09B695A79597958795EE0CC2
:10073000FF1C001F111F6F5F7F4F6F31710531F775
:10074000DA01C9018F779070A070B0708034910584
:10075000A105B10561F427FD0AC0E114F10401050A
:10076000110529F0205C3F4F4F4F5F4F20782D87B8
:100770003E874F87588BBE01675F7F4FCB010E943A
:10078000A9046896EAE00C94E01CA8E1B0E0EBEC68
:10079000F3E00C94C81C69837A838B839C832D833C
:1007A0003E834F83588789E0E82EF12CEC0EFD1E26
:1007B000CE010196B7010E947E058E010F5E1F4F8C
:1007C000CE010596B8010E947E058985823040F0F1
:1007D0008989823028F0C701B8010E94F60501C05E
:1007E0008FEF6896E6E00C94E41CA8E1B0E0EBEF34
:1007F000F3E00C94C81C69837A838B839C832D83DC
:100800003E834F83588789E0E82EF12CEC0EFD1EC5
:10081000CE010196B7010E947E058E010F5E1F4F2B
:10082000CE010596B8010E947E058985823040F090
:100830008989823028F0C701B8010E94F60501C0FD
:100840008FEF6896E6E00C94E41CA8E1B0E0EBE2E0
:10085000F4E00C94C81C69837A838B839C832D837A
:100860003E834F83588789E0E82EF12CEC0EFD1E65
:10087000CE010196B7010E947E058E010F5E1F4FCB
:10088000CE010596B8010E947E058985823040F030
:100890008989823028F0C701B8010E94F60501C09D
:1008A00081E06896E6E00C94E41CACE0B0E0EBE597
:1008B000F4E00C94CC1C69837A838B839C83CE01F7
:1008C0000196BE016B5F7F4F0E947E058D81823055
:1008D00061F1823050F1843021F48E81882351F10E
:1008E0002EC02F81388537FD20C06E812F31310514
:1008F0001CF06623F9F023C08EE190E0821B930B7D
:1009000029853A854B855C8504C056954795379572
:1009100027958A95D2F76623B1F05095409530958A
:1009200021953F4F4F4F5F4F0EC020E030E040E039
:1009300050E009C02FEF3FEF4FEF5FE704C020E02A
:1009400030E040E050E8B901CA012C96E2E00C9496
:10095000E81CDF92EF92FF920F931F93FC01E4805B
:10096000F58006811781D1808081823048F480E053
:1009700090E0A0E1B0E0E82AF92A0A2B1B2BA5C0E1
:10098000843009F49FC0823021F4EE24FF248701D3
:1009900005C0E114F1040105110519F4E0E0F0E0EF
:1009A00096C0628173819FEF623879070CF05BC05B
:1009B00022E83FEF261B370B2A3131052CF020E0CF
:1009C00030E040E050E02AC0B801A701022E04C088
:1009D00076956795579547950A94D2F781E090E010
:1009E000A0E0B0E004C0880F991FAA1FBB1F2A9582
:1009F000D2F70197A109B1098E219F21A023B1232C
:100A00000097A105B10521F081E090E0A0E0B0E001
:100A10009A01AB01282B392B4A2B5B2BDA01C90138
:100A20008F779070A070B07080349105A105B105EA
:100A300039F427FF09C0205C3F4F4F4F5F4F04C080
:100A4000215C3F4F4F4F5F4FE0E0F0E02030A0E0EF
:100A50003A07A0E04A07A0E45A0710F0E1E0F0E00E
:100A600079018A0127C06038710564F5FB01E158FE
:100A7000FF4FD801C7018F779070A070B07080349D
:100A80009105A105B10539F4E7FE0DC080E490E0C1
:100A9000A0E0B0E004C08FE390E0A0E0B0E0E80E9A
:100AA000F91E0A1F1B1F17FF05C016950795F7941F
:100AB000E794319687E016950795F794E7948A9521
:100AC000D1F705C0EE24FF248701EFEFF0E06E2F91
:100AD000679566276795902F9F77D794DD24D794E5
:100AE0008E2F8695492F462B582F5D29B701CA01B5
:100AF0001F910F91FF90EF90DF900895FC01DB01B3
:100B0000408151812281622F6F7770E0221F22275E
:100B1000221F9381892F880F822B282F30E0991F65
:100B20009927991F11969C93119721153105A9F5C5
:100B3000411551056105710511F482E037C082E865
:100B40009FEF13969C938E9312979A01AB0167E0E7
:100B5000220F331F441F551F6A95D1F783E08C93F2
:100B60000DC0220F331F441F551F12968D919C916B
:100B70001397019713969C938E931297203080E0E1
:100B8000380780E0480780E4580758F314962D93FF
:100B90003D934D935C93179708952F3F310579F45A
:100BA000411551056105710519F484E08C93089590
:100BB00064FF03C081E08C9312C01C9210C02F57B9
:100BC000304013963C932E93129783E08C9387E0EA
:100BD000440F551F661F771F8A95D1F770641496CE
:100BE0004D935D936D937C93179708951F93DC014C
:100BF000FB019C91923008F447C08081823008F458
:100C000043C0943051F411961C91843099F5818140
:100C1000682F70E0611B71093FC0843021F0923071
:100C200031F48230B9F18181882389F12DC0119688
:100C30001C9111978230F1F081811817D9F4129626
:100C40002D913C911397828193818217930794F0A1
:100C500028173907BCF014968D919D910D90BC9189
:100C6000A02D2481358146815781281739074A07ED
:100C70005B0718F4112341F00AC082179307A407F9
:100C8000B50740F4112319F061E070E005C06FEF83
:100C90007FEF02C060E070E0CB011F910895DF9309
:100CA000CF93CDB7DEB7EBE3F0E080EF8083E8E3EE
:100CB000F0E01082E5E3F0E01082E2E3F0E0108281
:100CC000EAE3F0E08FE08083E7E3F0E08FEF8083FA
:100CD000E4E3F0E08FEF8083E1E3F0E08FEF8083E7
:100CE000CF91DF910895DF93CF9300D000D00F9282
:100CF000CDB7DEB78A836B838A81282F30E03D83AE
:100D00002C838C819D8181309105C1F12C813D81A5
:100D1000223031052CF48C819D81009771F08EC0BA
:100D20002C813D812230310509F449C08C819D819F
:100D30008330910509F463C081C0E9E3F0E080816C
:100D4000482F50E08B81282F30E081E090E002C0F6
:100D5000880F991F2A95E2F7809590959A0128238C
:100D60003923E9E3F0E08081882F90E01982281789
:100D7000390709F463C081E0898360C0E6E3F0E0ED
:100D80008081482F50E08B81282F30E081E090E077
:100D900002C0880F991F2A95E2F7809590959A01D5
:100DA00028233923E6E3F0E08081882F90E0198240
:100DB0002817390709F442C081E089833FC0E3E383
:100DC000F0E08081482F50E08B81282F30E081E0D7
:100DD00090E002C0880F991F2A95E2F780959095C0
:100DE0009A0128233923E3E3F0E08081882F90E003
:100DF00019822817390711F181E089831FC0E0E3C8
:100E0000F0E08081482F50E08B81282F30E081E096
:100E100090E002C0880F991F2A95E2F7809590957F
:100E20009A0128233923E0E3F0E08081882F90E0C5
:100E300019822817390711F081E0898389810F9081
:100E40000F900F900F900F90CF91DF910895DF9347
:100E5000CF93CDB7DEB72D970FB6F894DEBF0FBE98
:100E6000CDBF89836A834B838981282F30E03D87FA
:100E70002C878C859D858130910509F44FC02C8588
:100E80003D85223031052CF48C859D85009771F0CD
:100E9000EBC02C853D852230310509F477C08C8567
:100EA0009D858330910509F4A9C0DEC08B81282F70
:100EB00030E03B872A878A859B850097D1F02A8579
:100EC0003B852130310509F0CFC0ABE3B0E0EBE367
:100ED000F0E08081482F8A81282F30E081E090E087
:100EE000022E02C0880F991F0A94E2F7842B8C937C
:100EF000BBC0ABE3B0E0EBE3F0E08081482F8A8138
:100F0000282F30E081E090E0022E02C0880F991F68
:100F10000A94E2F7809584238C93A6C08B81282FB6
:100F200030E039872887888599850097D1F0288512
:100F300039852130310509F097C0A8E3B0E0E8E336
:100F4000F0E08081482F8A81282F30E081E090E016
:100F5000022E02C0880F991F0A94E2F7842B8C930B
:100F600083C0A8E3B0E0E8E3F0E08081482F8A8105
:100F7000282F30E081E090E0022E02C0880F991FF8
:100F80000A94E2F7809584238C936EC08B81282F7E
:100F900030E03F832E838E819F810097D1F02E8198
:100FA0003F812130310509F05FC0A5E3B0E0E5E302
:100FB000F0E08081482F8A81282F30E081E090E0A6
:100FC000022E02C0880F991F0A94E2F7842B8C939B
:100FD0004BC0A5E3B0E0E5E3F0E08081482F8A81D3
:100FE000282F30E081E090E0022E02C0880F991F88
:100FF0000A94E2F7809584238C9336C08B81282F46
:1010000030E03D832C838C819D810097C9F02C8139
:101010003D812130310541F5A2E3B0E0E2E3F0E0AB
:101020008081482F8A81282F30E081E090E0022ED5
:1010300002C0880F991F0A94E2F7842B8C9314C086
:10104000A2E3B0E0E2E3F0E08081482F8A81282F1C
:1010500030E081E090E0022E02C0880F991F0A94D0
:10106000E2F7809584238C932D960FB6F894DEBF1B
:101070000FBECDBFCF91DF910895DF93CF93CDB752
:10108000DEB72D970FB6F894DEBF0FBECDBF8983B4
:101090006A834B838981282F30E03D872C878C859C
:1010A0009D858130910509F44FC02C853D85223006
:1010B00031052CF48C859D85009771F0EBC02C8553
:1010C0003D852230310509F477C08C859D858330BC
:1010D000910509F4A9C0DEC08B81282F30E03B8741
:1010E0002A878A859B850097D1F02A853B85213008
:1010F000310509F0CFC0AAE3B0E0EAE3F0E0808177
:10110000482F8A81282F30E081E090E0022E02C033
:10111000880F991F0A94E2F7842B8C93BBC0AAE333
:10112000B0E0EAE3F0E08081482F8A81282F30E0A8
:1011300081E090E0022E02C0880F991F0A94E2F726
:10114000809584238C93A6C08B81282F30E039872B
:101150002887888599850097D1F0288539852130A1
:10116000310509F097C0A7E3B0E0E7E3F0E0808144
:10117000482F8A81282F30E081E090E0022E02C0C3
:10118000880F991F0A94E2F7842B8C9383C0A7E3FE
:10119000B0E0E7E3F0E08081482F8A81282F30E03B
:1011A00081E090E0022E02C0880F991F0A94E2F7B6
:1011B000809584238C936EC08B81282F30E03F83F1
:1011C0002E838E819F810097D1F02E813F81213027
:1011D000310509F05FC0A4E3B0E0E4E3F0E0808112
:1011E000482F8A81282F30E081E090E0022E02C053
:1011F000880F991F0A94E2F7842B8C934BC0A4E3C9
:10120000B0E0E4E3F0E08081482F8A81282F30E0CD
:1012100081E090E0022E02C0880F991F0A94E2F745
:10122000809584238C9336C08B81282F30E03D83BA
:101230002C838C819D810097C9F02C813D812130C8
:10124000310541F5A1E3B0E0E1E3F0E08081482F12
:101250008A81282F30E081E090E0022E02C0880FC2
:10126000991F0A94E2F7842B8C9314C0A1E3B0E099
:10127000E1E3F0E08081482F8A81282F30E081E08F
:1012800090E0022E02C0880F991F0A94E2F7809521
:1012900084238C932D960FB6F894DEBF0FBECDBF7E
:1012A000CF91DF910895DF93CF9300D000D0CDB7D9
:1012B000DEB789836A838981282F30E03C832B83C2
:1012C0008B819C8181309105D1F02B813C81223032
:1012D00031052CF48B819C81009761F01EC02B811D
:1012E0003C812230310581F08B819C8183309105D6
:1012F00081F013C0EBE3F0E08A8180830EC0E8E365
:10130000F0E08A81808309C0E5E3F0E08A81808390
:1013100004C0E2E3F0E08A8180830F900F900F9089
:101320000F90CF91DF910895DF93CF9300D000D03D
:10133000CDB7DEB789836A838981282F30E03C836B
:101340002B838B819C8181309105D1F02B813C8155
:10135000223031052CF48B819C81009761F01EC0F6
:101360002B813C812230310581F08B819C8183303F
:10137000910581F013C0EAE3F0E08A8180830EC01A
:10138000E7E3F0E08A81808309C0E4E3F0E08A814A
:10139000808304C0E1E3F0E08A8180830F900F90A6
:1013A0000F900F90CF91DF910895DF93CF93CDB73A
:1013B000DEB762970FB6F894DEBF0FBECDBF188AB6
:1013C0008FEF8F871A8AC9C08A89882F90E0FC0125
:1013D000E258FF4F908180E0692F40E00E9427078C
:1013E000198AA5C08989882F90E0FC01EE57FF4F2C
:1013F000908180E0692F0E947306882309F094C0D1
:1014000080E090E0A6E1B3E48B879C87AD87BE8740
:101410006B857C858D859E8520E030E04AEF54E425
:101420000E941F02DC01CB018F839887A987BA87AE
:101430006F81788589859A8520E030E040E85FE318
:101440000E94250488232CF481E090E09E838D8304
:101450003FC06F81788589859A8520E03FEF4FE70F
:1014600057E40E94C50318164CF56B857C858D8565
:101470009E8520E030E040E251E40E941F02DC0142
:10148000CB01BC01CD010E944900DC01CB019E8350
:101490008D830FC088EC90E09C838B838B819C8133
:1014A0000197F1F79C838B838D819E8101979E83A9
:1014B0008D838D819E81009769F714C06F81788537
:1014C00089859A850E944900DC01CB019E838D832A
:1014D0008D819E819A83898389819A810197F1F711
:1014E0009A83898381E0888B8989882F90E0FC0129
:1014F000EE57FF4F908180E0692F0E94730688238A
:1015000099F38A89482F50E08989282F30E0CA0151
:10151000880F991F880F991F820F931FFC01E259B2
:10152000FF4F80818F8707C089898F5F898B898969
:10153000843008F457CF8A89882F90E0FC01E25864
:10154000FF4F908180E0692F41E00E942707888942
:10155000882339F48A898F5F8A8B8A89843008F4DA
:1015600033CF8F8562960FB6F894DEBF0FBECDBF26
:10157000CF91DF910895DF93CF93CDB7DEB7AB97CF
:101580000FB6F894DEBF0FBECDBF8BA782E060E040
:1015900040E00E94270782E061E040E00E942707C8
:1015A00083E06BA50E94530982E062E041E00E9463
:1015B000270780E090E0A0E8BFE38FA398A7A9A742
:1015C000BAA76FA178A589A59AA520E030E04AEFD7
:1015D00054E40E941F02DC01CB018BA39CA3ADA3AA
:1015E000BEA36BA17CA18DA19EA120E030E040E8CC
:1015F0005FE30E94250488232CF481E090E09AA305
:1016000089A33FC06BA17CA18DA19EA120E03FEFEB
:101610004FE757E40E94C50318164CF56FA178A553
:1016200089A59AA520E030E040E251E40E941F0223
:10163000DC01CB01BC01CD010E944900DC01CB01E2
:101640009AA389A30FC088EC90E098A38F8F8F8D09
:1016500098A10197F1F798A38F8F89A19AA101977B
:101660009AA389A389A19AA1009769F714C06BA1D5
:101670007CA18DA19EA10E944900DC01CB019AA30F
:1016800089A389A19AA19E8F8D8F8D8D9E8D0197A3
:10169000F1F79E8F8D8F82E062E040E00E94270785
:1016A0008091A200882309F484C08BA5982F92957D
:1016B000907F83E0692F0E94530982E062E041E05D
:1016C0000E94270780E090E0A0E8BFE3898F9A8F0F
:1016D000AB8FBC8F698D7A8D8B8D9C8D20E030E037
:1016E0004AEF54E40E941F02DC01CB018D8B9E8BDC
:1016F000AF8BB88F6D897E898F89988D20E030E01F
:1017000040E85FE30E94250488232CF481E090E008
:101710009C8B8B8B3FC06D897E898F89988D20E053
:101720003FEF4FE757E40E94C50318164CF5698D4B
:101730007A8D8B8D9C8D20E030E040E251E40E9458
:101740001F02DC01CB01BC01CD010E944900DC017C
:10175000CB019C8B8B8B0FC088EC90E09A8B898B94
:1017600089899A890197F1F79A8B898B8B899C8952
:1017700001979C8B8B8B8B899C89009769F714C090
:101780006D897E898F89988D0E944900DC01CB018B
:101790009C8B8B8B8B899C89988B8F878F85988965
:1017A0000197F1F7988B8F8782E062E040E00E941A
:1017B000270780E090E0A0E0B0E48B879C87AD87AE
:1017C000BE876B857C858D859E8520E030E04AEF65
:1017D00054E40E941F02DC01CB018F839887A98704
:1017E000BA876F81788589859A8520E030E040E866
:1017F0005FE30E94250488232CF481E090E09E831F
:101800008D833FC06F81788589859A8520E03FEF81
:101810004FE757E40E94C50318164CF56B857C858D
:101820008D859E8520E030E040E251E40E941F0259
:10183000DC01CB01BC01CD010E944900DC01CB01E0
:101840009E838D830FC088EC90E09C838B838B817B
:101850009C810197F1F79C838B838D819E810197F9
:101860009E838D838D819E81009769F714C06F815F
:10187000788589859A850E944900DC01CB019E8389
:101880008D838D819E819A83898389819A81019735
:10189000F1F79A838983AB960FB6F894DEBF0FBE3B
:1018A000CDBFCF91DF910895DF93CF93CDB7DEB752
:1018B000AB970FB6F894DEBF0FBECDBF8BA782E00B
:1018C00060E041E00E94270782E061E040E00E9482
:1018D000270783E06BA50E94530982E062E041E0A4
:1018E0000E94270780E090E0A0E8BFE38FA398A7BD
:1018F000A9A7BAA76FA178A589A59AA520E030E08D
:101900004AEF54E40E941F02DC01CB018BA39CA38D
:10191000ADA3BEA36BA17CA18DA19EA120E030E070
:1019200040E85FE30E94250488232CF481E090E0E6
:101930009AA389A33FC06BA17CA18DA19EA120E0A9
:101940003FEF4FE757E40E94C50318164CF56FA10F
:1019500078A589A59AA520E030E040E251E40E94F4
:101960001F02DC01CB01BC01CD010E944900DC015A
:10197000CB019AA389A30FC088EC90E098A38F8F26
:101980008F8D98A10197F1F798A38F8F89A19AA1C4
:1019900001979AA389A389A19AA1009769F714C016
:1019A0006BA17CA18DA19EA10E944900DC01CB010D
:1019B0009AA389A389A19AA19E8F8D8F8D8D9E8DCB
:1019C0000197F1F79E8F8D8F82E062E040E00E94E8
:1019D00027078BA5982F9295907F83E0692F0E940F
:1019E000530982E062E041E00E94270780E090E036
:1019F000A0E8BFE3898F9A8FAB8FBC8F698D7A8DFA
:101A00008B8D9C8D20E030E04AEF54E40E941F0251
:101A1000DC01CB018D8B9E8BAF8BB88F6D897E895E
:101A20008F89988D20E030E040E85FE30E94250434
:101A300088232CF481E090E09C8B8B8B3FC06D89D8
:101A40007E898F89988D20E03FEF4FE757E40E9411
:101A5000C50318164CF5698D7A8D8B8D9C8D20E011
:101A600030E040E251E40E941F02DC01CB01BC01E6
:101A7000CD010E944900DC01CB019C8B8B8B0FC0F8
:101A800088EC90E09A8B898B89899A890197F1F784
:101A90009A8B898B8B899C8901979C8B8B8B8B89EB
:101AA0009C89009769F714C06D897E898F89988D0C
:101AB0000E944900DC01CB019C8B8B8B8B899C891C
:101AC000988B8F878F8598890197F1F7988B8F87EF
:101AD00082E062E040E00E94270780E090E0A0E022
:101AE000B0E48B879C87AD87BE876B857C858D85B1
:101AF0009E8520E030E04AEF54E40E941F02DC01A2
:101B0000CB018F839887A987BA876F81788589856C
:101B10009A8520E030E040E85FE30E9425048823B6
:101B20002CF481E090E09E838D833FC06F817885A7
:101B300089859A8520E03FEF4FE757E40E94C5036F
:101B400018164CF56B857C858D859E8520E030E0F0
:101B500040E251E40E941F02DC01CB01BC01CD0137
:101B60000E944900DC01CB019E838D830FC088EC6D
:101B700090E09C838B838B819C810197F1F79C8300
:101B80008B838D819E8101979E838D838D819E8124
:101B9000009769F714C06F81788589859A850E94BE
:101BA0004900DC01CB019E838D838D819E819A83C8
:101BB000898389819A810197F1F79A838983AB960A
:101BC0000FB6F894DEBF0FBECDBFCF91DF91089561
:101BD0000F931F93DF93CF93CDB7DEB7CC54D04094
:101BE0000FB6F894DEBF0FBECDBFFE01E75BFF4F1F
:101BF00080E090E0A0EFB1E480839183A283B3837F
:101C00008E010B5B1F4FFE01E75BFF4F608171810F
:101C10008281938120E030E04AEF54E40E941F0269
:101C2000DC01CB01F80180839183A283B383FE01A1
:101C3000EB5BFF4F608171818281938120E030E016
:101C400040E85FE30E942504882344F4FE01ED5B35
:101C5000FF4F81E090E09183808364C0FE01EB5BE5
:101C6000FF4F608171818281938120E03FEF4FE7D8
:101C700057E40E94C50318160CF043C0FE01E75B51
:101C8000FF4F608171818281938120E030E040E2EA
:101C900051E40E941F02DC01CB018E010D5B1F4F3E
:101CA000BC01CD010E944900DC01CB01F801918308
:101CB00080831FC0FE01EF5BFF4F88EC90E09183B3
:101CC0008083FE01EF5BFF4F808191810197F1F7E7
:101CD000FE01EF5BFF4F91838083DE01AD5BBF4F61
:101CE000FE01ED5BFF4F80819181019711969C93DE
:101CF0008E93FE01ED5BFF4F808191810097D1F6BD
:101D000024C08E010D5B1F4FFE01EB5BFF4F608116
:101D10007181828193810E944900DC01CB01F8012D
:101D200091838083FE01ED5BFF4F80819181FE01F5
:101D3000FF9691838083FE01FF96808191810197B8
:101D4000F1F7FE01FF969183808380E20E94BB0A37
:101D500080E20E94BB0A80E80E94BB0A80E090E01B
:101D6000A0E2B2E48BAF9CAFADAFBEAF6BAD7CADCC
:101D70008DAD9EAD2BEA3AEA4AE250E40E941F0282
:101D8000DC01CB018FAB98AFA9AFBAAF6FA978AD2B
:101D900089AD9AAD20E030E040E85FE30E94250481
:101DA00088231CF481E08EAB91C06FA978AD89AD1A
:101DB0009AAD20E030E04FE753E40E94C5031816C7
:101DC0000CF07BC06BAD7CAD8DAD9EAD20E030E006
:101DD0004AE754E40E941903DC01CB018AAB9BABB8
:101DE000ACABBDAB6AA97BA98CA99DA920E030E072
:101DF0004AEF54E40E941F02DC01CB018EA79FA78B
:101E0000A8ABB9AB6EA57FA588A999A920E030E061
:101E100040E85FE30E94250488232CF481E090E0F1
:101E20009DA78CA73FC06EA57FA588A999A920E092
:101E30003FEF4FE757E40E94C50318164CF56AA917
:101E40007BA98CA99DA920E030E040E251E40E94EA
:101E50001F02DC01CB01BC01CD010E944900DC0165
:101E6000CB019DA78CA70FC088EC90E09BA78AA709
:101E70008AA59BA50197F1F79BA78AA78CA59DA58D
:101E800001979DA78CA78CA59DA5009769F724C0F5
:101E90006EA57FA588A999A90E944900DC01CB0104
:101EA0009DA78CA78CA59DA599A788A788A599A56E
:101EB0000197F1F799A788A70FC06FA978AD89ADF1
:101EC0009AAD0E944900DC01CB018EAB8EA98FA395
:101ED0008FA18A95F1F78FA380E00E94BB0A80EC66
:101EE0000E94BB0A80E090E0A0E2B2E48BA39CA336
:101EF000ADA3BEA36BA17CA18DA19EA12BEA3AEA62
:101F00004AE250E40E941F02DC01CB018F8F98A3AC
:101F1000A9A3BAA36F8D78A189A19AA120E030E08E
:101F200040E85FE30E94250488231CF481E08E8F43
:101F300091C06F8D78A189A19AA120E030E04FE790
:101F400053E40E94C50318160CF07BC06BA17CA162
:101F50008DA19EA120E030E04AE754E40E941903DD
:101F6000DC01CB018A8F9B8FAC8FBD8F6A8D7B8DFF
:101F70008C8D9D8D20E030E04AEF54E40E941F02DA
:101F8000DC01CB018E8B9F8BA88FB98F6E897F89E7
:101F9000888D998D20E030E040E85FE30E942504C1
:101FA00088232CF481E090E09D8B8C8B3FC06E8960
:101FB0007F89888D998D20E03FEF4FE757E40E949D
:101FC000C50318164CF56A8D7B8D8C8D9D8D20E098
:101FD00030E040E251E40E941F02DC01CB01BC0171
:101FE000CD010E944900DC01CB019D8B8C8B0FC081
:101FF00088EC90E09B8B8A8B8A899B890197F1F70B
:102000009B8B8A8B8C899D8901979D8B8C8B8C896E
:102010009D89009769F724C06E897F89888D998D85
:102020000E944900DC01CB019D8B8C8B8C899D89A2
:10203000998B888B888999890197F1F7998B888B7F
:102040000FC06F8D78A189A19AA10E944900DC017F
:10205000CB018E8F8E8D8F878F858A95F1F78F8735
:1020600080E00E94BB0A80E10E94BB0A80E090E011
:10207000A0E0B0E48B879C87AD87BE876B857C85AD
:102080008D859E8520E030E04AEF54E40E941F02D7
:10209000DC01CB018F839887A987BA876F81788508
:1020A00089859A8520E030E040E85FE30E942504BE
:1020B00088232CF481E090E09E838D833FC06F8164
:1020C000788589859A8520E03FEF4FE757E40E94A5
:1020D000C50318164CF56B857C858D859E8520E0A3
:1020E00030E040E251E40E941F02DC01CB01BC0160
:1020F000CD010E944900DC01CB019E838D830FC07E
:1021000088EC90E09C838B838B819C810197F1F715
:102110009C838B838D819E8101979E838D838D818E
:102120009E81009769F714C06F81788589859A85AB
:102130000E944900DC01CB019E838D838D819E81AD
:102140009A83898389819A810197F1F79A83898398
:1021500080E00E94BB0A80E60E94BB0A81E0809377
:10216000A200C45BDF4F0FB6F894DEBF0FBECDBF39
:10217000CF91DF911F910F910895DF93CF93CDB74A
:10218000DEB72E970FB6F894DEBF0FBECDBF80E04E
:102190000E94BB0A80E10E94BB0A80E090E0A0E0C0
:1021A000B0E48B879C87AD87BE876B857C858D85EA
:1021B0009E8520E030E04AEF54E40E941F02DC01DB
:1021C000CB018F839887A987BA876F8178858985A6
:1021D0009A8520E030E040E85FE30E9425048823F0
:1021E0002CF481E090E09E838D833FC06F817885E1
:1021F00089859A8520E03FEF4FE757E40E94C503A9
:1022000018164CF56B857C858D859E8520E030E029
:1022100040E251E40E941F02DC01CB01BC01CD0170
:102220000E944900DC01CB019E838D830FC088ECA6
:1022300090E09C838B838B819C810197F1F79C8339
:102240008B838D819E8101979E838D838D819E815D
:10225000009769F714C06F81788589859A850E94F7
:102260004900DC01CB019E838D838D819E819A8301
:10227000898389819A810197F1F79A8389832E96C0
:102280000FB6F894DEBF0FBECDBFCF91DF9108959A
:10229000DF93CF9300D00F92CDB7DEB79B838A83B5
:1022A00019820EC08981282F30E08A819B81FC0130
:1022B000E20FF31F80810E94540C89818F5F898314
:1022C0008981282F30E08A819B81FC01E20FF31F76
:1022D0008081882339F70F900F900F90CF91DF9175
:1022E0000895DF93CF93CDB7DEB763970FB6F89419
:1022F000DEBF0FBECDBF888B698B8889282F30E069
:102300003B8B2A8B8A899B898130910531F02A8900
:102310003B892230310559F013C0898981508F875C
:102320008F8580688F878F850E94BB0A09C0898945
:10233000815C8F878F8580688F878F850E94BB0A1D
:1023400080E090E0A0E8BFE38B879C87AD87BE87E5
:102350006B857C858D859E8520E030E04AEF54E4D6
:102360000E941F02DC01CB018F839887A987BA875F
:102370006F81788589859A8520E030E040E85FE3C9
:102380000E94250488232CF481E090E09E838D83B5
:102390003FC06F81788589859A8520E03FEF4FE7C0
:1023A00057E40E94C50318164CF56B857C858D8516
:1023B0009E8520E030E040E251E40E941F02DC01F3
:1023C000CB01BC01CD010E944900DC01CB019E8301
:1023D0008D830FC088EC90E09C838B838B819C81E4
:1023E0000197F1F79C838B838D819E8101979E835A
:1023F0008D838D819E81009769F714C06F817885E8
:1024000089859A850E944900DC01CB019E838D83DA
:102410008D819E819A83898389819A810197F1F7C1
:102420009A83898363960FB6F894DEBF0FBECDBF43
:10243000CF91DF910895DF93CF9300D000D0CDB737
:10244000DEB79C838B8381E090E09A8389838B81C4
:102450009C81009731F580E30E94540C22C0898151
:102460009A819C01220F331FC901880F991F880F81
:10247000991FF901E80FF91F8B819C812AE030E058
:10248000B9010E94A81C8E0F9F1F9A8389838B819C
:102490009C812AE030E0B9010E94A81CCB019C83FA
:1024A0008B838B819C810097D1F614C089819A819E
:1024B0002AE030E0B9010E94A81C805D0E94540C03
:1024C00089819A812AE030E0B9010E94A81CCB01E1
:1024D0009A83898389819A818130910539F70F9098
:1024E0000F900F900F90CF91DF910895DF93CF93CE
:1024F000CDB7DEB7AB970FB6F894DEBF0FBECDBF3A
:102500009AA789A76BA78BA5883008F0E5C08BA593
:10251000882F90E0880F991F880F991F880F991FA7
:102520008BA78BA580648BA78BA58F778BA78BA59B
:102530000E94BB0A1FA2CCC08FA1282F30E089A522
:102540009AA5FC01E20FF31F80810E94540C80E0E9
:1025500090E0A0E7B2E48BA39CA3ADA3BEA36BA1C4
:102560007CA18DA19EA12BEA3AEA4AE250E40E94A6
:102570001F02DC01CB018F8F98A3A9A3BAA36F8D93
:1025800078A189A19AA120E030E040E85FE30E94B1
:10259000250488231CF481E08E8F91C06F8D78A173
:1025A00089A19AA120E030E04FE753E40E94C503DF
:1025B00018160CF07BC06BA17CA18DA19EA120E020
:1025C00030E04AE754E40E941903DC01CB018A8F12
:1025D0009B8FAC8FBD8F6A8D7B8D8C8D9D8D20E008
:1025E00030E04AEF54E40E941F02DC01CB018E8BE5
:1025F0009F8BA88FB98F6E897F89888D998D20E0F8
:1026000030E040E85FE30E94250488232CF481E059
:1026100090E09D8B8C8B3FC06E897F89888D998DD2
:1026200020E03FEF4FE757E40E94C50318164CF532
:102630006A8D7B8D8C8D9D8D20E030E040E251E4F1
:102640000E941F02DC01CB01BC01CD010E944900A8
:10265000DC01CB019D8B8C8B0FC088EC90E09B8BB9
:102660008A8B8A899B890197F1F79B8B8A8B8C894E
:102670009D8901979D8B8C8B8C899D89009769F72B
:1026800024C06E897F89888D998D0E944900DC0164
:10269000CB019D8B8C8B8C899D89998B888B8889AC
:1026A00099890197F1F7998B888B0FC06F8D78A16D
:1026B00089A19AA10E944900DC01CB018E8F8E8DE9
:1026C0008F878F858A95F1F78F878FA18F5F8FA373
:1026D0008FA1883008F430CF82E00E94BB0A80E0EE
:1026E00090E0A0E0B0E48B879C87AD87BE876B85C8
:1026F0007C858D859E8520E030E04AEF54E40E9481
:102700001F02DC01CB018F839887A987BA876F816D
:10271000788589859A8520E030E040E85FE30E9473
:10272000250488232CF481E090E09E838D833FC0B4
:102730006F81788589859A8520E03FEF4FE757E4E0
:102740000E94C50318164CF56B857C858D859E858A
:1027500020E030E040E251E40E941F02DC01CB01A6
:10276000BC01CD010E944900DC01CB019E838D8319
:102770000FC088EC90E09C838B838B819C810197B8
:10278000F1F79C838B838D819E8101979E838D833E
:102790008D819E81009769F714C06F817885898546
:1027A0009A850E944900DC01CB019E838D838D8137
:1027B0009E819A83898389819A810197F1F79A830F
:1027C0008983AB960FB6F894DEBF0FBECDBFCF9115
:1027D000DF910895DF93CF9300D00F92CDB7DEB78E
:1027E00089836A834B838A816B810E9471118981FD
:1027F0000E94540C0F900F900F90CF91DF9108958D
:10280000DF93CF93CDB7DEB72F970FB6F894DEBF27
:102810000FBECDBF8F8782E060E040E00E942707B7
:1028200082E061E040E00E94270783E06F850E941C
:10283000530982E062E041E00E94270780E090E0D7
:10284000A0E0B0E48B879C87AD87BE876B857C85D5
:102850008D859E8520E030E04AEF54E40E941F02FF
:10286000DC01CB018F839887A987BA876F81788530
:1028700089859A8520E030E040E85FE30E942504E6
:1028800088232CF481E090E09E838D833FC06F818C
:10289000788589859A8520E03FEF4FE757E40E94CD
:1028A000C50318164CF56B857C858D859E8520E0CB
:1028B00030E040E251E40E941F02DC01CB01BC0188
:1028C000CD010E944900DC01CB019E838D830FC0A6
:1028D00088EC90E09C838B838B819C810197F1F73E
:1028E0009C838B838D819E8101979E838D838D81B7
:1028F0009E81009769F714C06F81788589859A85D4
:102900000E944900DC01CB019E838D838D819E81D5
:102910009A83898389819A810197F1F79A838983C0
:1029200082E062E040E00E9427072F960FB6F894FD
:10293000DEBF0FBECDBFCF91DF910895DF93CF9360
:10294000CDB7DEB72F970FB6F894DEBF0FBECDBF61
:102950008F8782E060E041E00E94270782E061E02B
:1029600040E00E94270783E06F850E94530982E0C0
:1029700062E041E00E94270780E090E0A0E0B0E440
:102980008B879C87AD87BE876B857C858D859E8573
:1029900020E030E04AEF54E40E941F02DC01CB014A
:1029A0008F839887A987BA876F81788589859A856B
:1029B00020E030E040E85FE30E94250488232CF407
:1029C00081E090E09E838D833FC06F81788589850B
:1029D0009A8520E03FEF4FE757E40E94C5031816A1
:1029E0004CF56B857C858D859E8520E030E040E24E
:1029F00051E40E941F02DC01CB01BC01CD010E9409
:102A00004900DC01CB019E838D830FC088EC90E0F0
:102A10009C838B838B819C810197F1F79C838B83B3
:102A20008D819E8101979E838D838D819E810097EC
:102A300069F714C06F81788589859A850E9449005D
:102A4000DC01CB019E838D838D819E819A83898356
:102A500089819A810197F1F79A83898382E062E004
:102A600040E00E9427072F960FB6F894DEBF0FBEF6
:102A7000CDBFCF91DF910895DF93CF93CDB7DEB770
:102A8000E8970FB6F894DEBF0FBECDBF80E090E0B0
:102A9000A0EFB1E48DAB9EABAFABB8AF6DA97EA993
:102AA0008FA998AD20E030E04AEF54E40E941F0265
:102AB000DC01CB0189AB9AABABABBCAB69A97AA902
:102AC0008BA99CA920E030E040E85FE30E94250448
:102AD00088232CF481E090E098AB8FA73FC069A9D0
:102AE0007AA98BA99CA920E03FEF4FE757E40E9409
:102AF000C50318164CF56DA97EA98FA998AD20E0E5
:102B000030E040E251E40E941F02DC01CB01BC0135
:102B1000CD010E944900DC01CB0198AB8FA70FC00B
:102B200088EC90E09EA78DA78DA59EA50197F1F753
:102B30009EA78DA78FA598A9019798AB8FA78FA562
:102B400098A9009769F714C069A97AA98BA99CA9CB
:102B50000E944900DC01CB0198AB8FA78FA598A9F3
:102B60009CA78BA78BA59CA50197F1F79CA78BA78A
:102B700088E30E94001480E090E0A0E8BFE38FA308
:102B800098A7A9A7BAA76FA178A589A59AA520E0BB
:102B900030E04AEF54E40E941F02DC01CB018BA31A
:102BA0009CA3ADA3BEA36BA17CA18DA19EA120E09F
:102BB00030E040E85FE30E94250488232CF481E0A4
:102BC00090E09AA389A33FC06BA17CA18DA19EA197
:102BD00020E03FEF4FE757E40E94C50318164CF57D
:102BE0006FA178A589A59AA520E030E040E251E4E4
:102BF0000E941F02DC01CB01BC01CD010E944900F3
:102C0000DC01CB019AA389A30FC088EC90E098A3C4
:102C10008F8F8F8D98A10197F1F798A38F8F89A13E
:102C20009AA101979AA389A389A19AA1009769F70C
:102C300014C06BA17CA18DA19EA10E944900DC0162
:102C4000CB019AA389A389A19AA19E8F8D8F8D8D87
:102C50009E8D0197F1F79E8F8D8F8CE00E9400145E
:102C600080E090E0A0E8BFE3898F9A8FAB8FBC8FA4
:102C7000698D7A8D8B8D9C8D20E030E04AEF54E495
:102C80000E941F02DC01CB018D8B9E8BAF8BB88F16
:102C90006D897E898F89988D20E030E040E85FE380
:102CA0000E94250488232CF481E090E09C8B8B8B80
:102CB0003FC06D897E898F89988D20E03FEF4FE777
:102CC00057E40E94C50318164CF5698D7A8D8B8DDB
:102CD0009C8D20E030E040E251E40E941F02DC01C4
:102CE000CB01BC01CD010E944900DC01CB019C8BD2
:102CF0008B8B0FC088EC90E09A8B898B89899A899D
:102D00000197F1F79A8B898B8B899C8901979C8B12
:102D10008B8B8B899C89009769F714C06D897E899C
:102D20008F89988D0E944900DC01CB019C8B8B8B95
:102D30008B899C89988B8F878F8598890197F1F76C
:102D4000988B8F8781E00E94001480E090E0A0E0E3
:102D5000B0E48B879C87AD87BE876B857C858D852E
:102D60009E8520E030E04AEF54E40E941F02DC011F
:102D7000CB018F839887A987BA876F8178858985EA
:102D80009A8520E030E040E85FE30E942504882334
:102D90002CF481E090E09E838D833FC06F81788525
:102DA00089859A8520E03FEF4FE757E40E94C503ED
:102DB00018164CF56B857C858D859E8520E030E06E
:102DC00040E251E40E941F02DC01CB01BC01CD01B5
:102DD0000E944900DC01CB019E838D830FC088ECEB
:102DE00090E09C838B838B819C810197F1F79C837E
:102DF0008B838D819E8101979E838D838D819E81A2
:102E0000009769F714C06F81788589859A850E943B
:102E10004900DC01CB019E838D838D819E819A8345
:102E2000898389819A810197F1F79A83898386E062
:102E30000E940014E8960FB6F894DEBF0FBECDBF17
:102E4000CF91DF910895DF93CF93CDB7DEB72E9763
:102E50000FB6F894DEBF0FBECDBF81E00E94001414
:102E600080E090E0A0E0B0E48B879C87AD87BE87D0
:102E70006B857C858D859E8520E030E04AEF54E4AB
:102E80000E941F02DC01CB018F839887A987BA8734
:102E90006F81788589859A8520E030E040E85FE39E
:102EA0000E94250488232CF481E090E09E838D838A
:102EB0003FC06F81788589859A8520E03FEF4FE795
:102EC00057E40E94C50318164CF56B857C858D85EB
:102ED0009E8520E030E040E251E40E941F02DC01C8
:102EE000CB01BC01CD010E944900DC01CB019E83D6
:102EF0008D830FC088EC90E09C838B838B819C81B9
:102F00000197F1F79C838B838D819E8101979E832E
:102F10008D838D819E81009769F714C06F817885BC
:102F200089859A850E944900DC01CB019E838D83AF
:102F30008D819E819A83898389819A810197F1F796
:102F40009A8389832E960FB6F894DEBF0FBECDBF4D
:102F5000CF91DF910895DF93CF9300D00F92CDB73B
:102F6000DEB79B838A8319820EC08981282F30E0C7
:102F70008A819B81FC01E20FF31F80810E949E14D5
:102F800089818F5F89838981282F30E08A819B81A5
:102F9000FC01E20FF31F8081882339F70F900F9017
:102FA0000F90CF91DF910895DF93CF93CDB7DEB728
:102FB00063970FB6F894DEBF0FBECDBF888B698BC9
:102FC0008889282F30E03B8B2A8B8A899B89813026
:102FD000910531F02A893B892230310559F013C01F
:102FE000898981508F878F8580688F878F850E9420
:102FF000001409C08989815C8F878F8580688F87DD
:103000008F850E94001480E090E0A0E8BFE38B87EA
:103010009C87AD87BE876B857C858D859E8520E0EE
:1030200030E04AEF54E40E941F02DC01CB018F83A1
:103030009887A987BA876F81788589859A8520E0E6
:1030400030E040E85FE30E94250488232CF481E00F
:1030500090E09E838D833FC06F81788589859A85B6
:1030600020E03FEF4FE757E40E94C50318164CF5E8
:103070006B857C858D859E8520E030E040E251E4C3
:103080000E941F02DC01CB01BC01CD010E9449005E
:10309000DC01CB019E838D830FC088EC90E09C8384
:1030A0008B838B819C810197F1F79C838B838D812E
:1030B0009E8101979E838D838D819E81009769F704
:1030C00014C06F81788589859A850E944900DC014A
:1030D000CB019E838D838D819E819A838983898193
:1030E0009A810197F1F79A83898363960FB6F894D2
:1030F000DEBF0FBECDBFCF91DF910895DF93CF9399
:1031000000D000D0CDB7DEB79C838B8381E090E008
:103110009A8389838B819C81009731F580E30E949B
:103120009E1422C089819A819C01220F331FC901FC
:10313000880F991F880F991FF901E80FF91F8B81DC
:103140009C812AE030E0B9010E94A81C8E0F9F1FCD
:103150009A8389838B819C812AE030E0B9010E94A7
:10316000A81CCB019C838B838B819C810097D1F61B
:1031700014C089819A812AE030E0B9010E94A81C1C
:10318000805D0E949E1489819A812AE030E0B90115
:103190000E94A81CCB019A83898389819A818130FE
:1031A000910539F70F900F900F900F90CF91DF910D
:1031B0000895DF93CF93CDB7DEB7AB970FB6F894F2
:1031C000DEBF0FBECDBF9AA789A76BA78BA588309E
:1031D00008F0E5C08BA5882F90E0880F991F880F15
:1031E000991F880F991F8BA78BA580648BA78BA530
:1031F0008F778BA78BA50E9400141FA2CCC08FA134
:10320000282F30E089A59AA5FC01E20FF31F8081E9
:103210000E949E1480E090E0A0E7B2E48BA39CA300
:10322000ADA3BEA36BA17CA18DA19EA12BEA3AEA1E
:103230004AE250E40E941F02DC01CB018F8F98A369
:10324000A9A3BAA36F8D78A189A19AA120E030E04B
:1032500040E85FE30E94250488231CF481E08E8F00
:1032600091C06F8D78A189A19AA120E030E04FE74D
:1032700053E40E94C50318160CF07BC06BA17CA11F
:103280008DA19EA120E030E04AE754E40E9419039A
:10329000DC01CB018A8F9B8FAC8FBD8F6A8D7B8DBC
:1032A0008C8D9D8D20E030E04AEF54E40E941F0297
:1032B000DC01CB018E8B9F8BA88FB98F6E897F89A4
:1032C000888D998D20E030E040E85FE30E9425047E
:1032D00088232CF481E090E09D8B8C8B3FC06E891D
:1032E0007F89888D998D20E03FEF4FE757E40E945A
:1032F000C50318164CF56A8D7B8D8C8D9D8D20E055
:1033000030E040E251E40E941F02DC01CB01BC012D
:10331000CD010E944900DC01CB019D8B8C8B0FC03D
:1033200088EC90E09B8B8A8B8A899B890197F1F7C7
:103330009B8B8A8B8C899D8901979D8B8C8B8C892B
:103340009D89009769F724C06E897F89888D998D42
:103350000E944900DC01CB019D8B8C8B8C899D895F
:10336000998B888B888999890197F1F7998B888B3C
:103370000FC06F8D78A189A19AA10E944900DC013C
:10338000CB018E8F8E8D8F878F858A95F1F78F87F2
:103390008FA18F5F8FA38FA1883008F430CF82E098
:1033A0000E94001480E090E0A0E0B0E48B879C874E
:1033B000AD87BE876B857C858D859E8520E030E05E
:1033C0004AEF54E40E941F02DC01CB018F839887EF
:1033D000A987BA876F81788589859A8520E030E052
:1033E00040E85FE30E94250488232CF481E090E00C
:1033F0009E838D833FC06F81788589859A8520E083
:103400003FEF4FE757E40E94C50318164CF56B8554
:103410007C858D859E8520E030E040E251E40E946D
:103420001F02DC01CB01BC01CD010E944900DC017F
:10343000CB019E838D830FC088EC90E09C838B83AF
:103440008B819C810197F1F79C838B838D819E8179
:1034500001979E838D838D819E81009769F714C0AB
:103460006F81788589859A850E944900DC01CB01AE
:103470009E838D838D819E819A83898389819A81A0
:103480000197F1F79A838983AB960FB6F894DEBF64
:103490000FBECDBFCF91DF910895DF93CF9300D0C2
:1034A0000F92CDB7DEB789836A834B838A816B81A4
:1034B0000E94D41789810E949E140F900F900F9044
:1034C000CF91DF910895DF93CF9300D000D0CDB797
:1034D000DEB789836A838981282F30E03C832B8380
:1034E0008B819C818B35910509F44CC02B813C81EB
:1034F0002C353105E4F48B819C818730910509F4EA
:103500005AC02B813C812830310534F48B819C8159
:103510008630910591F15DC02B813C812F333105BF
:1035200039F18B819C818F34910589F152C02B81B7
:103530003C812F36310509F448C08B819C8180374E
:1035400091055CF42B813C812636310529F18B8174
:103550009C818D36910529F13CC02B813C812D3712
:10356000310521F18B819C818F37910549F131C063
:103570008A816FE30E9453092CC08A8166E00E9411
:10358000530927C08A816BE50E94530922C08A81B2
:103590006FE40E9453091DC08A8166E60E945309A8
:1035A00018C08A816DE60E94530913C08A816DE7B5
:1035B0000E9453090EC08A8167E00E94530909C026
:1035C0008A816FE70E94530904C08A816FE60E94D6
:1035D00053090F900F900F900F90CF91DF910895A6
:1035E000DF93CF93CDB7DEB76F970FB6F894DEBFFA
:1035F0000FBECDBF8A8FCE0140969C8F8B8FE6E8A1
:10360000F0E0FE8FED8FFAE0FF8FED8DFE8D0080F4
:103610008D8D9E8D01969E8F8D8FEB8DFC8D008202
:103620008B8D9C8D01969C8F8B8F9F8D91509F8F42
:10363000EF8DEE2351F71F8681C08F85282F30E054
:10364000CE014096FC01E20FF31F80816A8D0E943B
:10365000631A80E090E0AAE7B4E48B879C87AD878B
:10366000BE876B857C858D859E8520E030E04AEFA6
:1036700054E40E941F02DC01CB018F839887A98745
:10368000BA876F81788589859A8520E030E040E8A7
:103690005FE30E94250488232CF481E090E09E8360
:1036A0008D833FC06F81788589859A8520E03FEFC3
:1036B0004FE757E40E94C50318164CF56B857C85CF
:1036C0008D859E8520E030E040E251E40E941F029B
:1036D000DC01CB01BC01CD010E944900DC01CB0122
:1036E0009E838D830FC088EC90E09C838B838B81BD
:1036F0009C810197F1F79C838B838D819E8101973B
:103700009E838D838D819E81009769F714C06F81A0
:10371000788589859A850E944900DC01CB019E83CA
:103720008D838D819E819A83898389819A81019776
:10373000F1F79A8389838F858F5F8F878F858A3092
:1037400008F47BCF6F960FB6F894DEBF0FBECDBFE7
:10375000CF91DF910895DF93CF93CDB7DEB76F9709
:103760000FB6F894DEBF0FBECDBF8A8FCE01409654
:103770009C8F8B8FE0E9F0E0FE8FED8FFAE0FF8FFA
:10378000ED8DFE8D00808D8D9E8D01969E8F8D8F8F
:10379000EB8DFC8D00828B8D9C8D01969C8F8B8F89
:1037A0009F8D91509F8FEF8DEE2351F789E08F878A
:1037B0008F85282F30E0CE014096FC01E20FF31FE9
:1037C00080816A8D0E94631A80E090E0AAE7B4E4E9
:1037D0008B879C87AD87BE876B857C858D859E8515
:1037E00020E030E04AEF54E40E941F02DC01CB01EC
:1037F0008F839887A987BA876F81788589859A850D
:1038000020E030E040E85FE30E94250488232CF4A8
:1038100081E090E09E838D833FC06F8178858985AC
:103820009A8520E03FEF4FE757E40E94C503181642
:103830004CF56B857C858D859E8520E030E040E2EF
:1038400051E40E941F02DC01CB01BC01CD010E94AA
:103850004900DC01CB019E838D830FC088EC90E092
:103860009C838B838B819C810197F1F79C838B8355
:103870008D819E8101979E838D838D819E8100978E
:1038800069F714C06F81788589859A850E944900FF
:10389000DC01CB019E838D838D819E819A838983F8
:1038A00089819A810197F1F79A8389838F85815065
:1038B0008F877ECFDF93CF93CDB7DEB72E970FB62E
:1038C000F894DEBF0FBECDBF0E944F060E94E80DE8
:1038D00081E061E00E94711180E690E00E94481151
:1038E000CE0102969B878A87EAE9F0E0FD87EC87A4
:1038F000F8E0FE87EC85FD8500808C859D8501962E
:103900009D878C87EA85FB8500828A859B85019649
:103910009B878A879E8591509E87EE85EE2351F77F
:10392000CE01029660E00E94761280E061E046E0FF
:103930000E94EA1382E061E00E9471110E94D509A1
:10394000898389818F3FD1F389810E94540CF6CFFE
:10395000AA1BBB1B51E107C0AA1FBB1FA617B707B5
:1039600010F0A61BB70B881F991F5A95A9F78095D1
:103970009095BC01CD0108952F923F924F925F9296
:103980006F927F928F929F92AF92BF92CF92DF926F
:10399000EF92FF920F931F93CF93DF93CDB7DEB7D4
:1039A000CA1BDB0B0FB6F894DEBF0FBECDBF099468
:1039B0002A88398848885F846E847D848C849B84BF
:1039C000AA84B984C884DF80EE80FD800C811B81CD
:1039D000AA81B981CE0FD11D0FB6F894DEBF0FBEFC
:0A39E000CDBFED010895F894FFCF6C
:1039EA0041686D656400000000000000000031328B
:1039FA00332D3435362A3738392F3D3043250001E7
:103A0A000203040506073F065B4F666D7D077F6F5D
:103A1A003F065B4F666D7D077F6F0E0A0E040E151B
:023A2A00041F77
:00000001FF
