:100000000C942A000C94DB140C940E150C944115DE
:100010000C94F4380C94C1380C94BE360C94F13620
:100020000C9424370C9457370C949B320C94683200
:100030000C949D2A0C946D3C0C94A03C0C94D33CE5
:100040000C94FF0D0C9447000C9447000C94A73AB5
:100050000C94470011241FBECFE5D8E0DEBFCDBF12
:1000600011E0A0E6B0E0E6E4F6E802C005900D92EB
:10007000A43AB107D9F711E0A4EAB1E001C01D929A
:10008000A83EB107E1F70E94EA3F0C9421430C948B
:100090000000EF92FF920F93DF93CF93CDB7DEB7BF
:1000A00060970FB6F894DEBF0FBECDBFA82F002318
:1000B00009F461C07E010894E11CF11C88E0F7019D
:1000C00011928A95E9F729833A834B835C836D8388
:1000D0007E83AF83988780E2801BE82FFF27E7FDB0
:1000E000F09549815A816B817C81181684F01986BC
:1000F0001A861B861C86882799278E1B9F0B04C097
:10010000440F551F661F771F8A95D2F728C0202FEE
:10011000332727FD3095DB01CA01022E04C0880F6A
:10012000991FAA1FBB1F0A94D2F789879A87AB87AA
:10013000BC8704C07695679557954795EA95D2F7A1
:100140008D819E81AF81B88504C0880F991FAA1F39
:10015000BB1F2A95D2F7482B592B6A2B7B2B4D8737
:100160005E876F87788B29853A854B855C856D85A1
:100170007E85AF8598898A2F60960FB6F894DEBF8A
:100180000FBECDBFCF91DF910F91FF90EF900895FB
:10019000EF92FF920F931F937B018C0120E030E0E0
:1001A00040E05FE40E94E90A88238CF0C801B701AF
:1001B00020E030E040E05FE40E94B5080E94490B77
:1001C0009B01AC01205030404040504806C0C8015F
:1001D000B7010E94490B9B01AC01B901CA011F91F3
:1001E0000F91FF90EF900895AEE5B0E0EAEFF0E0F8
:1001F0000C94EA42A8E04E010894811C911CF40181
:100200006A2E11926A94E9F729833A834B835C83BF
:100210006D837E838F839887CE010996FC011192AE
:10022000AA95E9F7A986BA86CB86DC86ED86FE8696
:100230000F87188B29843A844B845C84ED84FE8478
:100240000F85188969807A808B809C806DA67EA638
:100250008FA698AA6D807E808F809884E114F10427
:100260000105110509F0B3C36214730484049504F5
:1002700008F03DC100E0201600E0300601E0400635
:1002800000E0500688F41FEF2116310441045104A8
:1002900039F030F048E0E42EF12C012D112D18C07A
:1002A000EE24FF24870114C020E0221620E032064D
:1002B00020E0420621E0520630F038E1E32EF12C36
:1002C000012D112D05C020E1E22EF12C012D112D63
:1002D000D201C1010E2C04C0B695A79597958795BC
:1002E0000A94D2F78C589F4FDC012C9180E290E069
:1002F000A0E0B0E08E199F09A00BB10B7C018D012D
:10030000E21AF10801091109E114F10401051105CE
:10031000A1F10E2C04C0220C331C441C551C0A9461
:10032000D2F7A40193010E2C04C0220F331F441FE7
:10033000551F0A94D2F780E290E08E199F096DA4B0
:100340007EA48FA498A804C0969487947794679409
:100350008A95D2F7622A732A842A952AADA4BEA46C
:10036000CFA4D8A804C0AA0CBB1CCC1CDD1CEA94EA
:10037000D2F7ADA6BEA6CFA6D8AA6201EE24FF246E
:10038000CDAADEAAEFAAF8AE9201810120703070EA
:1003900009AF1AAF2BAF3CAFC401B301A70196015F
:1003A0000E94C8427B018C01C401B3012DA93EA962
:1003B0004FA958AD0E94C842C901DA013C014D0164
:1003C000C401B30129AD3AAD4BAD5CAD0E9495427D
:1003D0009B01AC018701FF24EE24ADA4BEA4CFA4F1
:1003E000D8A8C601AA27BB2757016801A82AB92A9D
:1003F000CA2ADB2AA216B306C406D506E0F408947E
:100400006108710881089108A20CB31CC41CD51C9A
:10041000A214B304C404D50470F0A216B306C40633
:10042000D50648F408946108710881089108A20C67
:10043000B31CC41CD51CA21AB30AC40AD50AC6012F
:10044000B5012DA93EA94FA958AD0E94C8427B0114
:100450008C01C601B5012DA93EA94FA958AD0E9436
:10046000C842C901DA015C016D01C601B50129ADBF
:100470003AAD4BAD5CAD0E9495429B01AC0187014A
:10048000FF24EE248DA59EA5AFA5B8A9A070B070DD
:10049000E82AF92A0A2B1B2BE216F3060407150794
:1004A000C0F40894A108B108C108D108E20CF31CFB
:1004B000041D151DE214F3040405150550F0E216A1
:1004C000F3060407150728F40894A108B108C10829
:1004D000D108D3019927882786017501E82AF92ACE
:1004E0000A2B1B2BE9AAFAAA0BAB1CABCFC4211415
:1004F00031044104510471F461E070E080E090E067
:1005000020E030E040E050E00E94C842C901DA013A
:100510001C012D0100E0201600E0300601E040063D
:1005200000E0500688F41FEF211631044104510405
:1005300031F028F048E050E060E070E017C040E0A3
:1005400050E060E070E012C020E0221620E03206A9
:1005500020E0420621E0520628F048E150E060E049
:1005600070E004C040E150E060E070E0D201C10101
:10057000042E04C0B695A795979587950A94D2F74F
:100580008C589F4FDC012C91E0E2EE2EF12C012DD6
:10059000112DD801C701841B950BA60BB70B821B2D
:1005A0009109A109B1090097A105B10561F46401A0
:1005B0005301A218B308C408D50831E0632E712C8A
:1005C000812C912C1EC16F968FAF6F97082E04C09F
:1005D000220C331C441C551C0A94D2F7EE2DE81B48
:1005E000640153010E2E04C0D694C794B794A79407
:1005F0000A94D2F7A40193016F960FAC6F9704C0D1
:10060000220F331F441F551F0A94D2F76DA47EA4F6
:100610008FA498A80E2E04C096948794779467941C
:100620000A94D2F784017301E22AF32A042B152BD2
:10063000E9A6FAA60BA71CA73201882499249201E7
:1006400081012070307021960CAF1DAF2EAF3FAFEF
:100650002197C601B501A40193010E94C8427B0104
:100660008C01C601B501A40193010E94C842C901D1
:10067000DA0125968CAF9DAFAEAFBFAF2597BC0119
:10068000CD0121962CAD3DAD4EAD5FAD21970E94C1
:1006900095429B01AC018701FF24EE24A9A4BAA4D2
:1006A000CBA4DCA4C601AA27BB275C016D01AE2840
:1006B000BF28C02AD12AA216B306C406D50660F503
:1006C00025966CAD7DAD8EAD9FAD25976150704088
:1006D0008040904025966CAF7DAF8EAF9FAF259741
:1006E000A20CB31CC41CD51CA214B304C404D504AE
:1006F00098F0A216B306C406D50670F46150704097
:100700008040904025966CAF7DAF8EAF9FAF259710
:10071000A20CB31CC41CD51CA21AB30AC40AD50A65
:10072000C601B501A40193010E94C8427B018C015E
:10073000C601B501A40193010E94C842C901DA01B2
:100740003C014D01C401B30121962CAD3DAD4EAD30
:100750005FAD21970E9495429B01AC018701FF2468
:10076000EE2489A59AA5ABA5BCA5A070B0705701D1
:100770006801A82AB92ACA2ADB2AA216B306C40627
:10078000D506E0F408946108710881089108A20C6C
:10079000B31CC41CD51CA214B304C404D50470F04B
:1007A000A216B306C406D50648F408946108710879
:1007B00081089108A20CB31CC41CD51C8DA59EA554
:1007C000AFA5B8A96F960FAC6F9704C0880F991F9B
:1007D000AA1FBB1F0A94D2F78DA79EA7AFA7B8ABDD
:1007E000A21AB30AC40AD50A2596ECACFDAC0EAD2C
:1007F0001FAD2597D70199278827682A792A8A2A41
:100800009B2A82012227332729960CAF1DAF2EAFDA
:100810003FAF2997A2019101407050702D962CAFE7
:100820003DAF4EAF5FAF2D97C601B50129962CADF8
:100830003DAD4EAD5FAD29970E94C8427B018C0152
:10084000C601B50129962CAD3DAD4EAD5FAD2997E2
:100850000E94C842C901DA0161968CAF9DAFAEAF6C
:10086000BFAF6197BC01CD012D962CAD3DAD4EAD16
:100870005FAD2D970E9495429B01AC018701FF243B
:10088000EE24ADA4BEA4CFA4D8A8C601AA27BB2736
:1008900057016801A82AB92ACA2ADB2AA216B30678
:1008A000C406D50660F561966CAD7DAD8EAD9FAD8D
:1008B0006197615070408040904061966CAF7DAF11
:1008C0008EAF9FAF6197A20CB31CC41CD51CA214A1
:1008D000B304C404D50498F0A216B306C406D50622
:1008E00070F4615070408040904061966CAF7DAF75
:1008F0008EAF9FAF6197A20CB31CC41CD51CA21A6B
:10090000B30AC40AD50AC601B50129962CAD3DAD7E
:100910004EAD5FAD29970E94C8427B018C01C60194
:10092000B50129962CAD3DAD4EAD5FAD29970E9426
:10093000C842C901DA015C016D01C601B5012D96FD
:100940002CAD3DAD4EAD5FAD2D970E9495429B0104
:10095000AC018701FF24EE248DA59EA5AFA5B8A903
:10096000A070B070E82AF92A0A2B1B2BE216F306B6
:1009700004071507C0F40894A108B108C108D108FC
:10098000E20CF31C041D151DE214F3040405150507
:1009900050F0E216F3060407150728F40894A1089E
:1009A000B108C108D1086196ECACFDAC0EAD1FAD2D
:1009B0006197D7019927882796018501082B192B64
:1009C0002A2B3B2B09AB1AAB2BAB3CAB62C26E1490
:1009D0007F048006910608F451C220E0E21620E070
:1009E000F20621E0020720E0120788F43FEFE31649
:1009F000F1040105110531F028F048E050E060E015
:100A000070E017C040E050E060E070E012C040E0ED
:100A1000E41640E0F40640E0040741E0140728F043
:100A200048E150E060E070E004C040E150E060E088
:100A300070E0D801C701042E04C0B695A79597951C
:100A400087950A94D2F78C589F4FDC012C9130E2A5
:100A5000A32EB12CC12CD12CD601C501841B950B22
:100A6000A60BB70B821B9109A109B1090097A1053B
:100A7000B10589F4E614F7040805190508F4F2C174
:100A80006DA47EA48FA498A86214730484049504B2
:100A900008F0E8C1F3C16E968FAF6E97082E04C0C0
:100AA000EE0CFF1C001F111F0A94D2F76A2D681B61
:100AB000D201C101062E04C0B695A79597958795DA
:100AC0000A94D2F75C016D01AE28BF28C02AD12A52
:100AD000ADA2BEA2CFA2D8A6720161016E960FACE4
:100AE0006E9704C0CC0CDD1CEE1CFF1C0A94D2F7E0
:100AF000C9A2DAA2EBA2FCA264015301062E04C033
:100B0000D694C794B794A7940A94D2F7D401C3019A
:100B10006E960FAC6E9704C0880F991FAA1FBB1F5B
:100B20000A94D2F7EDA4FEA40FA518A904C0169547
:100B30000795F794E7946A95D2F737014801682A38
:100B4000792A8A2A9B2A6D8E7E8E8F8E98A2EDA09E
:100B5000FEA00FA118A538018824992498018701C7
:100B60002070307065960CAF1DAF2EAF3FAF65970C
:100B7000C601B501A40193010E94C8427B018C010A
:100B8000C601B501A40193010E94C842C901DA015E
:100B90001C012D01C201B10165962CAD3DAD4EADDC
:100BA0005FAD65970E9495429B01AC018701FF24D0
:100BB000EE24AD8CBE8CCF8CD8A0C601AA27BB2753
:100BC00057016801A82AB92ACA2ADB2AA216B30645
:100BD000C406D50600F508942108310841085108DB
:100BE000EDA0FEA00FA118A5AE0CBF1CC01ED11E0B
:100BF000AE14BF04C006D10670F0A216B306C40638
:100C0000D50648F408942108310841085108AE0C73
:100C1000BF1CC01ED11EA21AB30AC40AD50AC6013F
:100C2000B501A40193010E94C8427B018C01C60159
:100C3000B501A40193010E94C842C901DA013C0137
:100C40004D01C401B30165962CAD3DAD4EAD5FAD18
:100C500065970E9495429B01AC018701FF24EE2419
:100C60008D8D9E8DAF8DB8A1A070B07057016801B9
:100C7000A82AB92ACA2ADB2AA216B306C406D506B0
:100C800000F5089461087108810891086DA17EA1A2
:100C90008FA198A5A60EB71EC81ED91EA616B70608
:100CA000C806D90670F0A216B306C406D50648F4E5
:100CB00008946108710881089108A60EB71EC81E25
:100CC000D91ED601C501821B930BA40BB50B898FCE
:100CD0009A8FAB8FBC8FD10199278827640153016C
:100CE000A82AB92ACA2ADB2AA9AABAAACBAADCAAA4
:100CF000860175012FEF3FEF40E050E0E222F32242
:100D000004231523A601662777276D964CAF5DAFA8
:100D10006EAF7FAF6D97A9A0BAA0CBA0DCA06FEF9C
:100D20007FEF80E090E0A622B722C822D92289A1D5
:100D30009AA1ABA1BCA11D0144245524C801B7014F
:100D4000A60195010E94954269966CAF7DAF8EAF6A
:100D50009FAF6997C801B701A20191010E94954216
:100D60003B014C016D966CAD7DAD8EAD9FAD6D9729
:100D7000A60195010E9495427B018C016D966CAD98
:100D80007DAD8EAD9FAD6D97A20191010E94954200
:100D90005B016C01A8019701260D371D481D591DE7
:100DA00069966CAC7DAC8EAC9FAC6997C401AA27E8
:100DB000BB27280F391F4A1F5B1F2E153F05400711
:100DC000510748F4E12CF12C61E0062F112DAE0CF7
:100DD000BF1CC01ED11ECA01AA27BB27BC01CD0162
:100DE0006A0D7B1D8C1D9D1D698C7A8C8B8C9C8C57
:100DF000661677068806990640F166157705880518
:100E0000990509F043C0D9019927882769962CAD27
:100E10003DAD4EAD5FAD699740705070820F931F2E
:100E2000A41FB51F2DA53EA54FA558A96E960FACC2
:100E30006E9704C0220F331F441F551F0A94D2F728
:100E4000281739074A075B0708F509A91AA92BA92A
:100E50003CA9015010402040304009AB1AAB2BABED
:100E60003CAB14C066247724430121E030E040E02D
:100E700050E029AB3AAB4BAB5CAB0BC0662477249C
:100E8000430119AA1AAA1BAA1CAA03C06624772424
:100E90004301FE01719688E0DF011D928A95E9F712
:100EA000A9A8BAA8CBA8DCA8A98ABA8ACB8ADC8A66
:100EB0006D8A7E8A8F8A988E29A93A894B895C89A6
:100EC000662D7E898F89988DC25ADF4FE2E10C949E
:100ED0000643A0E0B0E0EFE6F7E00C94EA42DC0164
:100EE0002B01FA019C91923008F439C1EB01888101
:100EF000823008F433C1943069F4843009F02FC192
:100F000011969C9111978981981709F428C1ACE634
:100F1000B0E025C1843009F421C18230A9F49230B7
:100F200009F01DC19A01AD0188E0EA010990AE0106
:100F3000E90109929E018150C1F7E2018981119670
:100F40009C918923818308C1923009F407C11296CC
:100F50002D903C901397EB018A819B811496AD9064
:100F6000BD90CD90DC901797EC80FD800E811F81A5
:100F70009101281B390BB90137FF04C06627772779
:100F8000621B730B603271050CF061C01216130600
:100F90006CF537014801062E04C096948794779427
:100FA00067940A94D2F721E030E040E050E004C0BA
:100FB000220F331F441F551F6A95D2F7215030402E
:100FC000404050402E213F2140235123211531051F
:100FD0004105510521F021E030E040E050E0790189
:100FE0008A01E628F728082919293CC0232BD1F1CA
:100FF000260E371E35014601062E04C096948794AE
:10100000779467940A94D2F721E030E040E050E012
:1010100004C0220F331F441F551F6A95D2F7215079
:101020003040404050402A213B214C215D21211578
:1010300031054105510521F021E030E040E050E06C
:1010400059016A01A628B728C828D9280BC08215DB
:1010500093052CF01C01AA24BB24650103C0EE24D7
:10106000FF24870111969C91D20111968C919817BB
:1010700009F445C0992339F0A80197012A193B09C1
:101080004C095D0906C0A60195012E193F09400BC8
:10109000510B57FD08C0118233822282248335838D
:1010A000468357831DC081E0818333822282882753
:1010B0009927DC01821B930BA40BB50B84839583CA
:1010C000A683B7830DC0220F331F441F551F2483EF
:1010D00035834683578382819381019793838283EB
:1010E0002481358146815781DA01C9010197A1091F
:1010F000B1098F5F9F4FAF4FBF4328F30BC0918360
:1011000033822282EA0CFB1C0C1D1D1DE482F58239
:101110000683178383E0808324813581468157814C
:1011200057FF1AC0C901AA2797FDA095BA2F817051
:101130009070A070B0705695479537952795822B83
:10114000932BA42BB52B84839583A683B7838281AD
:101150009381019693838283DF0101C0D201CD0187
:10116000CDB7DEB7E2E10C940643A0E2B0E0EBEBD2
:10117000F8E00C94F64269837A838B839C832D83F9
:101180003E834F835887E9E0EE2EF12CEC0EFD1ED6
:10119000CE010196B7010E94720C8E010F5E1F4FA7
:1011A000CE010596B8010E94720C8A8991E08927C8
:1011B0008A8BC701B801AE01475E5F4F0E94690785
:1011C0000E949D0BA096E6E00C941243A0E2B0E0D2
:1011D000ECEEF8E00C94F64269837A838B839C836F
:1011E0002D833E834F835887F9E0EF2EF12CEC0ED0
:1011F000FD1ECE010196B7010E94720C8E010F5E9A
:101200001F4FCE010596B8010E94720CC701B801AC
:10121000AE01475E5F4F0E9469070E949D0BA0963A
:10122000E6E00C941243A0E2B0E0E9E1F9E00C94AE
:10123000EA4269837A838B839C832D833E834F8329
:101240005887CE010196BE01675F7F4F0E94720CE6
:10125000CE010596BE016F5E7F4F0E94720C99858C
:10126000923088F089898230C8F0943019F4823045
:1012700051F404C0843029F4923081F48CE690E07B
:10128000C6C0923049F420E09A858A89981321E0FB
:101290002A87CE010996BBC0823049F420E09A85A6
:1012A0008A89981321E02A8BCE014196B0C02D8403
:1012B0003E844F8458886D887E888F88988CEE2471
:1012C000FF248701AA24BB24650140E050E060E0D0
:1012D00070E0E0E0F0E0C10181709070892BE9F0EE
:1012E000E60CF71C081D191D9A01AB012A0D3B1DC8
:1012F0004C1D5D1D80E090E0A0E0B0E0E614F70436
:101300000805190520F481E090E0A0E0B0E0BA0102
:10131000A901480F591F6A1F7B1FAA0CBB1CCC1CBC
:10132000DD1C97FE08C081E090E0A0E0B0E0A82AB4
:10133000B92ACA2ADB2A3196E032F10549F0660C57
:10134000771C881C991C5694479437942794C3CFD4
:10135000FA85EA892B893C898B859C85280F391F62
:101360002E5F3F4F17C0CA0181709070892B61F0CA
:1013700016950795F794E79480E090E0A0E0B0E838
:10138000E82AF92A0A2B1B2B7695679557954795DE
:101390002F5F3F4F77FDE7CF0CC0440F551F661FEF
:1013A000771F17FD4160EE0CFF1C001F111F21501D
:1013B0003040403090E0590790E0690790E47907A9
:1013C00060F32B8F3C8FDB01CA018F779070A07088
:1013D000B07080349105A105B10561F447FD0AC0E4
:1013E000E114F1040105110529F0405C5F4F6F4FD6
:1013F0007F4F40781A8EFE1711F081E08A8F4D8F53
:101400005E8F6F8F78A383E0898FCE0149960E940B
:101410009D0BA096E2E10C940643A8E1B0E0E3E165
:10142000FAE00C94F24269837A838B839C832D8348
:101430003E834F835887B9E0EB2EF12CEC0EFD1E56
:10144000CE010196B7010E94720C8E010F5E1F4FF4
:10145000CE010596B8010E94720C2985223008F44D
:101460007EC03989323010F4B8017CC08A859A89EF
:1014700089278A87243011F0223031F4231709F0AC
:101480006EC06CE670E06EC0343039F41D861E8686
:101490001F86188A1C861B8604C0323021F484E023
:1014A0008987B7015FC02B853C858B899C89281B68
:1014B000390B3C872B87ED84FE840F851889AD8816
:1014C000BE88CF88D88CEA14FB040C051D0540F4B7
:1014D000EE0CFF1C001F111F215030403C872B8752
:1014E00020E030E040E050E080E090E0A0E0B0E4B8
:1014F00060E070E0EA14FB040C051D0540F0282BA9
:10150000392B4A2B5B2BEA18FB080C091D09B695F1
:10151000A79597958795EE0CFF1C001F111F6F5F15
:101520007F4F6F31710531F7DA01C9018F77907004
:10153000A070B07080349105A105B10561F427FD5C
:101540000AC0E114F1040105110529F0205C3F4FA8
:101550004F4F5F4F20782D873E874F87588BBE01B6
:10156000675F7F4FCB010E949D0B6896EAE00C9469
:101570000E43A8E1B0E0EFEBFAE00C94F642698389
:101580007A838B839C832D833E834F83588789E0A6
:10159000E82EF12CEC0EFD1ECE010196B7010E9443
:1015A000720C8E010F5E1F4FCE010596B8010E948E
:1015B000720C8985823040F08989823028F0C70119
:1015C000B8010E94EA0C01C08FEF6896E6E00C9427
:1015D0001243A8E1B0E0EFEEFAE00C94F642698322
:1015E0007A838B839C832D833E834F83588789E046
:1015F000E82EF12CEC0EFD1ECE010196B7010E94E3
:10160000720C8E010F5E1F4FCE010596B8010E942D
:10161000720C8985823040F08989823028F0C701B8
:10162000B8010E94EA0C01C08FEF6896E6E00C94C6
:101630001243A8E1B0E0EFE1FBE00C94F6426983CD
:101640007A838B839C832D833E834F83588789E0E5
:10165000E82EF12CEC0EFD1ECE010196B7010E9482
:10166000720C8E010F5E1F4FCE010596B8010E94CD
:10167000720C8985823040F08989823028F0C70158
:10168000B8010E94EA0C01C081E06896E6E00C9483
:101690001243ACE0B0E0EFE4FBE00C94FA42698363
:1016A0007A838B839C83CE010196BE016B5F7F4F53
:1016B0000E94720C8D81823061F1823050F1843051
:1016C00021F48E81882351F12EC02F81388537FD7A
:1016D00020C06E812F3131051CF06623F9F023C044
:1016E0008EE190E0821B930B29853A854B855C85C2
:1016F00004C056954795379527958A95D2F7662366
:10170000B1F050954095309521953F4F4F4F5F4F29
:101710000EC020E030E040E050E009C02FEF3FEF86
:101720004FEF5FE704C020E030E040E050E8B9014F
:10173000CA012C96E2E00C941643DF92EF92FF92DE
:101740000F931F93FC01E480F58006811781D180FF
:101750008081823048F480E090E0A0E1B0E0E82AA7
:10176000F92A0A2B1B2BA5C0843009F49FC08230B4
:1017700021F4EE24FF24870105C0E114F1040105E2
:10178000110519F4E0E0F0E096C0628173819FEFEB
:10179000623879070CF05BC022E83FEF261B370B5D
:1017A0002A3131052CF020E030E040E050E02AC042
:1017B000B801A701022E04C0769567955795479505
:1017C0000A94D2F781E090E0A0E0B0E004C0880F76
:1017D000991FAA1FBB1F2A95D2F70197A109B1092A
:1017E0008E219F21A023B1230097A105B10521F0EF
:1017F00081E090E0A0E0B0E09A01AB01282B392B0A
:101800004A2B5B2BDA01C9018F779070A070B07002
:1018100080349105A105B10539F427FF09C0205C8A
:101820003F4F4F4F5F4F04C0215C3F4F4F4F5F4FC3
:10183000E0E0F0E02030A0E03A07A0E04A07A0E4B2
:101840005A0710F0E1E0F0E079018A0127C0603822
:10185000710564F5FB01E158FF4FD801C7018F778F
:101860009070A070B07080349105A105B10539F475
:10187000E7FE0DC080E490E0A0E0B0E004C08FE39C
:1018800090E0A0E0B0E0E80EF91E0A1F1B1F17FF52
:1018900005C016950795F794E794319687E016955D
:1018A0000795F794E7948A95D1F705C0EE24FF24B5
:1018B0008701EFEFF0E06E2F679566276795902F11
:1018C0009F77D794DD24D7948E2F8695492F462B6A
:1018D000582F5D29B701CA011F910F91FF90EF901A
:1018E000DF900895FC01DB01408151812281622F4C
:1018F0006F7770E0221F2227221F9381892F880F84
:10190000822B282F30E0991F9927991F11969C93BD
:10191000119721153105A9F541155105610571058D
:1019200011F482E037C082E89FEF13969C938E9368
:1019300012979A01AB0167E0220F331F441F551F16
:101940006A95D1F783E08C930DC0220F331F441F9B
:10195000551F12968D919C911397019713969C9306
:101960008E931297203080E0380780E0480780E4AB
:10197000580758F314962D933D934D935C93179706
:1019800008952F3F310579F4411551056105710521
:1019900019F484E08C93089564FF03C081E08C9374
:1019A00012C01C9210C02F57304013963C932E93B8
:1019B000129783E08C9387E0440F551F661F771FB3
:1019C0008A95D1F7706414964D935D936D937C93D3
:1019D000179708951F93DC01FB019C91923008F446
:1019E00047C08081823008F443C0943051F411968E
:1019F0001C91843099F58181682F70E0611B710919
:101A00003FC0843021F0923031F48230B9F18181CD
:101A1000882389F12DC011961C9111978230F1F025
:101A200081811817D9F412962D913C9113978281D8
:101A300093818217930794F028173907BCF0149606
:101A40008D919D910D90BC91A02D24813581468171
:101A50005781281739074A075B0718F4112341F00B
:101A60000AC082179307A407B50740F4112319F0A1
:101A700061E070E005C06FEF7FEF02C060E070E0F2
:101A8000CB011F910895DF93CF9300D0CDB7DEB780
:101A900089836A83A7E2B0E0E7E2F0E080818F7398
:101AA0008C93A7E2B0E0E7E2F0E08081282F8A8102
:101AB000882F90E0002496958795079496958795B2
:101AC0000794982F802D822B8C93A7E2B0E0E7E259
:101AD000F0E080818F7D8C93A6E2B0E0E6E2F0E05A
:101AE000808180688C93A6E2B0E0E6E2F0E080813D
:101AF0008F7D8C93A6E2B0E0E6E2F0E08081887F03
:101B00008C93A6E2B0E0E6E2F0E090818981892B37
:101B10008C930F900F90CF91DF910895DF93CF9327
:101B2000CDB7DEB7A6E2B0E0E6E2F0E08081886003
:101B30008C93CF91DF910895DF93CF93CDB7DEB72C
:101B4000A6E2B0E0E6E2F0E08081877F8C93CF915F
:101B5000DF910895DF93CF9300D00F92CDB7DEB71A
:101B60008B831A821982A7E2B0E0E7E2F0E080817D
:101B7000807E8C93A7E2B0E0E7E2F0E090818B8179
:101B8000892B8C93A6E2B0E0E6E2F0E080818064ED
:101B90008C93E6E2F0E08081882F90E09C012F7E1C
:101BA000E6E2F0E08081882F90E02817390789F37A
:101BB000A6E2B0E0E6E2F0E0808180618C93E4E2AE
:101BC000F0E0808191819A83898389819A810F9045
:101BD0000F900F90CF91DF910895DF93CF9300D0B6
:101BE000CDB7DEB79A83898389819A819093A501C5
:101BF0008093A4010F900F90CF91DF9108951F92D1
:101C00000F920FB60F9211242F933F934F935F9330
:101C10006F937F938F939F93AF93BF93EF93FF93B4
:101C2000DF93CF93CDB7DEB78091A4019091A5014A
:101C3000009729F0E091A401F091A5010995CF91B9
:101C4000DF91FF91EF91BF91AF919F918F917F9124
:101C50006F915F914F913F912F910F900FBE0F9019
:101C60001F901895DF93CF93CDB7DEB76C970FB663
:101C7000F894DEBF0FBECDBF80E060E041E00E947F
:101C8000141080E061E040E00E94141080E090E0D9
:101C9000AAE7B4E4898F9A8FAB8FBC8F698D7A8D58
:101CA0008B8D9C8D20E030E04AEF54E40E941309B4
:101CB000DC01CB018D8B9E8BAF8BB88F6D897E89BC
:101CC0008F89988D20E030E040E85FE30E94190B97
:101CD00088232CF481E090E09C8B8B8B3FC06D8936
:101CE0007E898F89988D20E03FEF4FE757E40E946F
:101CF000B90A18164CF5698D7A8D8B8D9C8D20E074
:101D000030E040E251E40E941309DC01CB01BC0148
:101D1000CD010E94C800DC01CB019C8B8B8B0FC0D6
:101D200088EC90E09A8B898B89899A890197F1F7E1
:101D30009A8B898B8B899C8901979C8B8B8B8B8948
:101D40009C89009769F714C06D897E898F89988D69
:101D50000E94C800DC01CB019C8B8B8B8B899C89FA
:101D6000988B8F878F8598890197F1F7988B8F874C
:101D700080E060E040E00E94141080E061E041E01B
:101D80000E94141080E090E0AAE7B4E48B879C875F
:101D9000AD87BE876B857C858D859E8520E030E094
:101DA0004AEF54E40E941309DC01CB018F8398872A
:101DB000A987BA876F81788589859A8520E030E088
:101DC00040E85FE30E94190B88232CF481E090E047
:101DD0009E838D833FC06F81788589859A8520E0B9
:101DE0003FEF4FE757E40E94B90A18164CF56B8590
:101DF0007C858D859E8520E030E040E251E40E94A4
:101E00001309DC01CB01BC01CD010E94C800DC013B
:101E1000CB019E838D830FC088EC90E09C838B83E5
:101E20008B819C810197F1F79C838B838D819E81AF
:101E300001979E838D838D819E81009769F714C0E1
:101E40006F81788589859A850E94C800DC01CB0165
:101E50009E838D838D819E819A83898389819A81D6
:101E60000197F1F79A8389836C960FB6F894DEBFD9
:101E70000FBECDBFCF91DF910895DF93CF93CDB744
:101E8000DEB7EBE3F0E01082E8E3F0E01082E5E398
:101E9000F0E01082E2E3F0E01082EAE3F0E08FEF9E
:101EA0008083E7E3F0E08FEF8083E4E3F0E08FEFFF
:101EB0008083E1E3F0E08EEF8083CF91DF9108959E
:101EC000DF93CF9300D000D00F92CDB7DEB78A83D7
:101ED0006B838A81282F30E03D832C838C819D8108
:101EE00081309105C1F12C813D81223031052CF4E6
:101EF0008C819D81009771F08EC02C813D812230B4
:101F0000310509F449C08C819D818330910509F424
:101F100063C081C0E9E3F0E08081482F50E08B810D
:101F2000282F30E081E090E002C0880F991F2A95A9
:101F3000E2F7809590959A0128233923E9E3F0E0B0
:101F40008081882F90E019822817390709F463C02F
:101F500081E0898360C0E6E3F0E08081482F50E0B3
:101F60008B81282F30E081E090E002C0880F991F1C
:101F70002A95E2F7809590959A0128233923E6E384
:101F8000F0E08081882F90E019822817390709F442
:101F900042C081E089833FC0E3E3F0E08081482FC5
:101FA00050E08B81282F30E081E090E002C0880F64
:101FB000991F2A95E2F7809590959A012823392355
:101FC000E3E3F0E08081882F90E019822817390739
:101FD00011F181E089831FC0E0E3F0E08081482FA8
:101FE00050E08B81282F30E081E090E002C0880F24
:101FF000991F2A95E2F7809590959A012823392315
:10200000E0E3F0E08081882F90E0198228173907FB
:1020100011F081E0898389810F900F900F900F90CC
:102020000F90CF91DF910895DF93CF93CDB7DEB7B7
:102030002D970FB6F894DEBF0FBECDBF89836A839C
:102040004B838981282F30E03D872C878C859D85A7
:102050008130910509F44FC02C853D852230310532
:102060002CF48C859D85009771F0EBC02C853D8507
:102070002230310509F477C08C859D858330910528
:1020800009F4A9C0DEC08B81282F30E03B872A8766
:102090008A859B850097D1F02A853B8521303105C3
:1020A00009F0CFC0ABE3B0E0EBE3F0E08081482F74
:1020B0008A81282F30E081E090E0022E02C0880F54
:1020C000991F0A94E2F7842B8C93BBC0ABE3B0E07A
:1020D000EBE3F0E08081482F8A81282F30E081E017
:1020E00090E0022E02C0880F991F0A94E2F78095B3
:1020F00084238C93A6C08B81282F30E039872887D2
:10210000888599850097D1F028853985213031055A
:1021100009F097C0A8E3B0E0E8E3F0E08081482F41
:102120008A81282F30E081E090E0022E02C0880FE3
:10213000991F0A94E2F7842B8C9383C0A8E3B0E044
:10214000E8E3F0E08081482F8A81282F30E081E0A9
:1021500090E0022E02C0880F991F0A94E2F7809542
:1021600084238C936EC08B81282F30E03F832E8395
:102170008E819F810097D1F02E813F8121303105E2
:1021800009F05FC0A5E3B0E0E5E3F0E08081482F0F
:102190008A81282F30E081E090E0022E02C0880F73
:1021A000991F0A94E2F7842B8C934BC0A5E3B0E00F
:1021B000E5E3F0E08081482F8A81282F30E081E03C
:1021C00090E0022E02C0880F991F0A94E2F78095D2
:1021D00084238C9336C08B81282F30E03D832C8361
:1021E0008C819D810097C9F02C813D812130310582
:1021F00041F5A2E3B0E0E2E3F0E08081482F8A817C
:10220000282F30E081E090E0022E02C0880F991F55
:102210000A94E2F7842B8C9314C0A2E3B0E0E2E3CB
:10222000F0E08081482F8A81282F30E081E090E023
:10223000022E02C0880F991F0A94E2F7809584232A
:102240008C932D960FB6F894DEBF0FBECDBFCF9105
:10225000DF910895DF93CF93CDB7DEB72D970FB6FB
:10226000F894DEBF0FBECDBF89836A834B8389811B
:10227000282F30E03D872C878C859D858130910506
:1022800009F44FC02C853D85223031052CF48C8516
:102290009D85009771F0EBC02C853D85223031057E
:1022A00009F477C08C859D858330910509F4A9C018
:1022B000DEC08B81282F30E03B872A878A859B856B
:1022C0000097D1F02A853B852130310509F0CFC038
:1022D000AAE3B0E0EAE3F0E08081482F8A81282F6A
:1022E00030E081E090E0022E02C0880F991F0A942E
:1022F000E2F7842B8C93BBC0AAE3B0E0EAE3F0E002
:102300008081482F8A81282F30E081E090E0022EE2
:1023100002C0880F991F0A94E2F7809584238C935A
:10232000A6C08B81282F30E039872887888599853A
:102330000097D1F0288539852130310509F097C003
:10234000A7E3B0E0E7E3F0E08081482F8A81282FFF
:1023500030E081E090E0022E02C0880F991F0A94BD
:10236000E2F7842B8C9383C0A7E3B0E0E7E3F0E0CF
:102370008081482F8A81282F30E081E090E0022E72
:1023800002C0880F991F0A94E2F7809584238C93EA
:102390006EC08B81282F30E03F832E838E819F81FA
:1023A0000097D1F02E813F812130310509F05FC0C7
:1023B000A4E3B0E0E4E3F0E08081482F8A81282F95
:1023C00030E081E090E0022E02C0880F991F0A944D
:1023D000E2F7842B8C934BC0A4E3B0E0E4E3F0E09D
:1023E0008081482F8A81282F30E081E090E0022E02
:1023F00002C0880F991F0A94E2F7809584238C937A
:1024000036C08B81282F30E03D832C838C819D81C9
:102410000097C9F02C813D812130310541F5A1E3C0
:10242000B0E0E1E3F0E08081482F8A81282F30E09E
:1024300081E090E0022E02C0880F991F0A94E2F713
:10244000842B8C9314C0A1E3B0E0E1E3F0E0808141
:10245000482F8A81282F30E081E090E0022E02C0D0
:10246000880F991F0A94E2F7809584238C932D9608
:102470000FB6F894DEBF0FBECDBFCF91DF910895A8
:10248000DF93CF9300D000D0CDB7DEB789836A83C6
:102490008981282F30E03C832B838B819C81813084
:1024A0009105D1F02B813C81223031052CF48B81B8
:1024B0009C81009761F01EC02B813C812230310548
:1024C00081F08B819C818330910581F013C0EBE317
:1024D000F0E08A8180830EC0E8E3F0E08A818083A7
:1024E00009C0E5E3F0E08A81808304C0E2E3F0E024
:1024F0008A8180830F900F900F900F90CF91DF9182
:102500000895DF93CF9300D000D0CDB7DEB7898395
:102510006A838981282F30E03C832B838B819C81C7
:1025200081309105D1F02B813C81223031052CF492
:102530008B819C81009761F01EC02B813C812230F1
:10254000310581F08B819C818330910581F013C02E
:10255000EAE3F0E08A8180830EC0E7E3F0E08A815D
:10256000808309C0E4E3F0E08A81808304C0E1E372
:10257000F0E08A8180830F900F900F900F90CF91A1
:10258000DF910895DF93CF9300D000D000D0CDB776
:10259000DEB78B837D836C831A828C819D81880F4B
:1025A000892F881F990B9195982F8B81892B806596
:1025B00089830E9441398A838A81882319F08A811C
:1025C0008E8316C089810E946C398A838A81882310
:1025D00019F08A818E830CC08C810E949D398A8378
:1025E0008A81882319F08A818E8302C08A818E8332
:1025F0008E8126960FB6F894DEBF0FBECDBFCF9169
:10260000DF910895DF93CF9300D0CDB7DEB78A83F3
:1026100019828A810E949D39898389810F900F9048
:10262000CF91DF910895DF93CF9300D000D000D0F9
:10263000CDB7DEB78B837D836C831A828C819D81BD
:10264000880F892F881F990B9195982F8B81892B43
:10265000806589830E9441398A838A81882319F0A1
:102660008A818E8329C089810E946C398A838A81FC
:10267000882319F08A818E831FC08C810E949D3926
:102680008A838A81882319F08A818E8315C00E94EB
:10269000CE398A838A81882319F08A818E830CC07F
:1026A00089810E94F9398A838A81882319F08A8175
:1026B0008E8302C08A818E838E8126960FB6F8940F
:1026C000DEBF0FBECDBFCF91DF910895DF93CF93D3
:1026D00000D000D0CDB7DEB79B838A836C8319828C
:1026E0009E012E5F3F4F8C81B9010E942F3A898352
:1026F00089810F900F900F900F90CF91DF910895E7
:10270000DF93CF93CDB7DEB70E946E3ACF91DF91C2
:102710000895DF93CF9300D000D000D0CDB7DEB7BF
:1027200089836A838A81843008F05AC08981282F7E
:1027300030E03E832D838D819E8181309105D1F0E3
:102740002D813E812230310561F18D819E8100977E
:1027500009F046C0A5E5B0E0E5E5F0E080818C7FBA
:102760008C93A5E5B0E0E5E5F0E090818A81892BC6
:102770008C9336C0A5E5B0E0E5E5F0E08081837F8D
:102780008C93A5E5B0E0E5E5F0E08081282F8A8113
:10279000882F90E0880F991F880F991F822B8C93A8
:1027A0001FC08A81282F30E03C832B838B819C8142
:1027B0008230910531F02B813C812330310549F085
:1027C0000FC0A4E5B0E0E4E5F0E080818F7B8C935E
:1027D00007C0A4E5B0E0E4E5F0E0808180648C937C
:1027E00026960FB6F894DEBF0FBECDBFCF91DF9116
:1027F0000895DF93CF9300D00F92CDB7DEB78983D2
:102800008981282F30E03B832A838A819B81813014
:10281000910589F02A813B8122303105A1F08A811E
:102820009B810097B9F4ABE5B0E0EBE5F0E0808187
:1028300080648C930FC0ABE5B0E0EBE5F0E0808105
:1028400080688C9307C0ABE5B0E0EBE5F0E08081F9
:1028500080628C930F900F900F90CF91DF9108952D
:10286000DF93CF9300D00F92CDB7DEB789838981F4
:10287000282F30E03B832A838A819B818130910518
:1028800089F02A813B8122303105A1F08A819B8128
:102890000097B9F4ABE5B0E0EBE5F0E080818F7B29
:1028A0008C930FC0ABE5B0E0EBE5F0E080818F7773
:1028B0008C9307C0ABE5B0E0EBE5F0E080818F7D65
:1028C0008C930F900F900F90CF91DF910895DF932D
:1028D000CF9300D00F92CDB7DEB789838981282F9F
:1028E00030E03B832A838A819B818130910589F086
:1028F0002A813B8122303105A1F08A819B8100979A
:10290000B9F4AAE5B0E0EAE5F0E0808180648C9358
:102910000FC0AAE5B0E0EAE5F0E0808180688C9322
:1029200007C0AAE5B0E0EAE5F0E0808180628C9320
:102930000F900F900F90CF91DF910895DF93CF9379
:1029400000D000D00F92CDB7DEB789837B836A8336
:102950008A819B81009739F18981282F30E03D835E
:102960002C838C819D818130910581F02C813D816A
:102970002230310591F08C819D810097A1F48A81EC
:102980009B819093A7018093A6010DC08A819B81B2
:102990009093A9018093A80106C08A819B8190939E
:1029A000AB018093AA010F900F900F900F900F90A2
:1029B000CF91DF9108951F920F920FB60F921124BD
:1029C0002F933F934F935F936F937F938F939F9337
:1029D000AF93BF93EF93FF93DF93CF93CDB7DEB762
:1029E0008091A6019091A701009729F0E091A6019E
:1029F000F091A7010995CF91DF91FF91EF91BF91E0
:102A0000AF919F918F917F916F915F914F913F9186
:102A10002F910F900FBE0F901F9018951F920F923D
:102A20000FB60F9211242F933F934F935F936F93A1
:102A30007F938F939F93AF93BF93EF93FF93DF9316
:102A4000CF93CDB7DEB78091A8019091A9010097EF
:102A500029F0E091A801F091A9010995CF91DF91AA
:102A6000FF91EF91BF91AF919F918F917F916F9166
:102A70005F914F913F912F910F900FBE0F901F903C
:102A800018951F920F920FB60F9211242F933F9318
:102A90004F935F936F937F938F939F93AF93BF9366
:102AA000EF93FF93DF93CF93CDB7DEB78091AA0169
:102AB0009091AB01009729F0E091AA01F091AB0150
:102AC0000995CF91DF91FF91EF91BF91AF919F91C8
:102AD0008F917F916F915F914F913F912F910F90C7
:102AE0000FBE0F901F901895DF93CF93CDB7DEB731
:102AF000AFE5B0E0EFE5F0E0808180688C93CF91A6
:102B0000DF910895DF93CF93CDB7DEB7AFE5B0E0A7
:102B1000EFE5F0E080818F778C93CF91DF9108957E
:102B2000DF93CF93CDB7DEB762970FB6F894DEBFD1
:102B30000FBECDBF188A8FEF8F871A8AC9C08A89C6
:102B4000882F90E0FC01EC57FE4F908180E0692FC8
:102B500040E00E941410198AA5C08989882F90E04E
:102B6000FC01E857FE4F908180E0692F0E94600FC2
:102B7000882309F094C080E090E0A6E1B3E48B875D
:102B80009C87AD87BE876B857C858D859E8520E083
:102B900030E04AEF54E40E941309DC01CB018F833B
:102BA0009887A987BA876F81788589859A8520E07B
:102BB00030E040E85FE30E94190B88232CF481E0A9
:102BC00090E09E838D833FC06F81788589859A854B
:102BD00020E03FEF4FE757E40E94B90A18164CF582
:102BE0006B857C858D859E8520E030E040E251E458
:102BF0000E941309DC01CB01BC01CD010E94C80079
:102C0000DC01CB019E838D830FC088EC90E09C8318
:102C10008B838B819C810197F1F79C838B838D81C2
:102C20009E8101979E838D838D819E81009769F798
:102C300014C06F81788589859A850E94C800DC015F
:102C4000CB019E838D838D819E819A838983898127
:102C50009A810197F1F79A83898381E0888B89892A
:102C6000882F90E0FC01E857FE4F908180E0692FAB
:102C70000E94600F882399F38A89482F50E0898940
:102C8000282F30E0CA01880F991F880F991F820FE3
:102C9000931FFC01EC58FE4F80818F8707C0898904
:102CA0008F5F898B8989843008F457CF8A89882F70
:102CB00090E0FC01EC57FE4F908180E0692F41E0ED
:102CC0000E9414108889882339F48A898F5F8A8B3F
:102CD0008A89843008F433CF8F8562960FB6F894D2
:102CE000DEBF0FBECDBFCF91DF910895DF93CF93AD
:102CF000CDB7DEB7AB970FB6F894DEBF0FBECDBF32
:102D00008BA782E060E040E00E94141082E061E066
:102D100040E00E94141083E06BA50E94401282E004
:102D200062E041E00E94141080E090E0A0E8BFE380
:102D30008FA398A7A9A7BAA76FA178A589A59AA5D7
:102D400020E030E04AEF54E40E941309DC01CB019B
:102D50008BA39CA3ADA3BEA36BA17CA18DA19EA1BF
:102D600020E030E040E85FE30E94190B88232CF458
:102D700081E090E09AA389A33FC06BA17CA18DA1C3
:102D80009EA120E03FEF4FE757E40E94B90A1816D2
:102D90004CF56FA178A589A59AA520E030E040E226
:102DA00051E40E941309DC01CB01BC01CD010E945A
:102DB000C800DC01CB019AA389A30FC088EC90E086
:102DC00098A38F8F8F8D98A10197F1F798A38F8F7C
:102DD00089A19AA101979AA389A389A19AA1009791
:102DE00069F714C06BA17CA18DA19EA10E94C800AF
:102DF000DC01CB019AA389A389A19AA19E8F8D8F13
:102E00008D8D9E8D0197F1F79E8F8D8F82E062E010
:102E100040E00E9414108091AC01882309F484C022
:102E20008BA5982F9295907F83E0692F0E94401286
:102E300082E062E041E00E94141080E090E0A0E8AF
:102E4000BFE3898F9A8FAB8FBC8F698D7A8D8B8D05
:102E50009C8D20E030E04AEF54E40E941309DC012D
:102E6000CB018D8B9E8BAF8BB88F6D897E898F89BF
:102E7000988D20E030E040E85FE30E94190B882342
:102E80002CF481E090E09C8B8B8B3FC06D897E8918
:102E90008F89988D20E03FEF4FE757E40E94B90AF1
:102EA00018164CF5698D7A8D8B8D9C8D20E030E065
:102EB00040E251E40E941309DC01CB01BC01CD01C9
:102EC0000E94C800DC01CB019C8B8B8B0FC088EC6F
:102ED00090E09A8B898B89899A890197F1F79A8B6F
:102EE000898B8B899C8901979C8B8B8B8B899C8987
:102EF000009769F714C06D897E898F89988D0E942B
:102F0000C800DC01CB019C8B8B8B8B899C89988BB7
:102F10008F878F8598890197F1F7988B8F8782E04B
:102F200062E040E00E94141080E090E0A0E0B0E495
:102F30008B879C87AD87BE876B857C858D859E85BD
:102F400020E030E04AEF54E40E941309DC01CB0199
:102F50008F839887A987BA876F81788589859A85B5
:102F600020E030E040E85FE30E94190B88232CF456
:102F700081E090E09E838D833FC06F817885898555
:102F80009A8520E03FEF4FE757E40E94B90A1816F0
:102F90004CF56B857C858D859E8520E030E040E298
:102FA00051E40E941309DC01CB01BC01CD010E9458
:102FB000C800DC01CB019E838D830FC088EC90E0BC
:102FC0009C838B838B819C810197F1F79C838B83FE
:102FD0008D819E8101979E838D838D819E81009737
:102FE00069F714C06F81788589859A850E94C80029
:102FF000DC01CB019E838D838D819E819A838983A1
:1030000089819A810197F1F79A838983AB960FB6EC
:10301000F894DEBF0FBECDBFCF91DF910895DF934F
:10302000CF93CDB7DEB7AB970FB6F894DEBF0FBE28
:10303000CDBF8BA782E060E041E00E94141082E0E7
:1030400061E040E00E94141083E06BA50E944012F2
:1030500082E062E041E00E94141080E090E0A0E88D
:10306000BFE38FA398A7A9A7BAA76FA178A589A541
:103070009AA520E030E04AEF54E40E941309DC01F5
:10308000CB018BA39CA3ADA3BEA36BA17CA18DA1FF
:103090009EA120E030E040E85FE30E94190B882306
:1030A0002CF481E090E09AA389A33FC06BA17CA19E
:1030B0008DA19EA120E03FEF4FE757E40E94B90A9F
:1030C00018164CF56FA178A589A59AA520E030E0E7
:1030D00040E251E40E941309DC01CB01BC01CD01A7
:1030E0000E94C800DC01CB019AA389A30FC088EC21
:1030F00090E098A38F8F8F8D98A10197F1F798A3F7
:103100008F8F89A19AA101979AA389A389A19AA1D6
:10311000009769F714C06BA17CA18DA19EA10E94AC
:10312000C800DC01CB019AA389A389A19AA19E8F33
:103130008D8F8D8D9E8D0197F1F79E8F8D8F82E003
:1031400062E040E00E9414108BA5982F9295907F2A
:1031500083E0692F0E94401282E062E041E00E9419
:10316000141080E090E0A0E8BFE3898F9A8FAB8FC6
:10317000BC8F698D7A8D8B8D9C8D20E030E04AEF7D
:1031800054E40E941309DC01CB018D8B9E8BAF8B25
:10319000B88F6D897E898F89988D20E030E040E876
:1031A0005FE30E94190B88232CF481E090E09C8B54
:1031B0008B8B3FC06D897E898F89988D20E03FEF92
:1031C0004FE757E40E94B90A18164CF5698D7A8DBD
:1031D0008B8D9C8D20E030E040E251E40E94130989
:1031E000DC01CB01BC01CD010E94C800DC01CB0198
:1031F0009C8B8B8B0FC088EC90E09A8B898B898994
:103200009A890197F1F79A8B898B8B899C89019711
:103210009C8B8B8B8B899C89009769F714C06D8977
:103220007E898F89988D0E94C800DC01CB019C8B20
:103230008B8B8B899C89988B8F878F859889019739
:10324000F1F7988B8F8782E062E040E00E941410D3
:1032500080E090E0A0E0B0E48B879C87AD87BE87DC
:103260006B857C858D859E8520E030E04AEF54E4B7
:103270000E941309DC01CB018F839887A987BA8745
:103280006F81788589859A8520E030E040E85FE3AA
:103290000E94190B88232CF481E090E09E838D839B
:1032A0003FC06F81788589859A8520E03FEF4FE7A1
:1032B00057E40E94B90A18164CF56B857C858D85FC
:1032C0009E8520E030E040E251E40E941309DC01D9
:1032D000CB01BC01CD010E94C800DC01CB019E8363
:1032E0008D830FC088EC90E09C838B838B819C81C5
:1032F0000197F1F79C838B838D819E8101979E833B
:103300008D838D819E81009769F714C06F817885C8
:1033100089859A850E94C800DC01CB019E838D833C
:103320008D819E819A83898389819A810197F1F7A2
:103330009A838983AB960FB6F894DEBF0FBECDBFDC
:10334000CF91DF9108950F931F93DF93CF93CDB764
:10335000DEB7CC54D0400FB6F894DEBF0FBECDBF61
:10336000FE01E75BFF4F80E090E0A0EFB1E48083D7
:103370009183A283B3838E010B5B1F4FFE01E75B3A
:10338000FF4F608171818281938120E030E04AEFBC
:1033900054E40E941309DC01CB01F801808391837E
:1033A000A283B383FE01EB5BFF4F60817181828159
:1033B000938120E030E040E85FE30E94190B88230E
:1033C00044F4FE01ED5BFF4F81E090E09183808348
:1033D00064C0FE01EB5BFF4F60817181828193814C
:1033E00020E03FEF4FE757E40E94B90A18160CF0AF
:1033F00043C0FE01E75BFF4F608171818281938151
:1034000020E030E040E251E40E941309DC01CB01EE
:103410008E010D5B1F4FBC01CD010E94C800DC0175
:10342000CB01F801918380831FC0FE01EF5BFF4F4A
:1034300088EC90E091838083FE01EF5BFF4F8081F9
:1034400091810197F1F7FE01EF5BFF4F918380833C
:10345000DE01AD5BBF4FFE01ED5BFF4F80819181CF
:10346000019711969C938E93FE01ED5BFF4F808137
:1034700091810097D1F624C08E010D5B1F4FFE0194
:10348000EB5BFF4F60817181828193810E94C80054
:10349000DC01CB01F80191838083FE01ED5BFF4FDE
:1034A00080819181FE01FF9691838083FE01FF96CA
:1034B000808191810197F1F7FE01FF9691838083CE
:1034C00080E20E94761680E20E94761680E80E94D2
:1034D000761680E090E0A0E2B2E48BAF9CAFADAF97
:1034E000BEAF6BAD7CAD8DAD9EAD2BEA3AEA4AE244
:1034F00050E40E941309DC01CB018FAB98AFA9AF58
:10350000BAAF6FA978AD89AD9AAD20E030E040E860
:103510005FE30E94190B88231CF481E08EAB91C0FD
:103520006FA978AD89AD9AAD20E030E04FE753E464
:103530000E94B90A18160CF07BC06BAD7CAD8DAD46
:103540009EAD20E030E04AE754E40E940D0ADC0121
:10355000CB018AAB9BABACABBDAB6AA97BA98CA9F9
:103560009DA920E030E04AEF54E40E941309DC01F9
:10357000CB018EA79FA7A8ABB9AB6EA57FA588A9E5
:1035800099A920E030E040E85FE30E94190B88230E
:103590002CF481E090E09DA78CA73FC06EA57FA58D
:1035A00088A999A920E03FEF4FE757E40E94B90AA4
:1035B00018164CF56AA97BA98CA99DA920E030E0DA
:1035C00040E251E40E941309DC01CB01BC01CD01B2
:1035D0000E94C800DC01CB019DA78CA70FC088EC1E
:1035E00090E09BA78AA78AA59BA50197F1F79BA7C7
:1035F0008AA78CA59DA501979DA78CA78CA59DA5A5
:10360000009769F724C06EA57FA588A999A90E9493
:10361000C800DC01CB019DA78CA78CA59DA599A70F
:1036200088A788A599A50197F1F799A788A70FC042
:103630006FA978AD89AD9AAD0E94C800DC01CB01BD
:103640008EAB8EA98FA38FA18A95F1F78FA380E00F
:103650000E94761680EC0E94761680E090E0A0E250
:10366000B2E48BA39CA3ADA3BEA36BA17CA18DA14F
:103670009EA12BEA3AEA4AE250E40E941309DC01D7
:10368000CB018F8F98A3A9A3BAA36F8D78A189A12D
:103690009AA120E030E040E85FE30E94190B882304
:1036A0001CF481E08E8F91C06F8D78A189A19AA1C1
:1036B00020E030E04FE753E40E94B90A18160CF0FE
:1036C0007BC06BA17CA18DA19EA120E030E04AE7E8
:1036D00054E40E940D0ADC01CB018A8F9B8FAC8FD2
:1036E000BD8F6A8D7B8D8C8D9D8D20E030E04AEF03
:1036F00054E40E941309DC01CB018E8B9F8BA88FB1
:10370000B98F6E897F89888D998D20E030E040E8FF
:103710005FE30E94190B88232CF481E090E09D8BDD
:103720008C8B3FC06E897F89888D998D20E03FEF1B
:103730004FE757E40E94B90A18164CF56A8D7B8D45
:103740008C8D9D8D20E030E040E251E40E94130911
:10375000DC01CB01BC01CD010E94C800DC01CB0122
:103760009D8B8C8B0FC088EC90E09B8B8A8B8A8919
:103770009B890197F1F79B8B8A8B8C899D89019797
:103780009D8B8C8B8C899D89009769F724C06E89ED
:103790007F89888D998D0E94C800DC01CB019D8BAB
:1037A0008C8B8C899D89998B888B888999890197C5
:1037B000F1F7998B888B0FC06F8D78A189A19AA1A1
:1037C0000E94C800DC01CB018E8F8E8D8F878F8584
:1037D0008A95F1F78F8780E00E94761680E10E943B
:1037E000761680E090E0A0E0B0E48B879C87AD8700
:1037F000BE876B857C858D859E8520E030E04AEF15
:1038000054E40E941309DC01CB018F839887A987B8
:10381000BA876F81788589859A8520E030E040E815
:103820005FE30E94190B88232CF481E090E09E83D3
:103830008D833FC06F81788589859A8520E03FEF31
:103840004FE757E40E94B90A18164CF56B857C8542
:103850008D859E8520E030E040E251E40E9413090E
:10386000DC01CB01BC01CD010E94C800DC01CB0111
:103870009E838D830FC088EC90E09C838B838B812B
:103880009C810197F1F79C838B838D819E810197A9
:103890009E838D838D819E81009769F714C06F810F
:1038A000788589859A850E94C800DC01CB019E83BA
:1038B0008D838D819E819A83898389819A810197E5
:1038C000F1F79A83898380E00E94761680E60E9451
:1038D000761681E08093AC01C45BDF4F0FB6F8949D
:1038E000DEBF0FBECDBFCF91DF911F910F91089525
:1038F000DF93CF93CDB7DEB72E970FB6F894DEBF28
:103900000FBECDBF81E00E94761680E090E0A0E07F
:10391000B0E48B879C87AD87BE876B857C858D8562
:103920009E8520E030E04AEF54E40E941309DC0158
:10393000CB018F839887A987BA876F81788589851E
:103940009A8520E030E040E85FE30E94190B88236D
:103950002CF481E090E09E838D833FC06F81788559
:1039600089859A8520E03FEF4FE757E40E94B90A26
:1039700018164CF56B857C858D859E8520E030E0A2
:1039800040E251E40E941309DC01CB01BC01CD01EE
:103990000E94C800DC01CB019E838D830FC088ECA0
:1039A00090E09C838B838B819C810197F1F79C83B2
:1039B0008B838D819E8101979E838D838D819E81D6
:1039C000009769F714C06F81788589859A850E9470
:1039D000C800DC01CB019E838D838D819E819A83FB
:1039E000898389819A810197F1F79A8389832E9639
:1039F0000FB6F894DEBF0FBECDBFCF91DF91089513
:103A0000DF93CF9300D00F92CDB7DEB79B838A832D
:103A100019820EC08981282F30E08A819B81FC01A8
:103A2000E20FF31F80810E940F1889818F5F8983C5
:103A30008981282F30E08A819B81FC01E20FF31FEE
:103A40008081882339F70F900F900F90CF91DF91ED
:103A50000895DF93CF93CDB7DEB763970FB6F89491
:103A6000DEBF0FBECDBF888B698B8889282F30E0E1
:103A70003B8B2A8B8A899B898130910531F02A8979
:103A80003B892230310559F013C0898981508F87D5
:103A90008F8580688F878F850E94761609C08989F7
:103AA000815C8F878F8580688F878F850E947616CF
:103AB00080E090E0A0E8BFE38B879C87AD87BE875E
:103AC0006B857C858D859E8520E030E04AEF54E44F
:103AD0000E941309DC01CB018F839887A987BA87DD
:103AE0006F81788589859A8520E030E040E85FE342
:103AF0000E94190B88232CF481E090E09E838D8333
:103B00003FC06F81788589859A8520E03FEF4FE738
:103B100057E40E94B90A18164CF56B857C858D8593
:103B20009E8520E030E040E251E40E941309DC0170
:103B3000CB01BC01CD010E94C800DC01CB019E83FA
:103B40008D830FC088EC90E09C838B838B819C815C
:103B50000197F1F79C838B838D819E8101979E83D2
:103B60008D838D819E81009769F714C06F81788560
:103B700089859A850E94C800DC01CB019E838D83D4
:103B80008D819E819A83898389819A810197F1F73A
:103B90009A83898363960FB6F894DEBF0FBECDBFBC
:103BA000CF91DF910895DF93CF9300D000D0CDB7B0
:103BB000DEB79C838B8381E090E09A8389838B813D
:103BC0009C81009731F580E30E940F1822C0898103
:103BD0009A819C01220F331FC901880F991F880FFA
:103BE000991FF901E80FF91F8B819C812AE030E0D1
:103BF000B9010E94B4428E0F9F1F9A8389838B81E3
:103C00009C812AE030E0B9010E94B442CB019C8340
:103C10008B838B819C810097D1F614C089819A8116
:103C20002AE030E0B9010E94B442805D0E940F1882
:103C300089819A812AE030E0B9010E94B442CB0127
:103C40009A83898389819A818130910539F70F9010
:103C50000F900F900F90CF91DF910895DF93CF9346
:103C6000CDB7DEB7AB970FB6F894DEBF0FBECDBFB2
:103C70009AA789A76BA78BA5883008F0E5C08BA50C
:103C8000882F90E0880F991F880F991F880F991F20
:103C90008BA78BA580648BA78BA58F778BA78BA514
:103CA0000E9476161FA2CCC08FA1282F30E089A5D4
:103CB0009AA5FC01E20FF31F80810E940F1880E09B
:103CC00090E0A0E7B2E48BA39CA3ADA3BEA36BA13D
:103CD0007CA18DA19EA12BEA3AEA4AE250E40E941F
:103CE0001309DC01CB018F8F98A3A9A3BAA36F8D11
:103CF00078A189A19AA120E030E040E85FE30E942A
:103D0000190B88231CF481E08E8F91C06F8D78A1F0
:103D100089A19AA120E030E04FE753E40E94B90A5C
:103D200018160CF07BC06BA17CA18DA19EA120E098
:103D300030E04AE754E40E940D0ADC01CB018A8F8F
:103D40009B8FAC8FBD8F6A8D7B8D8C8D9D8D20E080
:103D500030E04AEF54E40E941309DC01CB018E8B62
:103D60009F8BA88FB98F6E897F89888D998D20E070
:103D700030E040E85FE30E94190B88232CF481E0D7
:103D800090E09D8B8C8B3FC06E897F89888D998D4B
:103D900020E03FEF4FE757E40E94B90A18164CF5B0
:103DA0006A8D7B8D8C8D9D8D20E030E040E251E46A
:103DB0000E941309DC01CB01BC01CD010E94C800A7
:103DC000DC01CB019D8B8C8B0FC088EC90E09B8B32
:103DD0008A8B8A899B890197F1F79B8B8A8B8C89C7
:103DE0009D8901979D8B8C8B8C899D89009769F7A4
:103DF00024C06E897F89888D998D0E94C800DC015E
:103E0000CB019D8B8C8B8C899D89998B888B888924
:103E100099890197F1F7998B888B0FC06F8D78A1E5
:103E200089A19AA10E94C800DC01CB018E8F8E8DE2
:103E30008F878F858A95F1F78F878FA18F5F8FA3EB
:103E40008FA1883008F430CF82E00E94761680E09F
:103E500090E0A0E0B0E48B879C87AD87BE876B8540
:103E60007C858D859E8520E030E04AEF54E40E94F9
:103E70001309DC01CB018F839887A987BA876F81EB
:103E8000788589859A8520E030E040E85FE30E94EC
:103E9000190B88232CF481E090E09E838D833FC032
:103EA0006F81788589859A8520E03FEF4FE757E459
:103EB0000E94B90A18164CF56B857C858D859E8508
:103EC00020E030E040E251E40E941309DC01CB0124
:103ED000BC01CD010E94C800DC01CB019E838D8313
:103EE0000FC088EC90E09C838B838B819C81019731
:103EF000F1F79C838B838D819E8101979E838D83B7
:103F00008D819E81009769F714C06F8178858985BE
:103F10009A850E94C800DC01CB019E838D838D8130
:103F20009E819A83898389819A810197F1F79A8387
:103F30008983AB960FB6F894DEBF0FBECDBFCF918D
:103F4000DF910895DF93CF9300D00F92CDB7DEB706
:103F500089836A834B838A816B810E94291D8981B1
:103F60000E940F180F900F900F90CF91DF9108953E
:103F7000DF93CF93CDB7DEB72F970FB6F894DEBFA0
:103F80000FBECDBF8F8782E060E040E00E9414103A
:103F900082E061E040E00E94141083E06F850E949F
:103FA000401282E062E041E00E94141080E090E064
:103FB000A0E0B0E48B879C87AD87BE876B857C854E
:103FC0008D859E8520E030E04AEF54E40E9413097D
:103FD000DC01CB018F839887A987BA876F817885A9
:103FE00089859A8520E030E040E85FE30E94190B64
:103FF00088232CF481E090E09E838D833FC06F8105
:10400000788589859A8520E03FEF4FE757E40E9445
:10401000B90A18164CF56B857C858D859E8520E048
:1040200030E040E251E40E941309DC01CB01BC0105
:10403000CD010E94C800DC01CB019E838D830FC09F
:1040400088EC90E09C838B838B819C810197F1F7B6
:104050009C838B838D819E8101979E838D838D812F
:104060009E81009769F714C06F81788589859A854C
:104070000E94C800DC01CB019E838D838D819E81CF
:104080009A83898389819A810197F1F79A83898339
:1040900082E062E040E00E9414102F960FB6F89480
:1040A000DEBF0FBECDBFCF91DF910895DF93CF93D9
:1040B000CDB7DEB72F970FB6F894DEBF0FBECDBFDA
:1040C0008F8782E060E041E00E94141082E061E0AE
:1040D00040E00E94141083E06F850E94401282E04D
:1040E00062E041E00E94141080E090E0A0E0B0E4C3
:1040F0008B879C87AD87BE876B857C858D859E85EC
:1041000020E030E04AEF54E40E941309DC01CB01C7
:104110008F839887A987BA876F81788589859A85E3
:1041200020E030E040E85FE30E94190B88232CF484
:1041300081E090E09E838D833FC06F817885898583
:104140009A8520E03FEF4FE757E40E94B90A18161E
:104150004CF56B857C858D859E8520E030E040E2C6
:1041600051E40E941309DC01CB01BC01CD010E9486
:10417000C800DC01CB019E838D830FC088EC90E0EA
:104180009C838B838B819C810197F1F79C838B832C
:104190008D819E8101979E838D838D819E81009765
:1041A00069F714C06F81788589859A850E94C80057
:1041B000DC01CB019E838D838D819E819A838983CF
:1041C00089819A810197F1F79A83898382E062E07D
:1041D00040E00E9414102F960FB6F894DEBF0FBE79
:1041E000CDBFCF91DF910895DF93CF93CDB7DEB7E9
:1041F000E8970FB6F894DEBF0FBECDBF80E090E029
:10420000A0EFB1E48DAB9EABAFABB8AF6DA97EA90B
:104210008FA998AD20E030E04AEF54E40E941309E2
:10422000DC01CB0189AB9AABABABBCAB69A97AA97A
:104230008BA99CA920E030E040E85FE30E94190BC5
:1042400088232CF481E090E098AB8FA73FC069A948
:104250007AA98BA99CA920E03FEF4FE757E40E9481
:10426000B90A18164CF56DA97EA98FA998AD20E062
:1042700030E040E251E40E941309DC01CB01BC01B3
:10428000CD010E94C800DC01CB0198AB8FA70FC005
:1042900088EC90E09EA78DA78DA59EA50197F1F7CC
:1042A0009EA78DA78FA598A9019798AB8FA78FA5DB
:1042B00098A9009769F714C069A97AA98BA99CA944
:1042C0000E94C800DC01CB0198AB8FA78FA598A9ED
:1042D0009CA78BA78BA59CA50197F1F79CA78BA703
:1042E00088E30E94B81F80E090E0A0E8BFE38FA3BE
:1042F00098A7A9A7BAA76FA178A589A59AA520E034
:1043000030E04AEF54E40E941309DC01CB018BA397
:104310009CA3ADA3BEA36BA17CA18DA19EA120E017
:1043200030E040E85FE30E94190B88232CF481E021
:1043300090E09AA389A33FC06BA17CA18DA19EA10F
:1043400020E03FEF4FE757E40E94B90A18164CF5FA
:104350006FA178A589A59AA520E030E040E251E45C
:104360000E941309DC01CB01BC01CD010E94C800F1
:10437000DC01CB019AA389A30FC088EC90E098A33D
:104380008F8F8F8D98A10197F1F798A38F8F89A1B7
:104390009AA101979AA389A389A19AA1009769F785
:1043A00014C06BA17CA18DA19EA10E94C800DC015C
:1043B000CB019AA389A389A19AA19E8F8D8F8D8D00
:1043C0009E8D0197F1F79E8F8D8F8CE00E94B81F14
:1043D00080E090E0A0E8BFE3898F9A8FAB8FBC8F1D
:1043E000698D7A8D8B8D9C8D20E030E04AEF54E40E
:1043F0000E941309DC01CB018D8B9E8BAF8BB88F94
:104400006D897E898F89988D20E030E040E85FE3F8
:104410000E94190B88232CF481E090E09C8B8B8BFD
:104420003FC06D897E898F89988D20E03FEF4FE7EF
:1044300057E40E94B90A18164CF5698D7A8D8B8D58
:104440009C8D20E030E040E251E40E941309DC0141
:10445000CB01BC01CD010E94C800DC01CB019C8BCB
:104460008B8B0FC088EC90E09A8B898B89899A8915
:104470000197F1F79A8B898B8B899C8901979C8B8B
:104480008B8B8B899C89009769F714C06D897E8915
:104490008F89988D0E94C800DC01CB019C8B8B8B8F
:1044A0008B899C89988B8F878F8598890197F1F7E5
:1044B000988B8F8781E00E94B81F80E090E0A0E099
:1044C000B0E48B879C87AD87BE876B857C858D85A7
:1044D0009E8520E030E04AEF54E40E941309DC019D
:1044E000CB018F839887A987BA876F817885898563
:1044F0009A8520E030E040E85FE30E94190B8823B2
:104500002CF481E090E09E838D833FC06F8178859D
:1045100089859A8520E03FEF4FE757E40E94B90A6A
:1045200018164CF56B857C858D859E8520E030E0E6
:1045300040E251E40E941309DC01CB01BC01CD0132
:104540000E94C800DC01CB019E838D830FC088ECE4
:1045500090E09C838B838B819C810197F1F79C83F6
:104560008B838D819E8101979E838D838D819E811A
:10457000009769F714C06F81788589859A850E94B4
:10458000C800DC01CB019E838D838D819E819A833F
:10459000898389819A810197F1F79A83898386E0DB
:1045A0000E94B81FE8960FB6F894DEBF0FBECDBFCD
:1045B000CF91DF910895DF93CF93CDB7DEB72E97DC
:1045C0000FB6F894DEBF0FBECDBF81E00E94B81FCA
:1045D00080E090E0A0E0B0E48B879C87AD87BE8749
:1045E0006B857C858D859E8520E030E04AEF54E424
:1045F0000E941309DC01CB018F839887A987BA87B2
:104600006F81788589859A8520E030E040E85FE316
:104610000E94190B88232CF481E090E09E838D8307
:104620003FC06F81788589859A8520E03FEF4FE70D
:1046300057E40E94B90A18164CF56B857C858D8568
:104640009E8520E030E040E251E40E941309DC0145
:10465000CB01BC01CD010E94C800DC01CB019E83CF
:104660008D830FC088EC90E09C838B838B819C8131
:104670000197F1F79C838B838D819E8101979E83A7
:104680008D838D819E81009769F714C06F81788535
:1046900089859A850E94C800DC01CB019E838D83A9
:1046A0008D819E819A83898389819A810197F1F70F
:1046B0009A8389832E960FB6F894DEBF0FBECDBFC6
:1046C000CF91DF910895DF93CF9300D00F92CDB7B4
:1046D000DEB79B838A8319820EC08981282F30E040
:1046E0008A819B81FC01E20FF31F80810E9456208A
:1046F00089818F5F89838981282F30E08A819B811E
:10470000FC01E20FF31F8081882339F70F900F908F
:104710000F90CF91DF910895DF93CF93CDB7DEB7A0
:1047200063970FB6F894DEBF0FBECDBF888B698B41
:104730008889282F30E03B8B2A8B8A899B8981309E
:10474000910531F02A893B892230310559F013C097
:10475000898981508F878F8580688F878F850E9498
:10476000B81F09C08989815C8F878F8580688F8792
:104770008F850E94B81F80E090E0A0E8BFE38B87A0
:104780009C87AD87BE876B857C858D859E8520E067
:1047900030E04AEF54E40E941309DC01CB018F831F
:1047A0009887A987BA876F81788589859A8520E05F
:1047B00030E040E85FE30E94190B88232CF481E08D
:1047C00090E09E838D833FC06F81788589859A852F
:1047D00020E03FEF4FE757E40E94B90A18164CF566
:1047E0006B857C858D859E8520E030E040E251E43C
:1047F0000E941309DC01CB01BC01CD010E94C8005D
:10480000DC01CB019E838D830FC088EC90E09C83FC
:104810008B838B819C810197F1F79C838B838D81A6
:104820009E8101979E838D838D819E81009769F77C
:1048300014C06F81788589859A850E94C800DC0143
:10484000CB019E838D838D819E819A83898389810B
:104850009A810197F1F79A83898363960FB6F8944A
:10486000DEBF0FBECDBFCF91DF910895DF93CF9311
:1048700000D000D0CDB7DEB79C838B8381E090E081
:104880009A8389838B819C81009731F580E30E9414
:10489000562022C089819A819C01220F331FC901B1
:1048A000880F991F880F991FF901E80FF91F8B8155
:1048B0009C812AE030E0B9010E94B4428E0F9F1F14
:1048C0009A8389838B819C812AE030E0B9010E9420
:1048D000B442CB019C838B838B819C810097D1F662
:1048E00014C089819A812AE030E0B9010E94B44263
:1048F000805D0E94562089819A812AE030E0B901CA
:104900000E94B442CB019A83898389819A81813044
:10491000910539F70F900F900F900F90CF91DF9185
:104920000895DF93CF93CDB7DEB7AB970FB6F8946A
:10493000DEBF0FBECDBF9AA789A76BA78BA5883016
:1049400008F0E5C08BA5882F90E0880F991F880F8D
:10495000991F880F991F8BA78BA580648BA78BA5A8
:104960008F778BA78BA50E94B81F1FA2CCC08FA1E9
:10497000282F30E089A59AA5FC01E20FF31F808162
:104980000E94562080E090E0A0E7B2E48BA39CA3B5
:10499000ADA3BEA36BA17CA18DA19EA12BEA3AEA97
:1049A0004AE250E40E941309DC01CB018F8F98A3E7
:1049B000A9A3BAA36F8D78A189A19AA120E030E0C4
:1049C00040E85FE30E94190B88231CF481E08E8F7E
:1049D00091C06F8D78A189A19AA120E030E04FE7C6
:1049E00053E40E94B90A18160CF07BC06BA17CA19D
:1049F0008DA19EA120E030E04AE754E40E940D0A18
:104A0000DC01CB018A8F9B8FAC8FBD8F6A8D7B8D34
:104A10008C8D9D8D20E030E04AEF54E40E94130914
:104A2000DC01CB018E8B9F8BA88FB98F6E897F891C
:104A3000888D998D20E030E040E85FE30E94190BFB
:104A400088232CF481E090E09D8B8C8B3FC06E8995
:104A50007F89888D998D20E03FEF4FE757E40E94D2
:104A6000B90A18164CF56A8D7B8D8C8D9D8D20E0D2
:104A700030E040E251E40E941309DC01CB01BC01AB
:104A8000CD010E94C800DC01CB019D8B8C8B0FC037
:104A900088EC90E09B8B8A8B8A899B890197F1F740
:104AA0009B8B8A8B8C899D8901979D8B8C8B8C89A4
:104AB0009D89009769F724C06E897F89888D998DBB
:104AC0000E94C800DC01CB019D8B8C8B8C899D8959
:104AD000998B888B888999890197F1F7998B888BB5
:104AE0000FC06F8D78A189A19AA10E94C800DC0136
:104AF000CB018E8F8E8D8F878F858A95F1F78F876B
:104B00008FA18F5F8FA38FA1883008F430CF82E010
:104B10000E94B81F80E090E0A0E0B0E48B879C8703
:104B2000AD87BE876B857C858D859E8520E030E0D6
:104B30004AEF54E40E941309DC01CB018F8398876C
:104B4000A987BA876F81788589859A8520E030E0CA
:104B500040E85FE30E94190B88232CF481E090E089
:104B60009E838D833FC06F81788589859A8520E0FB
:104B70003FEF4FE757E40E94B90A18164CF56B85D2
:104B80007C858D859E8520E030E040E251E40E94E6
:104B90001309DC01CB01BC01CD010E94C800DC017E
:104BA000CB019E838D830FC088EC90E09C838B8328
:104BB0008B819C810197F1F79C838B838D819E81F2
:104BC00001979E838D838D819E81009769F714C024
:104BD0006F81788589859A850E94C800DC01CB01A8
:104BE0009E838D838D819E819A83898389819A8119
:104BF0000197F1F79A838983AB960FB6F894DEBFDD
:104C00000FBECDBFCF91DF910895DF93CF9300D03A
:104C10000F92CDB7DEB789836A834B838A816B811C
:104C20000E948C2389810E9456200F900F900F9034
:104C3000CF91DF910895DF93CF93CDB7DEB780EAB0
:104C400096E20E94563280E062E040E00E944C31E1
:104C5000CF91DF910895DF93CF930F92CDB7DEB759
:104C6000198212C08981282F30E0C901880F991F4D
:104C7000820F931F880F991FFC01EA52FE4F118289
:104C8000108289818F5F89838981833058F30F90E7
:104C9000CF91DF910895DF93CF93CDB7DEB72797FC
:104CA0000FB6F894DEBF0FBECDBF89837B836A83C6
:104CB0005D834C833F832E8389818330C0F58E8151
:104CC0009F810097A1F18981282F30E0C901880FC9
:104CD000991F820F931F880F991FFC01EE52FE4F00
:104CE0008C819D81918380838981282F30E0C90147
:104CF000880F991F820F931F0196880F991FFC013F
:104D0000EE52FE4F8A819B81918380838981282F77
:104D100030E0C901880F991F820F931F880F991FD8
:104D2000FC01EA52FE4F8E819F81918380832796FA
:104D30000FB6F894DEBF0FBECDBFCF91DF910895BF
:104D4000DF93CF930F92CDB7DEB7198278C08981F8
:104D5000282F30E0C901880F991F820F931F880FF9
:104D6000991FFC01EE52FE4F80819181009709F05E
:104D700045C08981282F30E0C901880F991F820F13
:104D8000931F880F991FFC01EA52FE4F8081918189
:104D9000009789F08981282F30E0C901880F991F79
:104DA000820F931F880F991FFC01EA52FE4F01905A
:104DB000F081E02D09958981482F50E08981282FC5
:104DC00030E0C901880F991F820F931F0196880F49
:104DD000991FFC01EE52FE4F808191819C01215070
:104DE0003040CA01880F991F840F951F880F991FA3
:104DF000FC01EE52FE4F318320831EC08981282F93
:104E000030E0C901880F991F820F931F880F991FE7
:104E1000FC01EE52FE4F80819181AC014150504027
:104E2000C901880F991F820F931F880F991FFC01DA
:104E3000EE52FE4F5183408389818F5F8983898140
:104E4000833008F484CF0F90CF91DF910895DF93E2
:104E5000CF93CDB7DEB78DE062E042E022E00E9462
:104E6000CE328FE19EE40E942E36CF91DF910895DD
:104E70002F923F924F925F926F927F928F929F926A
:104E8000AF92BF92CF92DF92EF92FF920F931F9358
:104E9000DF93CF93CDB7DEB7C155D0400FB6F894AE
:104EA000DEBF0FBECDBF8B838B81082F10E020E0CB
:104EB00030E040E050E060E070E00C831D832E8322
:104EC0003F83488759876A877B87AC80BD80CE80C7
:104ED000DF80E884F9840A851B852A2D3B2D4C2D23
:104EE0005D2D6E2D7F2D802F912F02E00E944900B5
:104EF0002C873D874E875F87688B798B8A8B9B8B4E
:104F00002C853D854E855F85688979898A899B894D
:104F100005E00E9449002C8B3D8B4E8B5F8B688F88
:104F2000798F8A8F9B8F1C892C85121B1C8F31E0F7
:104F30003CA34C8D5C89541708F01CA26D897D85BB
:104F4000671B6D8F81E08DA39D8D0D89091708F07A
:104F50001DA21D8D2CA1121B1EA331E03FA34EA14B
:104F60005D8D541708F01FA26DA17FA1672B6DA363
:104F70008EA18D8F9E890E85901B9E8F11E018A7A4
:104F80002E8D3E89321708F018A64E8D5DA1451B67
:104F900049A761E06AA779A58E8D871708F01AA640
:104FA00098A50AA5902B98A719A51E8F2F893F8534
:104FB000231B2F8F41E04BA75F8D6F89651708F08A
:104FC0001BA67F8D88A5781B7CA791E09DA70CA5CB
:104FD0001F8D101708F01DA62BA53DA5232B2BA771
:104FE0004CA54F8F588D6889561B58A371E07EA73A
:104FF00088A1988D981708F01EA608A11BA5011B73
:105000000FA721E028AB3FA548A1431708F018AA35
:105010005EA568A9562B5EA77FA578A3898D99897F
:10502000891B89A301E009AB19A1298D211708F07B
:1050300019AA39A14EA5341B3AAB51E05BAB6AA962
:1050400079A1761708F01BAA89A99BA9892B89AB9E
:105050000AA909A31A8D2A89121B1AA331E03CABB5
:105060004AA15A8D541708F01CAA6AA179A9671B96
:105070006DAB81E08EAB9DA90AA1091708F01EAAAD
:105080001CA92EA9122B1CAB3DA93AA34B8D5B8901
:10509000451B4BA38BA16CA9861B8BA37C8D7C8BA2
:1050A0008D8D8D8B9E8D9E8B0F8D0F8B18A1188FE4
:1050B00029A1298F3AA13A8F4BA14B8F5C896C8132
:1050C000560F5FAB71E07FAF8FA99C89891708F0FD
:1050D0001FAE0D891D81010F08AF21E021962FAF72
:1050E000219738AD4D89341718F021961FAE2197BE
:1050F0005FAD68AD560F22965FAF229771E02396A1
:105100007FAF239722968FAD229798AD891718F01D
:1051100023961FAE239721960FAD219723961FAD9F
:105120002397012B21960FAF219722962FAD22971F
:1051300028AF3E894E81340F39AF51E024965FAFDE
:10514000249769AD7E89671718F024961FAE2497BF
:1051500021968FAD219799AD890F25968FAF259711
:1051600001E026960FAF269725961FAD259729AD0E
:10517000121718F026961FAE269724963FAD249757
:1051800026964FAD2697342B24963FAF249725962D
:105190005FAD259759AF6F897F81670F6AAF81E057
:1051A00027968FAF27979AAD0F89901718F02796FB
:1051B0001FAE279724961FAD24972AAD120F28966D
:1051C0001FAF289731E029963FAF299728964FAD1A
:1051D00028975AAD451718F029961FAE299727969C
:1051E0006FAD279729967FAD2997672B27966FAFCD
:1051F000279728968FAD28978AAF988D0885900FAE
:105200009BAF11E02A961FAF2A972BAD388D23173D
:1052100018F02A961FAE2A9727964FAD27975BADB9
:10522000450F2B964FAF2B9761E02C966FAF2C97C5
:105230002B967FAD2B978BAD781718F02C961FAE61
:105240002C972A969FAD2A972C960FAD2C97902BD2
:105250002A969FAF2A972B961FAD2B971BAF298DB0
:105260003985230F2CAF41E02D964FAF2D975CADC4
:10527000698D561718F02D961FAE2D972A967FAD83
:105280002A978CAD780F2E967FAF2E9791E02F96B0
:105290009FAF2F972E960FAD2E971CAD011718F0CC
:1052A0002F961FAE2F972D962FAD2D972F963FAD92
:1052B0002F97232B2D962FAF2D972E964FAD2E97F0
:1052C0004CAF5A8D6A85560F5DAF71E060967FAF27
:1052D00060978DAD9A8D891718F060961FAE609714
:1052E0002D960FAD2D971DAD010F61960FAF6197F4
:1052F00021E062962FAF629761963FAD61974DAD09
:10530000341718F062961FAE629760965FAD609793
:1053100062966FAD6297562B60965FAF609761960D
:105320007FAD61977DAF8B8D9B85890F8EAF60962A
:105330008FAD60970EAD800F8EAF1FA91C8B28AD6F
:105340002D8B39AD3E8B4AAD4F8B5BAD588F6CAD1D
:10535000698F7DAD7A8F8EAD8B8F2C893D894E897B
:105360005F89688D798D8A8D9B8D03E00E9449004D
:10537000222E332E442E552E662E772E882E992ED1
:10538000A22CB32CC42CD52CE62CF72C082D192DCF
:105390002A2D3B2D4C2D5D2D6E2D7F2D802F912F95
:1053A0000F2EF4EBAF2EF02DBB24CC24DD24EE2405
:1053B000FF2400E010E00E94F400A22EB32EC42EC1
:1053C000D52EE62EF72E082F192F2A2D3B2D4C2DEA
:1053D0005D2D6E2D7F2D802F912FC90189519C4FFE
:1053E0009A83898389819A810E944036CF5ADF4F00
:1053F0000FB6F894DEBF0FBECDBFCF91DF911F91E6
:105400000F91FF90EF90DF90CF90BF90AF909F9063
:105410008F907F906F905F904F903F902F90089566
:10542000DF93CF93CDB7DEB7ADE2B0E0EDE2F0E0D1
:10543000808180618C93ADE2B0E0EDE2F0E08081AC
:1054400084608C93ADE2B0E0EDE2F0E08081877F94
:105450008C93ADE2B0E0EDE2F0E0808180628C936D
:10546000ADE2B0E0EDE2F0E0808181608C93ADE2EE
:10547000B0E0EDE2F0E080818D7F8C93AEE2B0E0B1
:10548000EEE2F0E080818E7F8C93ADE2B0E0EDE261
:10549000F0E0808180648C93CF91DF910895DF9359
:1054A000CF930F92CDB7DEB78983EFE2F0E0898129
:1054B0008083EEE2F0E08081882F90E09C012F77DE
:1054C000EEE2F0E08081882F90E02817390789F319
:1054D000EFE2F0E080810F90CF91DF910895DF93AC
:1054E000CF93CDB7DEB7ADE2B0E0EDE2F0E0808182
:1054F00080688C93CF91DF910895DF93CF93CDB7E0
:10550000DEB7ADE2B0E0EDE2F0E080818F778C9322
:10551000CF91DF910895DF93CF9300D0CDB7DEB761
:105520009A83898389819A819093AE018093AD019A
:105530000F900F90CF91DF9108951F920F920FB6A9
:105540000F9211242F933F934F935F936F937F9309
:105550008F939F93AF93BF93EF93FF93DF93CF937B
:10556000CDB7DEB78091AD019091AE01009729F0E3
:10557000E091AD01F091AE010995CF91DF91FF91DE
:10558000EF91BF91AF919F918F917F916F915F91BB
:105590004F913F912F910F900FBE0F901F90189534
:1055A000DF93CF9300D000D0CDB7DEB789836A8375
:1055B0008981282F30E03C832B838B819C818B3524
:1055C000910509F44CC02B813C812C353105E4F464
:1055D0008B819C818730910509F45AC02B813C81D5
:1055E0002830310534F48B819C818630910591F10E
:1055F0005DC02B813C812F33310539F18B819C813A
:105600008F34910589F152C02B813C812F363105B1
:1056100009F448C08B819C81803791055CF42B8113
:105620003C812636310529F18B819C818D3691058F
:1056300029F13CC02B813C812D37310521F18B8133
:105640009C818F37910549F131C08A816FE30E94B7
:1056500040122CC08A8166E00E94401227C08A81D5
:105660006BE50E94401222C08A816FE40E944012C2
:105670001DC08A8166E60E94401218C08A816DE6CC
:105680000E94401213C08A816DE70E9440120EC032
:105690008A8167E00E94401209C08A816FE70E94F8
:1056A000401204C08A816FE60E9440120F900F9052
:1056B0000F900F90CF91DF910895DF93CF93CDB7E7
:1056C000DEB76F970FB6F894DEBF0FBECDBF8A8FDF
:1056D000CE0140969C8F8B8FEFE8F1E0FE8FED8F2F
:1056E000FAE0FF8FED8DFE8D00808D8D9E8D0196F1
:1056F0009E8F8D8FEB8DFC8D00828B8D9C8D019606
:105700009C8F8B8F9F8D91509F8FEF8DEE2351F744
:105710001F8681C08F85282F30E0CE014096FC0186
:10572000E20FF31F80816A8D0E94D02A80E090E012
:10573000AAE7B4E48B879C87AD87BE876B857C85A1
:105740008D859E8520E030E04AEF54E40E941309E5
:10575000DC01CB018F839887A987BA876F81788511
:1057600089859A8520E030E040E85FE30E94190BCC
:1057700088232CF481E090E09E838D833FC06F816D
:10578000788589859A8520E03FEF4FE757E40E94AE
:10579000B90A18164CF56B857C858D859E8520E0B1
:1057A00030E040E251E40E941309DC01CB01BC016E
:1057B000CD010E94C800DC01CB019E838D830FC008
:1057C00088EC90E09C838B838B819C810197F1F71F
:1057D0009C838B838D819E8101979E838D838D8198
:1057E0009E81009769F714C06F81788589859A85B5
:1057F0000E94C800DC01CB019E838D838D819E8138
:105800009A83898389819A810197F1F79A838983A1
:105810008F858F5F8F878F858A3008F47BCF6F9657
:105820000FB6F894DEBF0FBECDBFCF91DF910895C4
:10583000DF93CF93CDB7DEB76F970FB6F894DEBF87
:105840000FBECDBF8A8FCE0140969C8F8B8FE9E92A
:10585000F1E0FE8FED8FFAE0FF8FED8DFE8D008081
:105860008D8D9E8D01969E8F8D8FEB8DFC8D008290
:105870008B8D9C8D01969C8F8B8F9F8D91509F8FD0
:10588000EF8DEE2351F789E08F878F85282F30E049
:10589000CE014096FC01E20FF31F80816A8D0E94C9
:1058A000D02A80E090E0AAE7B4E48B879C87AD879C
:1058B000BE876B857C858D859E8520E030E04AEF34
:1058C00054E40E941309DC01CB018F839887A987D8
:1058D000BA876F81788589859A8520E030E040E835
:1058E0005FE30E94190B88232CF481E090E09E83F3
:1058F0008D833FC06F81788589859A8520E03FEF51
:105900004FE757E40E94B90A18164CF56B857C8561
:105910008D859E8520E030E040E251E40E9413092D
:10592000DC01CB01BC01CD010E94C800DC01CB0130
:105930009E838D830FC088EC90E09C838B838B814A
:105940009C810197F1F79C838B838D819E810197C8
:105950009E838D838D819E81009769F714C06F812E
:10596000788589859A850E94C800DC01CB019E83D9
:105970008D838D819E819A83898389819A81019704
:10598000F1F79A8389838F8581508F877ECFDF934C
:10599000CF93CDB7DEB7E8970FB6F894DEBF0FBE52
:1059A000CDBF80E060E041E00E94141080E061E043
:1059B00040E00E94141080E062E041E00E94141078
:1059C00080E063E041E00E94141080E090E0A0E2FB
:1059D000B1E48DAB9EABAFABB8AF6DA97EA98FA97B
:1059E00098AD20E030E04AEF54E40E941309DC0156
:1059F000CB0189AB9AABABABBCAB69A97AA98BA93C
:105A00009CA920E030E040E85FE30E94190B882366
:105A10002CF481E090E098AB8FA73FC069A97AA9E8
:105A20008BA99CA920E03FEF4FE757E40E94B90AF9
:105A300018164CF56DA97EA98FA998AD20E030E02D
:105A400040E251E40E941309DC01CB01BC01CD010D
:105A50000E94C800DC01CB0198AB8FA70FC088EC77
:105A600090E09EA78DA78DA59EA50197F1F79EA713
:105A70008DA78FA598A9019798AB8FA78FA598A9F7
:105A8000009769F714C069A97AA98BA99CA90E94FB
:105A9000C800DC01CB0198AB8FA78FA598A99CA764
:105AA0008BA78BA59CA50197F1F79CA78BA780E0FE
:105AB00060E041E00E94141080E061E041E00E945B
:105AC000141080E062E040E00E94141080E063E087
:105AD00041E00E94141080E090E0A0E2B1E48FA3C6
