:100000000C942A000C94FB0C0C942E0D0C94610D96
:100010000C9447000C9447000C9447000C94A72EB6
:100020000C9447000C9447000C9477260C944426BB
:100030000C9447000C9447000C9447000C94470024
:100040000C94E6060C9447000C9447000C9447006F
:100050000C94470011241FBECFE5D8E0DEBFCDBF12
:1000600010E0A0E6B0E0E4E0F5E702C005900D92F4
:10007000AC39B107D9F717E0ACE9B0E001C01D9287
:10008000A933B107E1F70E94AA260C94803A0C9498
:100090000000EF92FF920F931F937B018C0120E0F1
:1000A00030E040E05FE40E94F50388238CF0C80153
:1000B000B70120E030E040E05FE40E94C1010E940F
:1000C00055049B01AC01205030404040504806C0D0
:1000D000C801B7010E9455049B01AC01B901CA01D6
:1000E0001F910F91FF90EF900895A0E0B0E0EBE733
:1000F000F0E00C942A3ADC012B01FA019C91923039
:1001000008F439C1EB018881823008F433C194309E
:1001100069F4843009F02FC111969C91119789815F
:10012000981709F428C1A5E6B0E025C1843009F488
:1001300021C18230A9F4923009F01DC19A01AD01AC
:1001400088E0EA010990AE01E90109929E0181501F
:10015000C1F7E201898111969C918923818308C1AD
:10016000923009F407C112962D903C901397EB0141
:100170008A819B811496AD90BD90CD90DC901797AD
:10018000EC80FD800E811F819101281B390BB90184
:1001900037FF04C066277727621B730B6032710537
:1001A0000CF061C0121613066CF537014801062EDB
:1001B00004C096948794779467940A94D2F721E0C8
:1001C00030E040E050E004C0220F331F441F551FB1
:1001D0006A95D2F721503040404050402E213F21B7
:1001E00040235123211531054105510521F021E01E
:1001F00030E040E050E079018A01E628F72808293C
:1002000019293CC0232BD1F1260E371E350146019A
:10021000062E04C096948794779467940A94D2F734
:1002200021E030E040E050E004C0220F331F441FC3
:10023000551F6A95D2F721503040404050402A2146
:100240003B214C215D21211531054105510521F04E
:1002500021E030E040E050E059016A01A628B728CB
:10026000C828D9280BC0821593052CF01C01AA249C
:10027000BB24650103C0EE24FF24870111969C91E5
:10028000D20111968C91981709F445C0992339F041
:10029000A80197012A193B094C095D0906C0A6016E
:1002A00095012E193F09400B510B57FD08C01182D3
:1002B0003382228224833583468357831DC081E0A5
:1002C00081833382228288279927DC01821B930B4A
:1002D000A40BB50B84839583A683B7830DC0220F2F
:1002E000331F441F551F24833583468357838281E0
:1002F000938101979383828324813581468157813D
:10030000DA01C9010197A109B1098F5F9F4FAF4F72
:10031000BF4328F30BC0918333822282EA0CFB1C7B
:100320000C1D1D1DE482F5820683178383E0808304
:10033000248135814681578157FF1AC0C901AA27F8
:1003400097FDA095BA2F81709070A070B0705695EF
:10035000479537952795822B932BA42BB52B848318
:100360009583A683B7838281938101969383828349
:10037000DF0101C0D201CD01CDB7DEB7E2E10C94BF
:10038000463AA0E2B0E0E7ECF1E00C94363A69833B
:100390007A838B839C832D833E834F835887E9E048
:1003A000EE2EF12CEC0EFD1ECE010196B7010E943F
:1003B0007E058E010F5E1F4FCE010596B8010E948B
:1003C0007E058A8991E089278A8BC701B801AE0131
:1003D000475E5F4F0E9475000E94A904A096E6E068
:1003E0000C94523AA0E2B0E0E8EFF1E00C94363A17
:1003F00069837A838B839C832D833E834F835887C5
:10040000F9E0EF2EF12CEC0EFD1ECE010196B701A6
:100410000E947E058E010F5E1F4FCE010596B8012A
:100420000E947E05C701B801AE01475E5F4F0E9482
:1004300075000E94A904A096E6E00C94523AA0E24E
:10044000B0E0E5E2F2E00C942A3A69837A838B8388
:100450009C832D833E834F835887CE010196BE0136
:10046000675F7F4F0E947E05CE010596BE016F5EDD
:100470007F4F0E947E059985923088F0898982306D
:10048000C8F0943019F4823051F404C0843029F457
:10049000923081F485E690E0C6C0923049F420E0C5
:1004A0009A858A89981321E02A87CE010996BBC0D4
:1004B000823049F420E09A858A89981321E02A8BBA
:1004C000CE014196B0C02D843E844F8458886D88FB
:1004D0007E888F88988CEE24FF248701AA24BB2471
:1004E000650140E050E060E070E0E0E0F0E0C10174
:1004F00081709070892BE9F0E60CF71C081D191D1E
:100500009A01AB012A0D3B1D4C1D5D1D80E090E062
:10051000A0E0B0E0E614F7040805190520F481E036
:1005200090E0A0E0B0E0BA01A901480F591F6A1F8E
:100530007B1FAA0CBB1CCC1CDD1C97FE08C081E0F5
:1005400090E0A0E0B0E0A82AB92ACA2ADB2A3196B6
:10055000E032F10549F0660C771C881C991C569412
:10056000479437942794C3CFFA85EA892B893C892D
:100570008B859C85280F391F2E5F3F4F17C0CA01FE
:1005800081709070892B61F016950795F794E79428
:1005900080E090E0A0E0B0E8E82AF92A0A2B1B2BC3
:1005A00076956795579547952F5F3F4F77FDE7CF36
:1005B0000CC0440F551F661F771F17FD4160EE0CDE
:1005C000FF1C001F111F21503040403090E05907A0
:1005D00090E0690790E4790760F32B8F3C8FDB0193
:1005E000CA018F779070A070B07080349105A1051A
:1005F000B10561F447FD0AC0E114F10401051105DC
:1006000029F0405C5F4F6F4F7F4F40781A8EFE1786
:1006100011F081E08A8F4D8F5E8F6F8F78A383E01A
:10062000898FCE0149960E94A904A096E2E10C941C
:10063000463AA8E1B0E0EFE1F3E00C94323A698386
:100640007A838B839C832D833E834F835887B9E0C5
:10065000EB2EF12CEC0EFD1ECE010196B7010E948F
:100660007E058E010F5E1F4FCE010596B8010E94D8
:100670007E052985223008F47EC03989323010F495
:10068000B8017CC08A859A8989278A87243011F02D
:10069000223031F4231709F06EC065E670E06EC0B9
:1006A000343039F41D861E861F86188A1C861B86E8
:1006B00004C0323021F484E08987B7015FC02B8504
:1006C0003C858B899C89281B390B3C872B87ED84C3
:1006D000FE840F851889AD88BE88CF88D88CEA142F
:1006E000FB040C051D0540F4EE0CFF1C001F111F40
:1006F000215030403C872B8720E030E040E050E044
:1007000080E090E0A0E0B0E460E070E0EA14FB0478
:100710000C051D0540F0282B392B4A2B5B2BEA18C2
:10072000FB080C091D09B695A79597958795EE0CC2
:10073000FF1C001F111F6F5F7F4F6F31710531F775
:10074000DA01C9018F779070A070B0708034910584
:10075000A105B10561F427FD0AC0E114F10401050A
:10076000110529F0205C3F4F4F4F5F4F20782D87B8
:100770003E874F87588BBE01675F7F4FCB010E943A
:10078000A9046896EAE00C944E3AA8E1B0E0EBECDC
:10079000F3E00C94363A69837A838B839C832D83B0
:1007A0003E834F83588789E0E82EF12CEC0EFD1E26
:1007B000CE010196B7010E947E058E010F5E1F4F8C
:1007C000CE010596B8010E947E058985823040F0F1
:1007D0008989823028F0C701B8010E94F60501C05E
:1007E0008FEF6896E6E00C94523AA8E1B0E0EBEFA8
:1007F000F3E00C94363A69837A838B839C832D8350
:100800003E834F83588789E0E82EF12CEC0EFD1EC5
:10081000CE010196B7010E947E058E010F5E1F4F2B
:10082000CE010596B8010E947E058985823040F090
:100830008989823028F0C701B8010E94F60501C0FD
:100840008FEF6896E6E00C94523AA8E1B0E0EBE254
:10085000F4E00C94363A69837A838B839C832D83EE
:100860003E834F83588789E0E82EF12CEC0EFD1E65
:10087000CE010196B7010E947E058E010F5E1F4FCB
:10088000CE010596B8010E947E058985823040F030
:100890008989823028F0C701B8010E94F60501C09D
:1008A00081E06896E6E00C94523AACE0B0E0EBE50B
:1008B000F4E00C943A3A69837A838B839C83CE016B
:1008C0000196BE016B5F7F4F0E947E058D81823055
:1008D00061F1823050F1843021F48E81882351F10E
:1008E0002EC02F81388537FD20C06E812F31310514
:1008F0001CF06623F9F023C08EE190E0821B930B7D
:1009000029853A854B855C8504C056954795379572
:1009100027958A95D2F76623B1F05095409530958A
:1009200021953F4F4F4F5F4F0EC020E030E040E039
:1009300050E009C02FEF3FEF4FEF5FE704C020E02A
:1009400030E040E050E8B901CA012C96E2E00C9496
:10095000563ADF92EF92FF920F931F93FC01E480CF
:10096000F58006811781D1808081823048F480E053
:1009700090E0A0E1B0E0E82AF92A0A2B1B2BA5C0E1
:10098000843009F49FC0823021F4EE24FF248701D3
:1009900005C0E114F1040105110519F4E0E0F0E0EF
:1009A00096C0628173819FEF623879070CF05BC05B
:1009B00022E83FEF261B370B2A3131052CF020E0CF
:1009C00030E040E050E02AC0B801A701022E04C088
:1009D00076956795579547950A94D2F781E090E010
:1009E000A0E0B0E004C0880F991FAA1FBB1F2A9582
:1009F000D2F70197A109B1098E219F21A023B1232C
:100A00000097A105B10521F081E090E0A0E0B0E001
:100A10009A01AB01282B392B4A2B5B2BDA01C90138
:100A20008F779070A070B07080349105A105B105EA
:100A300039F427FF09C0205C3F4F4F4F5F4F04C080
:100A4000215C3F4F4F4F5F4FE0E0F0E02030A0E0EF
:100A50003A07A0E04A07A0E45A0710F0E1E0F0E00E
:100A600079018A0127C06038710564F5FB01E158FE
:100A7000FF4FD801C7018F779070A070B07080349D
:100A80009105A105B10539F4E7FE0DC080E490E0C1
:100A9000A0E0B0E004C08FE390E0A0E0B0E0E80E9A
:100AA000F91E0A1F1B1F17FF05C016950795F7941F
:100AB000E794319687E016950795F794E7948A9521
:100AC000D1F705C0EE24FF248701EFEFF0E06E2F91
:100AD000679566276795902F9F77D794DD24D794E5
:100AE0008E2F8695492F462B582F5D29B701CA01B5
:100AF0001F910F91FF90EF90DF900895FC01DB01B3
:100B0000408151812281622F6F7770E0221F22275E
:100B1000221F9381892F880F822B282F30E0991F65
:100B20009927991F11969C93119721153105A9F5C5
:100B3000411551056105710511F482E037C082E865
:100B40009FEF13969C938E9312979A01AB0167E0E7
:100B5000220F331F441F551F6A95D1F783E08C93F2
:100B60000DC0220F331F441F551F12968D919C916B
:100B70001397019713969C938E931297203080E0E1
:100B8000380780E0480780E4580758F314962D93FF
:100B90003D934D935C93179708952F3F310579F45A
:100BA000411551056105710519F484E08C93089590
:100BB00064FF03C081E08C9312C01C9210C02F57B9
:100BC000304013963C932E93129783E08C9387E0EA
:100BD000440F551F661F771F8A95D1F770641496CE
:100BE0004D935D936D937C93179708951F93DC014C
:100BF000FB019C91923008F447C08081823008F458
:100C000043C0943051F411961C91843099F5818140
:100C1000682F70E0611B71093FC0843021F0923071
:100C200031F48230B9F18181882389F12DC0119688
:100C30001C9111978230F1F081811817D9F4129626
:100C40002D913C911397828193818217930794F0A1
:100C500028173907BCF014968D919D910D90BC9189
:100C6000A02D2481358146815781281739074A07ED
:100C70005B0718F4112341F00AC082179307A407F9
:100C8000B50740F4112319F061E070E005C06FEF83
:100C90007FEF02C060E070E0CB011F910895DF9309
:100CA000CF93CDB7DEB7A7E2B0E0E7E2F0E0808116
:100CB0008F738C93A7E2B0E0E7E2F0E0808180647C
:100CC0008C93A7E2B0E0E7E2F0E080818F7D8C9327
:100CD000A6E2B0E0E6E2F0E0808180688C93A6E2D4
:100CE000B0E0E6E2F0E080818F7D8C93A6E2B0E098
:100CF000E6E2F0E08081877F8C93A6E2B0E0E6E256
:100D0000F0E08081887F8C93A6E2B0E0E6E2F0E03C
:100D1000808186608C93CF91DF910895DF93CF938C
:100D200000D00F92CDB7DEB78B831A8219828B81E8
:100D3000813290F5A7E2B0E0E7E2F0E08081807ECA
:100D40008C93A7E2B0E0E7E2F0E090818B81892B01
:100D50008C93A6E2B0E0E6E2F0E0808180648C93C0
:100D6000E6E2F0E08081882F90E09C012F7EE6E2B1
:100D7000F0E08081882F90E02817390789F3A6E2F8
:100D8000B0E0E6E2F0E0808180618C93E4E2F0E0A4
:100D9000808191819A83898389819A810F900F90B4
:100DA0000F90CF91DF910895DF93CF9300D0CDB70F
:100DB000DEB79A83898389819A8190939D0080937D
:100DC0009C000F900F90CF91DF9108951F920F928A
:100DD0000FB60F9211242F933F934F935F936F930E
:100DE0007F938F939F93AF93BF93EF93FF93DF9383
:100DF000CF93CDB7DEB780919C0090919D00009776
:100E000029F0E0919C00F0919D000995CF91DF9130
:100E1000FF91EF91BF91AF919F918F917F916F91D2
:100E20005F914F913F912F910F900FBE0F901F90A8
:100E30001895DF93CF93CDB7DEB76C970FB6F894C4
:100E4000DEBF0FBECDBF80E060E041E00E94FB0846
:100E500080E061E040E00E94FB0880E090E0AAE7CB
:100E6000B4E4898F9A8FAB8FBC8F698D7A8D8B8D0F
:100E70009C8D20E030E04AEF54E40E941F02DC0128
:100E8000CB018D8B9E8BAF8BB88F6D897E898F89BF
:100E9000988D20E030E040E85FE30E94250488233D
:100EA0002CF481E090E09C8B8B8B3FC06D897E8918
:100EB0008F89988D20E03FEF4FE757E40E94C503EC
:100EC00018164CF5698D7A8D8B8D9C8D20E030E065
:100ED00040E251E40E941F02DC01CB01BC01CD01C4
:100EE0000E944900DC01CB019C8B8B8B0FC088ECEE
:100EF00090E09A8B898B89899A890197F1F79A8B6F
:100F0000898B8B899C8901979C8B8B8B8B899C8986
:100F1000009769F714C06D897E898F89988D0E942A
:100F20004900DC01CB019C8B8B8B8B899C89988B36
:100F30008F878F8598890197F1F7988B8F8780E04D
:100F400060E040E00E94FB0880E061E041E00E9438
:100F5000FB0880E090E0AAE7B4E48B879C87AD872C
:100F6000BE876B857C858D859E8520E030E04AEFCD
:100F700054E40E941F02DC01CB018F839887A9876C
:100F8000BA876F81788589859A8520E030E040E8CE
:100F90005FE30E94250488232CF481E090E09E8387
:100FA0008D833FC06F81788589859A8520E03FEFEA
:100FB0004FE757E40E94C50318164CF56B857C85F6
:100FC0008D859E8520E030E040E251E40E941F02C2
:100FD000DC01CB01BC01CD010E944900DC01CB0149
:100FE0009E838D830FC088EC90E09C838B838B81E4
:100FF0009C810197F1F79C838B838D819E81019762
:101000009E838D838D819E81009769F714C06F81C7
:10101000788589859A850E944900DC01CB019E83F1
:101020008D838D819E819A83898389819A8101979D
:10103000F1F79A8389836C960FB6F894DEBF0FBEE2
:10104000CDBFCF91DF910895DF93CF93CDB7DEB7BA
:10105000EBE3F0E01082E8E3F0E01082E5E3F0E09B
:101060001082E2E3F0E01082EAE3F0E08FEF8083A9
:10107000E7E3F0E08FEF8083E4E3F0E08FEF80833D
:10108000E1E3F0E08FEF8083CF91DF910895DF936C
:10109000CF9300D000D00F92CDB7DEB78A836B8399
:1010A0008A81282F30E03D832C838C819D81813083
:1010B0009105C1F12C813D81223031052CF48C81C8
:1010C0009D81009771F08EC02C813D8122303105C9
:1010D00009F449C08C819D818330910509F463C076
:1010E00081C0E9E3F0E08081482F50E08B81282F18
:1010F00030E081E090E002C0880F991F2A95E2F766
:10110000809590959A0128233923E9E3F0E08081C6
:10111000882F90E019822817390709F463C081E00D
:10112000898360C0E6E3F0E08081482F50E08B8146
:10113000282F30E081E090E002C0880F991F2A95A7
:10114000E2F7809590959A0128233923E6E3F0E0B1
:101150008081882F90E019822817390709F442C04E
:1011600081E089833FC0E3E3F0E08081482F50E0D5
:101170008B81282F30E081E090E002C0880F991F1A
:101180002A95E2F7809590959A0128233923E3E385
:10119000F0E08081882F90E019822817390711F13B
:1011A00081E089831FC0E0E3F0E08081482F50E0B8
:1011B0008B81282F30E081E090E002C0880F991FDA
:1011C0002A95E2F7809590959A0128233923E0E348
:1011D000F0E08081882F90E019822817390711F0FC
:1011E00081E0898389810F900F900F900F900F906D
:1011F000CF91DF910895DF93CF93CDB7DEB72D97D1
:101200000FB6F894DEBF0FBECDBF89836A834B83D0
:101210008981282F30E03D872C878C859D85813002
:10122000910509F44FC02C853D85223031052CF401
:101230008C859D85009771F0EBC02C853D85223013
:10124000310509F477C08C859D858330910509F4BB
:10125000A9C0DEC08B81282F30E03B872A878A8592
:101260009B850097D1F02A853B852130310509F017
:10127000CFC0ABE3B0E0EBE3F0E08081482F8A81A0
:10128000282F30E081E090E0022E02C0880F991FE5
:101290000A94E2F7842B8C93BBC0ABE3B0E0EBE3A2
:1012A000F0E08081482F8A81282F30E081E090E0B3
:1012B000022E02C0880F991F0A94E2F780958423BA
:1012C0008C93A6C08B81282F30E0398728878885AA
:1012D00099850097D1F0288539852130310509F0AD
:1012E00097C0A8E3B0E0E8E3F0E08081482F8A816E
:1012F000282F30E081E090E0022E02C0880F991F75
:101300000A94E2F7842B8C9383C0A8E3B0E0E8E36F
:10131000F0E08081482F8A81282F30E081E090E042
:10132000022E02C0880F991F0A94E2F78095842349
:101330008C936EC08B81282F30E03F832E838E816B
:101340009F810097D1F02E813F812130310509F036
:101350005FC0A5E3B0E0E5E3F0E08081482F8A813B
:10136000282F30E081E090E0022E02C0880F991F04
:101370000A94E2F7842B8C934BC0A5E3B0E0E5E33D
:10138000F0E08081482F8A81282F30E081E090E0D2
:10139000022E02C0880F991F0A94E2F780958423D9
:1013A0008C9336C08B81282F30E03D832C838C8139
:1013B0009D810097C9F02C813D812130310541F597
:1013C000A2E3B0E0E2E3F0E08081482F8A81282F99
:1013D00030E081E090E0022E02C0880F991F0A944D
:1013E000E2F7842B8C9314C0A2E3B0E0E2E3F0E0D8
:1013F0008081482F8A81282F30E081E090E0022E02
:1014000002C0880F991F0A94E2F7809584238C9379
:101410002D960FB6F894DEBF0FBECDBFCF91DF91F2
:101420000895DF93CF93CDB7DEB72D970FB6F8941D
:10143000DEBF0FBECDBF89836A834B838981282F8E
:1014400030E03D872C878C859D858130910509F49E
:101450004FC02C853D85223031052CF48C859D852F
:10146000009771F0EBC02C853D852230310509F4E1
:1014700077C08C859D858330910509F4A9C0DEC0B5
:101480008B81282F30E03B872A878A859B850097B0
:10149000D1F02A853B852130310509F0CFC0AAE380
:1014A000B0E0EAE3F0E08081482F8A81282F30E025
:1014B00081E090E0022E02C0880F991F0A94E2F7A3
:1014C000842B8C93BBC0AAE3B0E0EAE3F0E0808118
:1014D000482F8A81282F30E081E090E0022E02C060
:1014E000880F991F0A94E2F7809584238C93A6C0F5
:1014F0008B81282F30E03987288788859985009748
:10150000D1F0288539852130310509F097C0A7E34E
:10151000B0E0E7E3F0E08081482F8A81282F30E0B7
:1015200081E090E0022E02C0880F991F0A94E2F732
:10153000842B8C9383C0A7E3B0E0E7E3F0E08081E5
:10154000482F8A81282F30E081E090E0022E02C0EF
:10155000880F991F0A94E2F7809584238C936EC0BC
:101560008B81282F30E03F832E838E819F810097CF
:10157000D1F02E813F812130310509F05FC0A4E315
:10158000B0E0E4E3F0E08081482F8A81282F30E04A
:1015900081E090E0022E02C0880F991F0A94E2F7C2
:1015A000842B8C934BC0A4E3B0E0E4E3F0E08081B3
:1015B000482F8A81282F30E081E090E0022E02C07F
:1015C000880F991F0A94E2F7809584238C9336C084
:1015D0008B81282F30E03D832C838C819D81009767
:1015E000C9F02C813D812130310541F5A1E3B0E006
:1015F000E1E3F0E08081482F8A81282F30E081E00C
:1016000090E0022E02C0880F991F0A94E2F7842B03
:101610008C9314C0A1E3B0E0E1E3F0E08081482FB7
:101620008A81282F30E081E090E0022E02C0880FEE
:10163000991F0A94E2F7809584238C932D960FB618
:10164000F894DEBF0FBECDBFCF91DF910895DF9339
:10165000CF9300D000D0CDB7DEB789836A8389816C
:10166000282F30E03C832B838B819C818130910536
:10167000D1F02B813C81223031052CF48B819C816F
:10168000009761F01EC02B813C812230310581F032
:101690008B819C818330910581F013C0EBE3F0E0F6
:1016A0008A8180830EC0E8E3F0E08A81808309C0EC
:1016B000E5E3F0E08A81808304C0E2E3F0E08A8120
:1016C00080830F900F900F900F90CF91DF9108952E
:1016D000DF93CF9300D000D0CDB7DEB789836A8384
:1016E0008981282F30E03C832B838B819C81813042
:1016F0009105D1F02B813C81223031052CF48B8176
:101700009C81009761F01EC02B813C812230310505
:1017100081F08B819C818330910581F013C0EAE3D5
:10172000F0E08A8180830EC0E7E3F0E08A81808365
:1017300009C0E4E3F0E08A81808304C0E1E3F0E0E3
:101740008A8180830F900F900F900F90CF91DF913F
:101750000895DF93CF9300D000D000D0CDB7DEB78F
:1017600089836A838A81843008F05AC08981282F4E
:1017700030E03E832D838D819E8181309105D1F0B3
:101780002D813E812230310561F18D819E8100974E
:1017900009F046C0A5E5B0E0E5E5F0E080818C7F8A
:1017A0008C93A5E5B0E0E5E5F0E090818A81892B96
:1017B0008C9336C0A5E5B0E0E5E5F0E08081837F5D
:1017C0008C93A5E5B0E0E5E5F0E08081282F8A81E3
:1017D000882F90E0880F991F880F991F822B8C9378
:1017E0001FC08A81282F30E03C832B838B819C8112
:1017F0008230910531F02B813C812330310549F055
:101800000FC0A4E5B0E0E4E5F0E080818F7B8C932D
:1018100007C0A4E5B0E0E4E5F0E0808180648C934B
:1018200026960FB6F894DEBF0FBECDBFCF91DF91E5
:101830000895DF93CF9300D00F92CDB7DEB78983A1
:101840008981282F30E03B832A838A819B818130E4
:10185000910589F02A813B8122303105A1F08A81EE
:101860009B810097B9F4ABE5B0E0EBE5F0E0808157
:1018700080648C930FC0ABE5B0E0EBE5F0E08081D5
:1018800080688C9307C0ABE5B0E0EBE5F0E08081C9
:1018900080628C930F900F900F90CF91DF910895FD
:1018A000DF93CF9300D00F92CDB7DEB789838981C4
:1018B000282F30E03B832A838A819B8181309105E8
:1018C00089F02A813B8122303105A1F08A819B81F8
:1018D0000097B9F4ABE5B0E0EBE5F0E080818F7BF9
:1018E0008C930FC0ABE5B0E0EBE5F0E080818F7743
:1018F0008C9307C0ABE5B0E0EBE5F0E080818F7D35
:101900008C930F900F900F90CF91DF910895DF93FC
:10191000CF9300D00F92CDB7DEB789838981282F6E
:1019200030E03B832A838A819B818130910589F055
:101930002A813B8122303105A1F08A819B81009769
:10194000B9F4AAE5B0E0EAE5F0E0808180648C9328
:101950000FC0AAE5B0E0EAE5F0E0808180688C93F2
:1019600007C0AAE5B0E0EAE5F0E0808180628C93F0
:101970000F900F900F90CF91DF910895DF93CF9349
:1019800000D000D00F92CDB7DEB789837B836A8306
:101990008A819B81009739F18981282F30E03D832E
:1019A0002C838C819D818130910581F02C813D813A
:1019B0002230310591F08C819D810097A1F48A81BC
:1019C0009B8190939F0080939E000DC08A819B8194
:1019D0009093A1008093A00006C08A819B81909380
:1019E000A3008093A2000F900F900F900F900F9084
:1019F000CF91DF9108951F920F920FB60F9211248D
:101A00002F933F934F935F936F937F938F939F9306
:101A1000AF93BF93EF93FF93DF93CF93CDB7DEB731
:101A200080919E0090919F00009729F0E0919E0088
:101A3000F0919F000995CF91DF91FF91EF91BF91B8
:101A4000AF919F918F917F916F915F914F913F9156
:101A50002F910F900FBE0F901F9018951F920F920D
:101A60000FB60F9211242F933F934F935F936F9371
:101A70007F938F939F93AF93BF93EF93FF93DF93E6
:101A8000CF93CDB7DEB78091A0009091A1000097D1
:101A900029F0E091A000F091A1000995CF91DF918C
:101AA000FF91EF91BF91AF919F918F917F916F9136
:101AB0005F914F913F912F910F900FBE0F901F900C
:101AC00018951F920F920FB60F9211242F933F93E8
:101AD0004F935F936F937F938F939F93AF93BF9336
:101AE000EF93FF93DF93CF93CDB7DEB78091A20042
:101AF0009091A300009729F0E091A200F091A3003B
:101B00000995CF91DF91FF91EF91BF91AF919F9197
:101B10008F917F916F915F914F913F912F910F9096
:101B20000FBE0F901F901895DF93CF93CDB7DEB700
:101B3000AFE5B0E0EFE5F0E0808180688C93CF9175
:101B4000DF910895DF93CF93CDB7DEB7AFE5B0E077
:101B5000EFE5F0E080818F778C93CF91DF9108954E
:101B6000DF93CF93CDB7DEB762970FB6F894DEBFA1
:101B70000FBECDBF188A8FEF8F871A8AC9C08A8996
:101B8000882F90E0FC01E358FF4F908180E0692F9F
:101B900040E00E94FB08198AA5C08989882F90E03F
:101BA000FC01EF57FF4F908180E0692F0E944708AA
:101BB000882309F094C080E090E0A6E1B3E48B872D
:101BC0009C87AD87BE876B857C858D859E8520E053
:101BD00030E04AEF54E40E941F02DC01CB018F8306
:101BE0009887A987BA876F81788589859A8520E04B
:101BF00030E040E85FE30E94250488232CF481E074
:101C000090E09E838D833FC06F81788589859A851A
:101C100020E03FEF4FE757E40E94C50318164CF54C
:101C20006B857C858D859E8520E030E040E251E427
:101C30000E941F02DC01CB01BC01CD010E944900C2
:101C4000DC01CB019E838D830FC088EC90E09C83E8
:101C50008B838B819C810197F1F79C838B838D8192
:101C60009E8101979E838D838D819E81009769F768
:101C700014C06F81788589859A850E944900DC01AE
:101C8000CB019E838D838D819E819A8389838981F7
:101C90009A810197F1F79A83898381E0888B8989FA
:101CA000882F90E0FC01EF57FF4F908180E0692F73
:101CB0000E944708882399F38A89482F50E0898930
:101CC000282F30E0CA01880F991F880F991F820FB3
:101CD000931FFC01E359FF4F80818F8707C08989DB
:101CE0008F5F898B8989843008F457CF8A89882F40
:101CF00090E0FC01E358FF4F908180E0692F41E0C4
:101D00000E94FB088889882339F48A898F5F8A8B2F
:101D10008A89843008F433CF8F8562960FB6F894A1
:101D2000DEBF0FBECDBFCF91DF910895DF93CF937C
:101D3000CDB7DEB7AB970FB6F894DEBF0FBECDBF01
:101D40008BA782E060E040E00E94FB0882E061E057
:101D500040E00E94FB0883E06BA50E94270B82E015
:101D600062E041E00E94FB0880E090E0A0E8BFE371
:101D70008FA398A7A9A7BAA76FA178A589A59AA5A7
:101D800020E030E04AEF54E40E941F02DC01CB0166
:101D90008BA39CA3ADA3BEA36BA17CA18DA19EA18F
:101DA00020E030E040E85FE30E94250488232CF423
:101DB00081E090E09AA389A33FC06BA17CA18DA193
:101DC0009EA120E03FEF4FE757E40E94C50318169D
:101DD0004CF56FA178A589A59AA520E030E040E2F6
:101DE00051E40E941F02DC01CB01BC01CD010E9425
:101DF0004900DC01CB019AA389A30FC088EC90E0D5
:101E000098A38F8F8F8D98A10197F1F798A38F8F4B
:101E100089A19AA101979AA389A389A19AA1009760
:101E200069F714C06BA17CA18DA19EA10E944900FD
:101E3000DC01CB019AA389A389A19AA19E8F8D8FE2
:101E40008D8D9E8D0197F1F79E8F8D8F82E062E0E0
:101E500040E00E94FB088091A400882309F484C01C
:101E60008BA5982F9295907F83E0692F0E94270B76
:101E700082E062E041E00E94FB0880E090E0A0E8A0
:101E8000BFE3898F9A8FAB8FBC8F698D7A8D8B8DD5
:101E90009C8D20E030E04AEF54E40E941F02DC01F8
:101EA000CB018D8B9E8BAF8BB88F6D897E898F898F
:101EB000988D20E030E040E85FE30E94250488230D
:101EC0002CF481E090E09C8B8B8B3FC06D897E89E8
:101ED0008F89988D20E03FEF4FE757E40E94C503BC
:101EE00018164CF5698D7A8D8B8D9C8D20E030E035
:101EF00040E251E40E941F02DC01CB01BC01CD0194
:101F00000E944900DC01CB019C8B8B8B0FC088ECBD
:101F100090E09A8B898B89899A890197F1F79A8B3E
:101F2000898B8B899C8901979C8B8B8B8B899C8956
:101F3000009769F714C06D897E898F89988D0E94FA
:101F40004900DC01CB019C8B8B8B8B899C89988B06
:101F50008F878F8598890197F1F7988B8F8782E01B
:101F600062E040E00E94FB0880E090E0A0E0B0E486
:101F70008B879C87AD87BE876B857C858D859E858D
:101F800020E030E04AEF54E40E941F02DC01CB0164
:101F90008F839887A987BA876F81788589859A8585
:101FA00020E030E040E85FE30E94250488232CF421
:101FB00081E090E09E838D833FC06F817885898525
:101FC0009A8520E03FEF4FE757E40E94C5031816BB
:101FD0004CF56B857C858D859E8520E030E040E268
:101FE00051E40E941F02DC01CB01BC01CD010E9423
:101FF0004900DC01CB019E838D830FC088EC90E00B
:102000009C838B838B819C810197F1F79C838B83CD
:102010008D819E8101979E838D838D819E81009706
:1020200069F714C06F81788589859A850E94490077
:10203000DC01CB019E838D838D819E819A83898370
:1020400089819A810197F1F79A838983AB960FB6BC
:10205000F894DEBF0FBECDBFCF91DF910895DF931F
:10206000CF93CDB7DEB7AB970FB6F894DEBF0FBEF8
:10207000CDBF8BA782E060E041E00E94FB0882E0D8
:1020800061E040E00E94FB0883E06BA50E94270B03
:1020900082E062E041E00E94FB0880E090E0A0E87E
:1020A000BFE38FA398A7A9A7BAA76FA178A589A511
:1020B0009AA520E030E04AEF54E40E941F02DC01C0
:1020C000CB018BA39CA3ADA3BEA36BA17CA18DA1CF
:1020D0009EA120E030E040E85FE30E9425048823D1
:1020E0002CF481E090E09AA389A33FC06BA17CA16E
:1020F0008DA19EA120E03FEF4FE757E40E94C5036A
:1021000018164CF56FA178A589A59AA520E030E0B6
:1021100040E251E40E941F02DC01CB01BC01CD0171
:102120000E944900DC01CB019AA389A30FC088EC6F
:1021300090E098A38F8F8F8D98A10197F1F798A3C6
:102140008F8F89A19AA101979AA389A389A19AA1A6
:10215000009769F714C06BA17CA18DA19EA10E947C
:102160004900DC01CB019AA389A389A19AA19E8F82
:102170008D8F8D8D9E8D0197F1F79E8F8D8F82E0D3
:1021800062E040E00E94FB088BA5982F9295907F1B
:1021900083E0692F0E94270B82E062E041E00E9409
:1021A000FB0880E090E0A0E8BFE3898F9A8FAB8FB7
:1021B000BC8F698D7A8D8B8D9C8D20E030E04AEF4D
:1021C00054E40E941F02DC01CB018D8B9E8BAF8BF0
:1021D000B88F6D897E898F89988D20E030E040E846
:1021E0005FE30E94250488232CF481E090E09C8B1F
:1021F0008B8B3FC06D897E898F89988D20E03FEF62
:102200004FE757E40E94C50318164CF5698D7A8D87
:102210008B8D9C8D20E030E040E251E40E941F0253
:10222000DC01CB01BC01CD010E944900DC01CB01E6
:102230009C8B8B8B0FC088EC90E09A8B898B898963
:102240009A890197F1F79A8B898B8B899C890197E1
:102250009C8B8B8B8B899C89009769F714C06D8947
:102260007E898F89988D0E944900DC01CB019C8B6F
:102270008B8B8B899C89988B8F878F859889019709
:10228000F1F7988B8F8782E062E040E00E94FB08C4
:1022900080E090E0A0E0B0E48B879C87AD87BE87AC
:1022A0006B857C858D859E8520E030E04AEF54E487
:1022B0000E941F02DC01CB018F839887A987BA8710
:1022C0006F81788589859A8520E030E040E85FE37A
:1022D0000E94250488232CF481E090E09E838D8366
:1022E0003FC06F81788589859A8520E03FEF4FE771
:1022F00057E40E94C50318164CF56B857C858D85C7
:102300009E8520E030E040E251E40E941F02DC01A3
:10231000CB01BC01CD010E944900DC01CB019E83B1
:102320008D830FC088EC90E09C838B838B819C8194
:102330000197F1F79C838B838D819E8101979E830A
:102340008D838D819E81009769F714C06F81788598
:1023500089859A850E944900DC01CB019E838D838B
:102360008D819E819A83898389819A810197F1F772
:102370009A838983AB960FB6F894DEBF0FBECDBFAC
:10238000CF91DF9108950F931F93DF93CF93CDB734
:10239000DEB7CC54D0400FB6F894DEBF0FBECDBF31
:1023A000FE01E75BFF4F80E090E0A0EFB1E48083A7
:1023B0009183A283B3838E010B5B1F4FFE01E75B0A
:1023C000FF4F608171818281938120E030E04AEF8C
:1023D00054E40E941F02DC01CB01F8018083918349
:1023E000A283B383FE01EB5BFF4F60817181828129
:1023F000938120E030E040E85FE30E9425048823D9
:1024000044F4FE01ED5BFF4F81E090E09183808317
:1024100064C0FE01EB5BFF4F60817181828193811B
:1024200020E03FEF4FE757E40E94C50318160CF079
:1024300043C0FE01E75BFF4F608171818281938120
:1024400020E030E040E251E40E941F02DC01CB01B9
:102450008E010D5B1F4FBC01CD010E944900DC01C4
:10246000CB01F801918380831FC0FE01EF5BFF4F1A
:1024700088EC90E091838083FE01EF5BFF4F8081C9
:1024800091810197F1F7FE01EF5BFF4F918380830C
:10249000DE01AD5BBF4FFE01ED5BFF4F808191819F
:1024A000019711969C938E93FE01ED5BFF4F808107
:1024B00091810097D1F624C08E010D5B1F4FFE0164
:1024C000EB5BFF4F60817181828193810E944900A3
:1024D000DC01CB01F80191838083FE01ED5BFF4FAE
:1024E00080819181FE01FF9691838083FE01FF969A
:1024F000808191810197F1F7FE01FF96918380839E
:1025000080E20E94960E80E20E94960E80E80E9471
:10251000960E80E090E0A0E2B2E48BAF9CAFADAF4E
:10252000BEAF6BAD7CAD8DAD9EAD2BEA3AEA4AE213
:1025300050E40E941F02DC01CB018FAB98AFA9AF22
:10254000BAAF6FA978AD89AD9AAD20E030E040E830
:102550005FE30E94250488231CF481E08EAB91C0C8
:102560006FA978AD89AD9AAD20E030E04FE753E434
:102570000E94C50318160CF07BC06BAD7CAD8DAD11
:102580009EAD20E030E04AE754E40E941903DC01EC
:10259000CB018AAB9BABACABBDAB6AA97BA98CA9C9
:1025A0009DA920E030E04AEF54E40E941F02DC01C4
:1025B000CB018EA79FA7A8ABB9AB6EA57FA588A9B5
:1025C00099A920E030E040E85FE30E9425048823D9
:1025D0002CF481E090E09DA78CA73FC06EA57FA55D
:1025E00088A999A920E03FEF4FE757E40E94C5036F
:1025F00018164CF56AA97BA98CA99DA920E030E0AA
:1026000040E251E40E941F02DC01CB01BC01CD017C
:102610000E944900DC01CB019DA78CA70FC088EC6C
:1026200090E09BA78AA78AA59BA50197F1F79BA796
:102630008AA78CA59DA501979DA78CA78CA59DA574
:10264000009769F724C06EA57FA588A999A90E9463
:102650004900DC01CB019DA78CA78CA59DA599A75E
:1026600088A788A599A50197F1F799A788A70FC012
:102670006FA978AD89AD9AAD0E944900DC01CB010C
:102680008EAB8EA98FA38FA18A95F1F78FA380E0DF
:102690000E94960E80EC0E94960E80E090E0A0E2F0
:1026A000B2E48BA39CA3ADA3BEA36BA17CA18DA11F
:1026B0009EA12BEA3AEA4AE250E40E941F02DC01A2
:1026C000CB018F8F98A3A9A3BAA36F8D78A189A1FD
:1026D0009AA120E030E040E85FE30E9425048823CF
:1026E0001CF481E08E8F91C06F8D78A189A19AA191
:1026F00020E030E04FE753E40E94C50318160CF0C9
:102700007BC06BA17CA18DA19EA120E030E04AE7B7
:1027100054E40E941903DC01CB018A8F9B8FAC8F9C
:10272000BD8F6A8D7B8D8C8D9D8D20E030E04AEFD2
:1027300054E40E941F02DC01CB018E8B9F8BA88F7B
:10274000B98F6E897F89888D998D20E030E040E8CF
:102750005FE30E94250488232CF481E090E09D8BA8
:102760008C8B3FC06E897F89888D998D20E03FEFEB
:102770004FE757E40E94C50318164CF56A8D7B8D10
:102780008C8D9D8D20E030E040E251E40E941F02DC
:10279000DC01CB01BC01CD010E944900DC01CB0171
:1027A0009D8B8C8B0FC088EC90E09B8B8A8B8A89E9
:1027B0009B890197F1F79B8B8A8B8C899D89019767
:1027C0009D8B8C8B8C899D89009769F724C06E89BD
:1027D0007F89888D998D0E944900DC01CB019D8BFA
:1027E0008C8B8C899D89998B888B88899989019795
:1027F000F1F7998B888B0FC06F8D78A189A19AA171
:102800000E944900DC01CB018E8F8E8D8F878F85D2
:102810008A95F1F78F8780E00E94960E80E10E94F2
:10282000960E80E090E0A0E0B0E48B879C87AD87B7
:10283000BE876B857C858D859E8520E030E04AEFE4
:1028400054E40E941F02DC01CB018F839887A98783
:10285000BA876F81788589859A8520E030E040E8E5
:102860005FE30E94250488232CF481E090E09E839E
:102870008D833FC06F81788589859A8520E03FEF01
:102880004FE757E40E94C50318164CF56B857C850D
:102890008D859E8520E030E040E251E40E941F02D9
:1028A000DC01CB01BC01CD010E944900DC01CB0160
:1028B0009E838D830FC088EC90E09C838B838B81FB
:1028C0009C810197F1F79C838B838D819E81019779
:1028D0009E838D838D819E81009769F714C06F81DF
:1028E000788589859A850E944900DC01CB019E8309
:1028F0008D838D819E819A83898389819A810197B5
:10290000F1F79A83898380E00E94960E80E60E9408
:10291000960E81E08093A400C45BDF4F0FB6F8945D
:10292000DEBF0FBECDBFCF91DF911F910F910895F4
:10293000DF93CF93CDB7DEB72E970FB6F894DEBFF7
:102940000FBECDBF81E00E94960E80E090E0A0E037
:10295000B0E48B879C87AD87BE876B857C858D8532
:102960009E8520E030E04AEF54E40E941F02DC0123
:10297000CB018F839887A987BA876F8178858985EE
:102980009A8520E030E040E85FE30E942504882338
:102990002CF481E090E09E838D833FC06F81788529
:1029A00089859A8520E03FEF4FE757E40E94C503F1
:1029B00018164CF56B857C858D859E8520E030E072
:1029C00040E251E40E941F02DC01CB01BC01CD01B9
:1029D0000E944900DC01CB019E838D830FC088ECEF
:1029E00090E09C838B838B819C810197F1F79C8382
:1029F0008B838D819E8101979E838D838D819E81A6
:102A0000009769F714C06F81788589859A850E943F
:102A10004900DC01CB019E838D838D819E819A8349
:102A2000898389819A810197F1F79A8389832E9608
:102A30000FB6F894DEBF0FBECDBFCF91DF910895E2
:102A4000DF93CF9300D00F92CDB7DEB79B838A83FD
:102A500019820EC08981282F30E08A819B81FC0178
:102A6000E20FF31F80810E942F1089818F5F89837D
:102A70008981282F30E08A819B81FC01E20FF31FBE
:102A80008081882339F70F900F900F90CF91DF91BD
:102A90000895DF93CF93CDB7DEB763970FB6F89461
:102AA000DEBF0FBECDBF888B698B8889282F30E0B1
:102AB0003B8B2A8B8A899B898130910531F02A8949
:102AC0003B892230310559F013C0898981508F87A5
:102AD0008F8580688F878F850E94960E09C08989AF
:102AE000815C8F878F8580688F878F850E94960E87
:102AF00080E090E0A0E8BFE38B879C87AD87BE872E
:102B00006B857C858D859E8520E030E04AEF54E41E
:102B10000E941F02DC01CB018F839887A987BA87A7
:102B20006F81788589859A8520E030E040E85FE311
:102B30000E94250488232CF481E090E09E838D83FD
:102B40003FC06F81788589859A8520E03FEF4FE708
:102B500057E40E94C50318164CF56B857C858D855E
:102B60009E8520E030E040E251E40E941F02DC013B
:102B7000CB01BC01CD010E944900DC01CB019E8349
:102B80008D830FC088EC90E09C838B838B819C812C
:102B90000197F1F79C838B838D819E8101979E83A2
:102BA0008D838D819E81009769F714C06F81788530
:102BB00089859A850E944900DC01CB019E838D8323
:102BC0008D819E819A83898389819A810197F1F70A
:102BD0009A83898363960FB6F894DEBF0FBECDBF8C
:102BE000CF91DF910895DF93CF9300D000D0CDB780
:102BF000DEB79C838B8381E090E09A8389838B810D
:102C00009C81009731F580E30E942F1022C08981BA
:102C10009A819C01220F331FC901880F991F880FC9
:102C2000991FF901E80FF91F8B819C812AE030E0A0
:102C3000B9010E94163A8E0F9F1F9A8389838B8158
:102C40009C812AE030E0B9010E94163ACB019C83B6
:102C50008B838B819C810097D1F614C089819A81E6
:102C60002AE030E0B9010E94163A805D0E942F10E0
:102C700089819A812AE030E0B9010E94163ACB019D
:102C80009A83898389819A818130910539F70F90E0
:102C90000F900F900F90CF91DF910895DF93CF9316
:102CA000CDB7DEB7AB970FB6F894DEBF0FBECDBF82
:102CB0009AA789A76BA78BA5883008F0E5C08BA5DC
:102CC000882F90E0880F991F880F991F880F991FF0
:102CD0008BA78BA580648BA78BA58F778BA78BA5E4
:102CE0000E94960E1FA2CCC08FA1282F30E089A58C
:102CF0009AA5FC01E20FF31F80810E942F1080E053
:102D000090E0A0E7B2E48BA39CA3ADA3BEA36BA10C
:102D10007CA18DA19EA12BEA3AEA4AE250E40E94EE
:102D20001F02DC01CB018F8F98A3A9A3BAA36F8DDB
:102D300078A189A19AA120E030E040E85FE30E94F9
:102D4000250488231CF481E08E8F91C06F8D78A1BB
:102D500089A19AA120E030E04FE753E40E94C50327
:102D600018160CF07BC06BA17CA18DA19EA120E068
:102D700030E04AE754E40E941903DC01CB018A8F5A
:102D80009B8FAC8FBD8F6A8D7B8D8C8D9D8D20E050
:102D900030E04AEF54E40E941F02DC01CB018E8B2D
:102DA0009F8BA88FB98F6E897F89888D998D20E040
:102DB00030E040E85FE30E94250488232CF481E0A2
:102DC00090E09D8B8C8B3FC06E897F89888D998D1B
:102DD00020E03FEF4FE757E40E94C50318164CF57B
:102DE0006A8D7B8D8C8D9D8D20E030E040E251E43A
:102DF0000E941F02DC01CB01BC01CD010E944900F1
:102E0000DC01CB019D8B8C8B0FC088EC90E09B8B01
:102E10008A8B8A899B890197F1F79B8B8A8B8C8996
:102E20009D8901979D8B8C8B8C899D89009769F773
:102E300024C06E897F89888D998D0E944900DC01AC
:102E4000CB019D8B8C8B8C899D89998B888B8889F4
:102E500099890197F1F7998B888B0FC06F8D78A1B5
:102E600089A19AA10E944900DC01CB018E8F8E8D31
:102E70008F878F858A95F1F78F878FA18F5F8FA3BB
:102E80008FA1883008F430CF82E00E94960E80E057
:102E900090E0A0E0B0E48B879C87AD87BE876B8510
:102EA0007C858D859E8520E030E04AEF54E40E94C9
:102EB0001F02DC01CB018F839887A987BA876F81B6
:102EC000788589859A8520E030E040E85FE30E94BC
:102ED000250488232CF481E090E09E838D833FC0FD
:102EE0006F81788589859A8520E03FEF4FE757E429
:102EF0000E94C50318164CF56B857C858D859E85D3
:102F000020E030E040E251E40E941F02DC01CB01EE
:102F1000BC01CD010E944900DC01CB019E838D8361
:102F20000FC088EC90E09C838B838B819C81019700
:102F3000F1F79C838B838D819E8101979E838D8386
:102F40008D819E81009769F714C06F81788589858E
:102F50009A850E944900DC01CB019E838D838D817F
:102F60009E819A83898389819A810197F1F79A8357
:102F70008983AB960FB6F894DEBF0FBECDBFCF915D
:102F8000DF910895DF93CF9300D00F92CDB7DEB7D6
:102F900089836A834B838A816B810E944915898169
:102FA0000E942F100F900F900F90CF91DF910895F6
:102FB000DF93CF93CDB7DEB72F970FB6F894DEBF70
:102FC0000FBECDBF8F8782E060E040E00E94FB082B
:102FD00082E061E040E00E94FB0883E06F850E9490
:102FE000270B82E062E041E00E94FB0880E090E075
:102FF000A0E0B0E48B879C87AD87BE876B857C851E
:103000008D859E8520E030E04AEF54E40E941F0247
:10301000DC01CB018F839887A987BA876F81788578
:1030200089859A8520E030E040E85FE30E9425042E
:1030300088232CF481E090E09E838D833FC06F81D4
:10304000788589859A8520E03FEF4FE757E40E9415
:10305000C50318164CF56B857C858D859E8520E013
:1030600030E040E251E40E941F02DC01CB01BC01D0
:10307000CD010E944900DC01CB019E838D830FC0EE
:1030800088EC90E09C838B838B819C810197F1F786
:103090009C838B838D819E8101979E838D838D81FF
:1030A0009E81009769F714C06F81788589859A851C
:1030B0000E944900DC01CB019E838D838D819E811E
:1030C0009A83898389819A810197F1F79A83898309
:1030D00082E062E040E00E94FB082F960FB6F89471
:1030E000DEBF0FBECDBFCF91DF910895DF93CF93A9
:1030F000CDB7DEB72F970FB6F894DEBF0FBECDBFAA
:103100008F8782E060E041E00E94FB0882E061E09E
:1031100040E00E94FB0883E06F850E94270B82E05D
:1031200062E041E00E94FB0880E090E0A0E0B0E4B3
:103130008B879C87AD87BE876B857C858D859E85BB
:1031400020E030E04AEF54E40E941F02DC01CB0192
:103150008F839887A987BA876F81788589859A85B3
:1031600020E030E040E85FE30E94250488232CF44F
:1031700081E090E09E838D833FC06F817885898553
:103180009A8520E03FEF4FE757E40E94C5031816E9
:103190004CF56B857C858D859E8520E030E040E296
:1031A00051E40E941F02DC01CB01BC01CD010E9451
:1031B0004900DC01CB019E838D830FC088EC90E039
:1031C0009C838B838B819C810197F1F79C838B83FC
:1031D0008D819E8101979E838D838D819E81009735
:1031E00069F714C06F81788589859A850E944900A6
:1031F000DC01CB019E838D838D819E819A8389839F
:1032000089819A810197F1F79A83898382E062E04C
:1032100040E00E94FB082F960FB6F894DEBF0FBE69
:10322000CDBFCF91DF910895DF93CF93CDB7DEB7B8
:10323000E8970FB6F894DEBF0FBECDBF80E090E0F8
:10324000A0EFB1E48DAB9EABAFABB8AF6DA97EA9DB
:103250008FA998AD20E030E04AEF54E40E941F02AD
:10326000DC01CB0189AB9AABABABBCAB69A97AA94A
:103270008BA99CA920E030E040E85FE30E94250490
:1032800088232CF481E090E098AB8FA73FC069A918
:103290007AA98BA99CA920E03FEF4FE757E40E9451
:1032A000C50318164CF56DA97EA98FA998AD20E02D
:1032B00030E040E251E40E941F02DC01CB01BC017E
:1032C000CD010E944900DC01CB0198AB8FA70FC054
:1032D00088EC90E09EA78DA78DA59EA50197F1F79C
:1032E0009EA78DA78FA598A9019798AB8FA78FA5AB
:1032F00098A9009769F714C069A97AA98BA99CA914
:103300000E944900DC01CB0198AB8FA78FA598A93B
:103310009CA78BA78BA59CA50197F1F79CA78BA7D2
:1033200088E30E94D81780E090E0A0E8BFE38FA375
:1033300098A7A9A7BAA76FA178A589A59AA520E003
:1033400030E04AEF54E40E941F02DC01CB018BA362
:103350009CA3ADA3BEA36BA17CA18DA19EA120E0E7
:1033600030E040E85FE30E94250488232CF481E0EC
:1033700090E09AA389A33FC06BA17CA18DA19EA1DF
:1033800020E03FEF4FE757E40E94C50318164CF5C5
:103390006FA178A589A59AA520E030E040E251E42C
:1033A0000E941F02DC01CB01BC01CD010E9449003B
:1033B000DC01CB019AA389A30FC088EC90E098A30D
:1033C0008F8F8F8D98A10197F1F798A38F8F89A187
:1033D0009AA101979AA389A389A19AA1009769F755
:1033E00014C06BA17CA18DA19EA10E944900DC01AB
:1033F000CB019AA389A389A19AA19E8F8D8F8D8DD0
:103400009E8D0197F1F79E8F8D8F8CE00E94D817CB
:1034100080E090E0A0E8BFE3898F9A8FAB8FBC8FEC
:10342000698D7A8D8B8D9C8D20E030E04AEF54E4DD
:103430000E941F02DC01CB018D8B9E8BAF8BB88F5E
:103440006D897E898F89988D20E030E040E85FE3C8
:103450000E94250488232CF481E090E09C8B8B8BC8
:103460003FC06D897E898F89988D20E03FEF4FE7BF
:1034700057E40E94C50318164CF5698D7A8D8B8D23
:103480009C8D20E030E040E251E40E941F02DC010C
:10349000CB01BC01CD010E944900DC01CB019C8B1A
:1034A0008B8B0FC088EC90E09A8B898B89899A89E5
:1034B0000197F1F79A8B898B8B899C8901979C8B5B
:1034C0008B8B8B899C89009769F714C06D897E89E5
:1034D0008F89988D0E944900DC01CB019C8B8B8BDE
:1034E0008B899C89988B8F878F8598890197F1F7B5
:1034F000988B8F8781E00E94D81780E090E0A0E051
:10350000B0E48B879C87AD87BE876B857C858D8576
:103510009E8520E030E04AEF54E40E941F02DC0167
:10352000CB018F839887A987BA876F817885898532
:103530009A8520E030E040E85FE30E94250488237C
:103540002CF481E090E09E838D833FC06F8178856D
:1035500089859A8520E03FEF4FE757E40E94C50335
:1035600018164CF56B857C858D859E8520E030E0B6
:1035700040E251E40E941F02DC01CB01BC01CD01FD
:103580000E944900DC01CB019E838D830FC088EC33
:1035900090E09C838B838B819C810197F1F79C83C6
:1035A0008B838D819E8101979E838D838D819E81EA
:1035B000009769F714C06F81788589859A850E9484
:1035C0004900DC01CB019E838D838D819E819A838E
:1035D000898389819A810197F1F79A83898386E0AB
:1035E0000E94D817E8960FB6F894DEBF0FBECDBF85
:1035F000CF91DF910895DF93CF93CDB7DEB72E97AC
:103600000FB6F894DEBF0FBECDBF81E00E94D81781
:1036100080E090E0A0E0B0E48B879C87AD87BE8718
:103620006B857C858D859E8520E030E04AEF54E4F3
:103630000E941F02DC01CB018F839887A987BA877C
:103640006F81788589859A8520E030E040E85FE3E6
:103650000E94250488232CF481E090E09E838D83D2
:103660003FC06F81788589859A8520E03FEF4FE7DD
:1036700057E40E94C50318164CF56B857C858D8533
:103680009E8520E030E040E251E40E941F02DC0110
:10369000CB01BC01CD010E944900DC01CB019E831E
:1036A0008D830FC088EC90E09C838B838B819C8101
:1036B0000197F1F79C838B838D819E8101979E8377
:1036C0008D838D819E81009769F714C06F81788505
:1036D00089859A850E944900DC01CB019E838D83F8
:1036E0008D819E819A83898389819A810197F1F7DF
:1036F0009A8389832E960FB6F894DEBF0FBECDBF96
:10370000CF91DF910895DF93CF9300D00F92CDB783
:10371000DEB79B838A8319820EC08981282F30E00F
:103720008A819B81FC01E20FF31F80810E94761841
:1037300089818F5F89838981282F30E08A819B81ED
:10374000FC01E20FF31F8081882339F70F900F905F
:103750000F90CF91DF910895DF93CF93CDB7DEB770
:1037600063970FB6F894DEBF0FBECDBF888B698B11
:103770008889282F30E03B8B2A8B8A899B8981306E
:10378000910531F02A893B892230310559F013C067
:10379000898981508F878F8580688F878F850E9468
:1037A000D81709C08989815C8F878F8580688F874A
:1037B0008F850E94D81780E090E0A0E8BFE38B8758
:1037C0009C87AD87BE876B857C858D859E8520E037
:1037D00030E04AEF54E40E941F02DC01CB018F83EA
:1037E0009887A987BA876F81788589859A8520E02F
:1037F00030E040E85FE30E94250488232CF481E058
:1038000090E09E838D833FC06F81788589859A85FE
:1038100020E03FEF4FE757E40E94C50318164CF530
:103820006B857C858D859E8520E030E040E251E40B
:103830000E941F02DC01CB01BC01CD010E944900A6
:10384000DC01CB019E838D830FC088EC90E09C83CC
:103850008B838B819C810197F1F79C838B838D8176
:103860009E8101979E838D838D819E81009769F74C
:1038700014C06F81788589859A850E944900DC0192
:10388000CB019E838D838D819E819A8389838981DB
:103890009A810197F1F79A83898363960FB6F8941A
:1038A000DEBF0FBECDBFCF91DF910895DF93CF93E1
:1038B00000D000D0CDB7DEB79C838B8381E090E051
:1038C0009A8389838B819C81009731F580E30E94E4
:1038D000761822C089819A819C01220F331FC90169
:1038E000880F991F880F991FF901E80FF91F8B8125
:1038F0009C812AE030E0B9010E94163A8E0F9F1F8A
:103900009A8389838B819C812AE030E0B9010E94EF
:10391000163ACB019C838B838B819C810097D1F6D7
:1039200014C089819A812AE030E0B9010E94163AD8
:10393000805D0E94761889819A812AE030E0B90181
:103940000E94163ACB019A83898389819A818130BA
:10395000910539F70F900F900F900F90CF91DF9155
:103960000895DF93CF93CDB7DEB7AB970FB6F8943A
:10397000DEBF0FBECDBF9AA789A76BA78BA58830E6
:1039800008F0E5C08BA5882F90E0880F991F880F5D
:10399000991F880F991F8BA78BA580648BA78BA578
:1039A0008F778BA78BA50E94D8171FA2CCC08FA1A1
:1039B000282F30E089A59AA5FC01E20FF31F808132
:1039C0000E94761880E090E0A0E7B2E48BA39CA36D
:1039D000ADA3BEA36BA17CA18DA19EA12BEA3AEA67
:1039E0004AE250E40E941F02DC01CB018F8F98A3B2
:1039F000A9A3BAA36F8D78A189A19AA120E030E094
:103A000040E85FE30E94250488231CF481E08E8F48
:103A100091C06F8D78A189A19AA120E030E04FE795
:103A200053E40E94C50318160CF07BC06BA17CA167
:103A30008DA19EA120E030E04AE754E40E941903E2
:103A4000DC01CB018A8F9B8FAC8FBD8F6A8D7B8D04
:103A50008C8D9D8D20E030E04AEF54E40E941F02DF
:103A6000DC01CB018E8B9F8BA88FB98F6E897F89EC
:103A7000888D998D20E030E040E85FE30E942504C6
:103A800088232CF481E090E09D8B8C8B3FC06E8965
:103A90007F89888D998D20E03FEF4FE757E40E94A2
:103AA000C50318164CF56A8D7B8D8C8D9D8D20E09D
:103AB00030E040E251E40E941F02DC01CB01BC0176
:103AC000CD010E944900DC01CB019D8B8C8B0FC086
:103AD00088EC90E09B8B8A8B8A899B890197F1F710
:103AE0009B8B8A8B8C899D8901979D8B8C8B8C8974
:103AF0009D89009769F724C06E897F89888D998D8B
:103B00000E944900DC01CB019D8B8C8B8C899D89A7
:103B1000998B888B888999890197F1F7998B888B84
:103B20000FC06F8D78A189A19AA10E944900DC0184
:103B3000CB018E8F8E8D8F878F858A95F1F78F873A
:103B40008FA18F5F8FA38FA1883008F430CF82E0E0
:103B50000E94D81780E090E0A0E0B0E48B879C87BB
:103B6000AD87BE876B857C858D859E8520E030E0A6
:103B70004AEF54E40E941F02DC01CB018F83988737
:103B8000A987BA876F81788589859A8520E030E09A
:103B900040E85FE30E94250488232CF481E090E054
:103BA0009E838D833FC06F81788589859A8520E0CB
:103BB0003FEF4FE757E40E94C50318164CF56B859D
:103BC0007C858D859E8520E030E040E251E40E94B6
:103BD0001F02DC01CB01BC01CD010E944900DC01C8
:103BE000CB019E838D830FC088EC90E09C838B83F8
:103BF0008B819C810197F1F79C838B838D819E81C2
:103C000001979E838D838D819E81009769F714C0F3
:103C10006F81788589859A850E944900DC01CB01F6
:103C20009E838D838D819E819A83898389819A81E8
:103C30000197F1F79A838983AB960FB6F894DEBFAC
:103C40000FBECDBFCF91DF910895DF93CF9300D00A
:103C50000F92CDB7DEB789836A834B838A816B81EC
:103C60000E94AC1B89810E9476180F900F900F90D4
:103C7000CF91DF910895DF93CF93CDB7DEB78DEB72
:103C80009EE10E9412260E94C025CF91DF910895E7
:103C9000DF93CF930F92CDB7DEB7198212C089811F
:103CA000282F30E0C901880F991F820F931F880FBA
:103CB000991FFC01E55DF84F1182108289818F5FA9
:103CC00089838981833058F30F90CF91DF910895D4
:103CD000DF93CF93CDB7DEB727970FB6F894DEBF4B
:103CE0000FBECDBF89837B836A835D834C833F8313
:103CF0002E8389818330C0F58E819F810097A1F149
:103D00008981282F30E0C901880F991F820F931FE6
:103D1000880F991FFC01E95DF84F8C819D8191838B
:103D200080838981282F30E0C901880F991F820F75
:103D3000931F0196880F991FFC01E95DF84F8A8156
:103D40009B81918380838981282F30E0C901880F6E
:103D5000991F820F931F880F991FFC01E55DF84F93
:103D60008E819F819183808327960FB6F894DEBF62
:103D70000FBECDBFCF91DF910895DF93CF930F9208
:103D8000CDB7DEB7198278C08981282F30E0C9010C
:103D9000880F991F820F931F880F991FFC01E95DFF
:103DA000F84F80819181009709F045C08981282FC3
:103DB00030E0C901880F991F820F931F880F991F48
:103DC000FC01E55DF84F80819181009789F0898140
:103DD000282F30E0C901880F991F820F931F880F89
:103DE000991FFC01E55DF84F0190F081E02D0995E8
:103DF0008981482F50E08981282F30E0C901880F40
:103E0000991F820F931F0196880F991FFC01E95D8E
:103E1000F84F808191819C0121503040CA01880F68
:103E2000991F840F951F880F991FFC01E95DF84FBA
:103E3000318320831EC08981282F30E0C901880F7B
:103E4000991F820F931F880F991FFC01E95DF84F9E
:103E500080819181AC0141505040C901880F991F68
:103E6000820F931F880F991FFC01E95DF84F518362
:103E7000408389818F5F89838981833008F484CF6F
:103E80000F90CF91DF910895DF93CF9300D000D0B2
:103E9000CDB7DEB789836A838981282F30E03C83E0
:103EA0002B838B819C818B35910509F44CC02B8130
:103EB0003C812C353105E4F48B819C818730910560
:103EC00009F45AC02B813C812830310534F48B81B0
:103ED0009C818630910591F15DC02B813C812F330F
:103EE000310539F18B819C818F34910589F152C064
:103EF0002B813C812F36310509F448C08B819C8190
:103F0000803791055CF42B813C812636310529F1FF
:103F10008B819C818D36910529F13CC02B813C81A0
:103F20002D37310521F18B819C818F37910549F126
:103F300031C08A816FE30E94270B2CC08A8166E022
:103F40000E94270B27C08A816BE50E94270B22C0A5
:103F50008A816FE40E94270B1DC08A8166E60E9459
:103F6000270B18C08A816DE60E94270B13C08A8137
:103F70006DE70E94270B0EC08A8167E00E94270B25
:103F800009C08A816FE70E94270B04C08A816FE60F
:103F90000E94270B0F900F900F900F90CF91DF9101
:103FA0000895DF93CF93CDB7DEB76F970FB6F89430
:103FB000DEBF0FBECDBF8A8FCE0140969C8F8B8F08
:103FC000E7E8F0E0FE8FED8FFAE0FF8FED8DFE8DDC
:103FD00000808D8D9E8D01969E8F8D8FEB8DFC8D3B
:103FE00000828B8D9C8D01969C8F8B8F9F8D915025
:103FF0009F8FEF8DEE2351F71F8681C08F85282F6D
:1040000030E0CE014096FC01E20FF31F80816A8D03
:104010000E94441F80E090E0AAE7B4E48B879C876D
:10402000AD87BE876B857C858D859E8520E030E0E1
:104030004AEF54E40E941F02DC01CB018F83988772
:10404000A987BA876F81788589859A8520E030E0D5
:1040500040E85FE30E94250488232CF481E090E08F
:104060009E838D833FC06F81788589859A8520E006
:104070003FEF4FE757E40E94C50318164CF56B85D8
:104080007C858D859E8520E030E040E251E40E94F1
:104090001F02DC01CB01BC01CD010E944900DC0103
:1040A000CB019E838D830FC088EC90E09C838B8333
:1040B0008B819C810197F1F79C838B838D819E81FD
:1040C00001979E838D838D819E81009769F714C02F
:1040D0006F81788589859A850E944900DC01CB0132
:1040E0009E838D838D819E819A83898389819A8124
:1040F0000197F1F79A8389838F858F5F8F878F85EB
:104100008A3008F47BCF6F960FB6F894DEBF0FBEEF
:10411000CDBFCF91DF910895DF93CF93CDB7DEB7B9
:104120006F970FB6F894DEBF0FBECDBF8A8FCE015A
:1041300040969C8F8B8FE1E9F0E0FE8FED8FFAE0E7
:10414000FF8FED8DFE8D00808D8D9E8D01969E8F53
:104150008D8FEB8DFC8D00828B8D9C8D01969C8FBD
:104160008B8F9F8D91509F8FEF8DEE2351F789E0BC
:104170008F878F85282F30E0CE014096FC01E20F1B
:10418000F31F80816A8D0E94441F80E090E0AAE7BF
:10419000B4E48B879C87AD87BE876B857C858D85D6
:1041A0009E8520E030E04AEF54E40E941F02DC01CB
:1041B000CB018F839887A987BA876F817885898596
:1041C0009A8520E030E040E85FE30E9425048823E0
:1041D0002CF481E090E09E838D833FC06F817885D1
:1041E00089859A8520E03FEF4FE757E40E94C50399
:1041F00018164CF56B857C858D859E8520E030E01A
:1042000040E251E40E941F02DC01CB01BC01CD0160
:104210000E944900DC01CB019E838D830FC088EC96
:1042200090E09C838B838B819C810197F1F79C8329
:104230008B838D819E8101979E838D838D819E814D
:10424000009769F714C06F81788589859A850E94E7
:104250004900DC01CB019E838D838D819E819A83F1
:10426000898389819A810197F1F79A8389838F8560
:1042700081508F877ECFDF93CF93CDB7DEB7E8979E
:104280000FB6F894DEBF0FBECDBF80E060E041E026
:104290000E94FB0880E061E040E00E94FB0880E0B3
:1042A00062E041E00E94FB0880E063E041E00E94A0
:1042B000FB0880E090E0A0E2B1E48DAB9EABAFAB39
:1042C000B8AF6DA97EA98FA998AD20E030E04AEF84
:1042D00054E40E941F02DC01CB0189AB9AABABAB6B
:1042E000BCAB69A97AA98BA99CA920E030E040E881
:1042F0005FE30E94250488232CF481E090E098ABD2
:104300008FA73FC069A97AA98BA99CA920E03FEF9C
:104310004FE757E40E94C50318164CF56DA97EA916
:104320008FA998AD20E030E040E251E40E941F02E6
:10433000DC01CB01BC01CD010E944900DC01CB01B5
:1043400098AB8FA70FC088EC90E09EA78DA78DA596
:104350009EA50197F1F79EA78DA78FA598A9019714
:1043600098AB8FA78FA598A9009769F714C069A982
:104370007AA98BA99CA90E944900DC01CB0198ABCA
:104380008FA78FA598A99CA78BA78BA59CA5019704
:10439000F1F79CA78BA780E060E041E00E94FB085A
:1043A00080E061E041E00E94FB0880E062E040E0E4
:1043B0000E94FB0880E063E041E00E94FB0880E08F
:1043C00090E0A0E2B1E48FA398A7A9A7BAA76FA134
:1043D00078A589A59AA520E030E04AEF54E40E9430
:1043E0001F02DC01CB018BA39CA3ADA3BEA36BA1D9
:1043F0007CA18DA19EA120E030E040E85FE30E9417
:10440000250488232CF481E090E09AA389A33FC07F
:104410006BA17CA18DA19EA120E03FEF4FE757E467
:104420000E94C50318164CF56FA178A589A59AA519
:1044300020E030E040E251E40E941F02DC01CB01A9
:10444000BC01CD010E944900DC01CB019AA389A3E4
:104450000FC088EC90E098A38F8F8F8D98A1019763
:10446000F1F798A38F8F89A19AA101979AA389A3A5
:1044700089A19AA1009769F714C06BA17CA18DA1B5
:104480009EA10E944900DC01CB019AA389A389A1C6
:104490009AA19E8F8D8F8D8D9E8D0197F1F79E8FA6
:1044A0008D8F80E060E041E00E94FB0880E061E0E9
:1044B00041E00E94FB0880E062E041E00E94FB08CE
:1044C00080E063E040E00E94FB0880E090E0A0E232
:1044D000B1E4898F9A8FAB8FBC8F698D7A8D8B8D6C
:1044E0009C8D20E030E04AEF54E40E941F02DC0182
:1044F000CB018D8B9E8BAF8BB88F6D897E898F8919
:10450000988D20E030E040E85FE30E942504882396
:104510002CF481E090E09C8B8B8B3FC06D897E8971
:104520008F89988D20E03FEF4FE757E40E94C50345
:1045300018164CF5698D7A8D8B8D9C8D20E030E0BE
:1045400040E251E40E941F02DC01CB01BC01CD011D
:104550000E944900DC01CB019C8B8B8B0FC088EC47
:1045600090E09A8B898B89899A890197F1F79A8BC8
:10457000898B8B899C8901979C8B8B8B8B899C89E0
:10458000009769F714C06D897E898F89988D0E9484
:104590004900DC01CB019C8B8B8B8B899C89988B90
:1045A0008F878F8598890197F1F7988B8F8780E0A7
:1045B00060E040E00E94FB0880E061E041E00E9492
:1045C000FB0880E062E041E00E94FB0880E063E0DD
:1045D00041E00E94FB0880E090E0A0E2B1E48B871C
:1045E0009C87AD87BE876B857C858D859E8520E009
:1045F00030E04AEF54E40E941F02DC01CB018F83BC
:104600009887A987BA876F81788589859A8520E000
:1046100030E040E85FE30E94250488232CF481E029
:1046200090E09E838D833FC06F81788589859A85D0
:1046300020E03FEF4FE757E40E94C50318164CF502
:104640006B857C858D859E8520E030E040E251E4DD
:104650000E941F02DC01CB01BC01CD010E94490078
:10466000DC01CB019E838D830FC088EC90E09C839E
:104670008B838B819C810197F1F79C838B838D8148
:104680009E8101979E838D838D819E81009769F71E
:1046900014C06F81788589859A850E944900DC0164
:1046A000CB019E838D838D819E819A8389838981AD
:1046B0009A810197F1F79A838983E8960FB6F89467
:1046C000DEBF0FBECDBFCF91DF910895DF93CF93B3
:1046D000CDB7DEB7C054D0400FB6F894DEBF0FBEE2
:1046E000CDBFFE01FF9691838083FE01FF968081FE
:1046F0009181982F8827990F990F990F28E631E01B
:10470000B9010E94163ACB019EAF8DAF8DAD9EAD23
:1047100096958795969587959CAF8BAF1AAE19AEF7
:104720001DC280E060E041E00E94FB0880E061E0A3
:1047300040E00E94FB0880E062E041E00E94FB084C
:1047400080E063E041E00E94FB0880E090E0A0E2AE
:10475000B1E48DAB9EABAFABB8AF6DA97EA98FA90D
:1047600098AD20E030E04AEF54E40E941F02DC01E3
:10477000CB0189AB9AABABABBCAB69A97AA98BA9CE
:104780009CA920E030E040E85FE30E9425048823F4
:104790002CF481E090E098AB8FA73FC069A97AA97B
:1047A0008BA99CA920E03FEF4FE757E40E94C50387
:1047B00018164CF56DA97EA98FA998AD20E030E0C0
:1047C00040E251E40E941F02DC01CB01BC01CD019B
:1047D0000E944900DC01CB0198AB8FA70FC088EC89
:1047E00090E09EA78DA78DA59EA50197F1F79EA7A6
:1047F0008DA78FA598A9019798AB8FA78FA598A98A
:10480000009769F714C069A97AA98BA99CA90E948D
:104810004900DC01CB0198AB8FA78FA598A99CA775
:104820008BA78BA59CA50197F1F79CA78BA780E090
:1048300060E041E00E94FB0880E061E041E00E940E
:10484000FB0880E062E040E00E94FB0880E063E05B
:1048500041E00E94FB0880E090E0A0E2B1E48FA379
:1048600098A7A9A7BAA76FA178A589A59AA520E0BE
:1048700030E04AEF54E40E941F02DC01CB018BA31D
:104880009CA3ADA3BEA36BA17CA18DA19EA120E0A2
:1048900030E040E85FE30E94250488232CF481E0A7
:1048A00090E09AA389A33FC06BA17CA18DA19EA19A
:1048B00020E03FEF4FE757E40E94C50318164CF580
:1048C0006FA178A589A59AA520E030E040E251E4E7
:1048D0000E941F02DC01CB01BC01CD010E944900F6
:1048E000DC01CB019AA389A30FC088EC90E098A3C8
:1048F0008F8F8F8D98A10197F1F798A38F8F89A142
:104900009AA101979AA389A389A19AA1009769F70F
:1049100014C06BA17CA18DA19EA10E944900DC0165
:10492000CB019AA389A389A19AA19E8F8D8F8D8D8A
:104930009E8D0197F1F79E8F8D8F80E060E041E0C2
:104940000E94FB0880E061E041E00E94FB0880E0FB
:1049500062E041E00E94FB0880E063E040E00E94EA
:10496000FB0880E090E0A0E2B1E4898F9A8FAB8FE2
:10497000BC8F698D7A8D8B8D9C8D20E030E04AEF65
:1049800054E40E941F02DC01CB018D8B9E8BAF8B08
:10499000B88F6D897E898F89988D20E030E040E85E
:1049A0005FE30E94250488232CF481E090E09C8B37
:1049B0008B8B3FC06D897E898F89988D20E03FEF7A
:1049C0004FE757E40E94C50318164CF5698D7A8DA0
:1049D0008B8D9C8D20E030E040E251E40E941F026C
:1049E000DC01CB01BC01CD010E944900DC01CB01FF
:1049F0009C8B8B8B0FC088EC90E09A8B898B89897C
:104A00009A890197F1F79A8B898B8B899C890197F9
:104A10009C8B8B8B8B899C89009769F714C06D895F
:104A20007E898F89988D0E944900DC01CB019C8B87
:104A30008B8B8B899C89988B8F878F859889019721
:104A4000F1F7988B8F8780E060E040E00E94FB08E0
:104A500080E061E041E00E94FB0880E062E041E02C
:104A60000E94FB0880E063E041E00E94FB0880E0D8
:104A700090E0A0E2B1E48B879C87AD87BE876B8511
:104A80007C858D859E8520E030E04AEF54E40E94CD
:104A90001F02DC01CB018F839887A987BA876F81BA
:104AA000788589859A8520E030E040E85FE30E94C0
:104AB000250488232CF481E090E09E838D833FC001
:104AC0006F81788589859A8520E03FEF4FE757E42D
:104AD0000E94C50318164CF56B857C858D859E85D7
:104AE00020E030E040E251E40E941F02DC01CB01F3
:104AF000BC01CD010E944900DC01CB019E838D8366
:104B00000FC088EC90E09C838B838B819C81019704
:104B1000F1F79C838B838D819E8101979E838D838A
:104B20008D819E81009769F714C06F817885898592
:104B30009A850E944900DC01CB019E838D838D8183
:104B40009E819A83898389819A810197F1F79A835B
:104B5000898389AD9AAD01969AAF89AF29AD3AADF7
:104B60008BAD9CAD2817390708F4DBCDC05CDF4F57
:104B70000FB6F894DEBF0FBECDBFCF91DF91089581
:104B8000DF93CF93CDB7DEB7A3E5B0E0E3E5F0E088
:104B900080818F7B8C93A3E5B0E0E3E5F0E080813A
:104BA00088608C93A9E5B0E0E9E5F0E0808182605F
:104BB0008C93A3E5B0E0E3E5F0E08081887C8C9302
:104BC000A3E5B0E0E3E5F0E0808182608C93ECE562
:104BD000F0E087EC8083CF91DF910895DF93CF934E
:104BE000CDB7DEB7A3E5B0E0E3E5F0E08081887FF4
:104BF0008C93CF91DF910895DF93CF9300D0CDB701
:104C0000DEB79A83898389819A81009731F08981FF
:104C10009A819093A6008093A5000F900F90CF915A
:104C2000DF910895DF93CF9300D0CDB7DEB79A839D
:104C3000898389819A81009731F089819A81909343
:104C4000A8008093A7000F900F90CF91DF91089557
:104C5000DF93CF930F92CDB7DEB78983E2E5F0E023
:104C6000898180830F90CF91DF910895DF93CF9357
:104C70000F92CDB7DEB78983ECE5F0E089818083C0
:104C80000F90CF91DF9108951F920F920FB60F9260
:104C900011242F933F934F935F936F937F938F9341
:104CA0009F93AF93BF93EF93FF93DF93CF93CDB7D2
:104CB000DEB78091A5009091A600009729F0E091C1
:104CC000A500F091A6000995CF91DF91FF91EF919A
:104CD000BF91AF919F918F917F916F915F914F9114
:104CE0003F912F910F900FBE0F901F9018951F921C
:104CF0000F920FB60F9211242F933F934F935F9310
:104D00006F937F938F939F93AF93BF93EF93FF9393
:104D1000DF93CF93CDB7DEB78091A7009091A80025
:104D2000009729F0E091A700F091A8000995CF9194
:104D3000DF91FF91EF91BF91AF919F918F917F9103
:104D40006F915F914F913F912F910F900FBE0F90F8
:104D50001F901895AF92BF92CF92DF92EF92FF9281
:104D60000F93DF93CF93CDB7DEB70E9424080E9444
:104D7000940D8DEE96E260E070E048EC50E020E0AB
:104D800030E004E0EE24FF24CC24DD24AA24BB245C
:104D90000E942B3381E197E260E070E048EC50E044
:104DA00020E030E003E0EE24FF24CC24DD24AA241C
:104DB000BB240E942B3385E397E260E070E048EC6F
:104DC00050E020E030E002E0EE24FF24CC24DD249B
:104DD000AA24BB240E942B33FFCFDF93CF9300D0B4
:104DE000CDB7DEB79A8389838091A900882359F4CF
:104DF000EBE3F0E0808160E041E00E94FB0881E0AD
:104E00008093A90009C0EBE3F0E0808160E040E01E
:104E10000E94FB081092A90088EE93E00E94EF34F4
:104E2000E3CFDF93CF9300D0CDB7DEB79A838983EA
:104E30008091AA00882359F4EBE3F0E0808161E0DF
:104E400041E00E94FB0881E08093AA0009C0EBE3E7
:104E5000F0E0808161E040E00E94FB081092AA002F
:104E600088EE93E00E94EF34E3CFDF93CF9300D03E
:104E7000CDB7DEB79A8389838091AB00882359F43C
:104E8000EBE3F0E0808162E041E00E94FB0881E01A
:104E90008093AB0009C0EBE3F0E0808162E040E08A
:104EA0000E94FB081092AB0088EE93E00E94EF3462
:104EB000E3CFDF93CF93CDB7DEB727970FB6F89444
:104EC000DEBF0FBECDBF9D838C836E834F838AE18F
:104ED00090E00E94312A9A83898389819A81009780
:104EE00009F46FC08091AC009091AD00009741F43F
:104EF00089819A819093AD008093AC000E94C02973
:104F00008E81823010F081E08E83E981FA81118EEA
:104F1000108EE981FA818E81868BE981FA818F81F9
:104F2000878BE981FA818C819D819183808389813E
:104F30009A8102960E94C72A89819A810C960E94C2
:104F4000C72AE981FA8189819A8191878087E981DD
:104F5000FA8189819A81938B828B8E81282F30E010
:104F600085E090E0821B930BE981FA819587848725
:104F7000E981FA8196898091AE00891728F4E98148
:104F8000FA8186898093AE00E981FA818689282F8B
:104F900030E0C901880F991F880F991F880F991F4A
:104FA000820F931FAC014B545F4F89819A819C0102
:104FB0002E5F3F4FCA01B9010E94D72A81E08B833F
:104FC00002C08FEF8B838B8127960FB6F894DEBFDC
:104FD0000FBECDBFCF91DF910895DF93CF9300D067
:104FE00000D000D0CDB7DEB79C838B837E836D83EA
:104FF0002091AF003091B0008B819C81820F931F74
:105000009A8389838091AC009091AD0002960E94B2
:105010008F2BE091AC00F091AD0089819A81938350
:1050200082832091AF003091B00089819A818217EC
:10503000930770F48091DB009091DC002091AC002C
:105040003091AD002E5F3F4FB9010E94232B0DC060
:105050008091D9009091DA002091AC003091AD00A0
:105060002E5F3F4FB9010E94232B8D819E810097B7
:1050700061F08091AC009091AD009C01245F3F4FA6
:105080008D819E81B9010E94232B26960FB6F8943C
:10509000DEBF0FBECDBFCF91DF910895DF93CF93D9
:1050A00000D0CDB7DEB73AC0F894E091E200F091BD
:1050B000E300868197819A83898389819A810C96FE
:1050C0000E948F2B789489819A8102960E948F2B5F
:1050D000E981FA8196898091AE00891728F4E981E7
:1050E000FA8186898093AE00E981FA818689282F2A
:1050F00030E0C901880F991F880F991F880F991FE9
:10510000820F931FAC014B545F4F89819A819C01A0
:105110002E5F3F4FCA01B9010E94D72A8091DD005E
:10512000882309F0C1CF0F900F90CF91DF910895A0
:10513000DF93CF9300D000D0CDB7DEB70E94FD350E
:105140002091B1003091B200821B930B9093B40078
:105150008093B30085C08091AF009091B00001961C
:105160009093B0008093AF008091B3009091B40011
:1051700001979093B4008093B3008091AF00909119
:10518000B000009709F064C08091D9009091DA00D6
:105190009A8389838091DB009091DC009093DA0000
:1051A0008093D90089819A819093DC008093DB0001
:1051B0004FC0E091D900F091DA000580F681E02D32
:1051C000868197819C838B83EB81FC812281338153
:1051D0008091AF009091B0008217930708F440C00F
:1051E000F8948B819C8102960E948F2BEB81FC812D
:1051F00084899589009729F08B819C810C960E9467
:105200008F2B7894EB81FC8196898091AE00891771
:1052100028F4EB81FC8186898093AE00EB81FC81D0
:105220008689282F30E0C901880F991F880F991FA0
:10523000880F991F820F931FAC014B545F4F8B81D6
:105240009C819C012E5F3F4FCA01B9010E94D72A61
:10525000E091D900F091DA008081882309F0A9CF8C
:105260008091B3009091B400009709F074CF8091C1
:10527000AF009091B0009093B2008093B1000F9076
:105280000F900F900F90CF91DF910895DF93CF9300
:1052900000D0CDB7DEB70E944E280E9498280AC0E1
:1052A0008091AE00882309F466C08091AE008150E1
:1052B0008093AE008091AE00282F30E0C901880FA6
:1052C000991F880F991F880F991F820F931FFC0148
:1052D000EB54FF4F8081882319F38091AE00282F73
:1052E00030E0C901880F991F880F991F880F991FF7
:1052F000820F931F8B549F4F9A838983E981FA8190
:105300000180F281E02D82819381E981FA8192838B
:105310008183E981FA812181328189819A81039691
:105320002817390759F4E981FA810180F281E02DCB
:1053300082819381E981FA8192838183E981FA8173
:105340000180F281E02D868197819093AD0080935A
:10535000AC00E091AC00F091AD00408151818091B2
:10536000AC009091AD00E091AC00F091AD002789C8
:10537000622FFA0109950F900F90CF91DF91089558
:10538000DF93CF930F92CDB7DEB7198213C0898117
:10539000282F30E0C901880F991F880F991F880FA7
:1053A000991F820F931F8B549F4F0E949D2A8981C2
:1053B0008F5F89838981823050F387EC90E00E946F
:1053C0009D2A80ED90E00E949D2A8DED90E00E9444
:1053D0009D2A87EC90E09093DA008093D90080EDCD
:1053E00090E09093DC008093DB000F90CF91DF91F1
:1053F0000895DF93CF9300D000D00F92CDB7DEB7E2
:105400009D838C83EC81FD810580F681E02D868172
:1054100097819B838A838A819B810C960E948F2B24
:105420008A819B819C01245F3F4F8DED90E0B90103
:105430000E94D72AEA81FB819689E091AC00F09125
:10544000AD008689981718F081E0898301C0198220
:1054500089810F900F900F900F900F90CF91DF9157
:105460000895DF93CF9300D000D0CDB7DEB79C83F3
:105470008B831A8219820E9467358091E600909191
:10548000E7002B813C81820F931F25E08C3D920722
:1054900018F52091E6003091E7008B819C81280F60
:1054A000391F8091E6009091E70082179307A0F4DE
:1054B0008091E6009091E70088519F4F9A838983FD
:1054C0002091E6003091E7008B819C81820F931F31
:1054D0009093E7008093E6000E94733589819A815A
:1054E0000F900F900F900F90CF91DF910895DF9361
:1054F000CF9300D0CDB7DEB79A8389830F900F90FA
:10550000CF91DF910895DF93CF93CDB7DEB710929F
:10551000E7001092E600CF91DF910895DF93CF93DB
:10552000CDB7DEB72091E6003091E7008CED95E035
:10553000821B930BCF91DF910895DF93CF9300D01F
:10554000CDB7DEB79A83898389819A810396E981F1
:10555000FA8192838183E981FA818FEF9FEF9483AF
:10556000838389819A810396E981FA819683858371
:1055700089819A810396E981FA8190878783E981FD
:10558000FA8110820F900F90CF91DF910895DF93F1
:10559000CF9300D0CDB7DEB79A838983E981FA81B2
:1055A000118610860F900F90CF91DF910895DF93B1
:1055B000CF9300D000D000D0CDB7DEB79C838B83D3
:1055C0007E836D83EB81FC81818192819A838983C3
:1055D000E981FA8182819381ED81FE8193838283C7
:1055E000EB81FC8181819281ED81FE8195838483B1
:1055F000E981FA810280F381E02D8D819E8195837E
:1056000084838D819E81E981FA81938382838D8158
:105610009E81EB81FC8192838183ED81FE818B8170
:105620009C8191878087EB81FC8180818F5FEB81FA
:10563000FC81808326960FB6F894DEBF0FBECDBFE7
:10564000CF91DF910895DF93CF93CDB7DEB7289741
:105650000FB6F894DEBF0FBECDBF9E838D837887D3
:105660006F83EF81F885808191819A838983898115
:105670009A812FEF8F3F920739F4ED81FE81878168
:1056800090859C838B8318C08D819E8103969C831B
:105690008B8306C0EB81FC81828193819C838B8309
:1056A000EB81FC810280F381E02D208131818981B1
:1056B0009A818217930770F7EB81FC818281938135
:1056C000EF81F88593838283EF81F8850280F381EF
:1056D000E02D8F81988595838483EF81F8858B8178
:1056E0009C81958384838F819885EB81FC81938352
:1056F0008283EF81F8858D819E8191878087ED81FE
:10570000FE8180818F5FED81FE81808328960FB6B8
:10571000F894DEBF0FBECDBFCF91DF910895DF9328
:10572000CF9300D000D0CDB7DEB79C838B83EB81C5
:10573000FC81A281B381EB81FC81848195811596E6
:105740009C938E931497EB81FC81A481B581EB81AE
:10575000FC818281938113969C938E931297EB81A7
:10576000FC81808591859A838983E981FA812181F1
:1057700032818B819C812817390741F4EB81FC81B0
:1057800084819581E981FA8192838183EB81FC8117
:1057900011861086E981FA8180818150E981FA8140
:1057A00080830F900F900F900F90CF91DF9108950D
:1057B000DF93CF93CDB7DEB728970FB6F894DEBF4F
:1057C0000FBECDBF9C838B837E836D8358874F83B1
:1057D000EB81FC8181E180838B819C8101979C839B
:1057E0008B83EB81FC8182E280838B819C8101979A
:1057F0009C838B83EB81FC8183E380838B819C8101
:1058000001979C838B838D819E819A838983898173
:10581000EB81FC8180838B819C8101979C838B83AE
:1058200089819A81892F99279A8389838981EB813C
:10583000FC8180838B819C8101979C838B83EB818E
:10584000FC8110828B819C8101979C838B83EB81EF
:10585000FC8180E880838B819C8101979C838B8372
:10586000EB81FC8110828B819C8101979C838B83CF
:10587000EB81FC8182E080838B819C8101979C83FA
:105880008B83EB81FC8183E080838B819C810197FA
:105890009C838B83EB81FC8184E080838B819C8162
:1058A00001979C838B83EB81FC8185E080838B81D6
:1058B0009C8101979C838B83EB81FC8186E08083B4
:1058C0008B819C8101979C838B83EB81FC8187E09A
:1058D00080838B819C8101979C838B83EB81FC81EE
:1058E00088E080838B819C8101979C838B83EB81F3
:1058F000FC8189E080838B819C8101979C838B83D1
:10590000EB81FC8180E180838B819C8101979C836A
:105910008B83EB81FC8181E180838B819C8101976A
:105920009C838B83EB81FC8182E180838B819C81D2
:1059300001979C838B83EB81FC8183E180838B8146
:105940009C8101979C838B83EB81FC8184E1808324
:105950008B819C8101979C838B83EB81FC8185E10A
:1059600080838B819C8101979C838B83EB81FC815D
:1059700086E180838B819C8101979C838B83EB8163
:10598000FC8187E180838B819C8101979C838B8341
:10599000EB81FC8188E180838B819C8101979C83D2
:1059A0008B83EB81FC8189E180838B819C810197D2
:1059B0009C838B83EB81FC8180E280838B819C8143
:1059C00001979C838B83EB81FC8181E280838B81B7
:1059D0009C8101979C838B83EB81FC8182E2808395
:1059E0008B819C8101979C838B83EB81FC8183E27B
:1059F00080838B819C8101979C838B838F81988589
:105A00009A8389838981EB81FC8180838B819C814E
:105A100001979C838B8389819A81892F99279A8307
:105A200089838981EB81FC8180838B819C810197B3
:105A30009C838B83EB81FC8186E280838B819C81BC
:105A400001979C838B83EB81FC8187E280838B8130
:105A50009C8101979C838B83EB81FC8188E280830E
:105A60008B819C8101979C838B83EB81FC8189E2F4
:105A700080838B819C8101979C838B83EB81FC814C
:105A800080E380838B819C8101979C838B83EB8156
:105A9000FC8181E380838B819C8101979C838B8334
:105AA0008B819C8128960FB6F894DEBF0FBECDBFC8
:105AB000CF91DF910895DF93CF93CDB7DEB70E94EA
:105AC0004B2EA091C406B091C506CD91CDBFDD91FE
:105AD000DEBFFF91EF91DF91CF91BF91AF919F9189
